:1010000040450020A1480000DFD000008D480000CE
:101010008D4800008D4800008D4800000000000051
:101020000000000000000000000000000D4A000069
:101030008D48000000000000A94900008D48000014
:10104000C14B0000817F0000C14B0000C14B00007C
:10105000C14B0000C14B0000C14B0000C14B000060
:10106000C14B0000C14B0000019D0000C14B0000BE
:10107000C14B0000C14B0000C14B0000C14B000040
:10108000C14B0000C14B0000C14B0000C14B000030
:10109000E57F0000C14B0000C14B0000C14B0000C8
:1010A000C14B0000C14B0000C14B0000C14B000010
:1010B000C14B0000C14B0000C14B0000C14B000000
:1010C000C14B0000C14B0000C14B0000C14B0000F0
:1010D000C14B0000C14B0000C14B0000C14B0000E0
:1010E000C14B0000C14B0000C14B0000C14B0000D0
:1010F000C14B0000C14B0000C14B0000C14B0000C0
:10110000014B1B689B68184700000020014B1B68BF
:101110001B69184700000020014B1B685B691847DA
:1011200000000020014B1B689B691847000000204D
:10113000014B1B68DB69184700000020014B1B684E
:101140001B6A184700000020014B1B689B6A184768
:101150000000002010B4034C2468E468A44610BCCE
:10116000604700BF0000002030B50346114890F9E9
:101170001C209A4219DD90F924209A4217DA9A1A13
:10118000846AA05C0C4A15569D420DD00E3200298F
:1011900018BF01309442C0B206D129B1013BDBB285
:1011A000012B01D80130C0B230BD0D20FCE700207A
:1011B000FAE700BF2005002048E5000008B5054B10
:1011C00093F91C30984203DAFFF7CEFF024B1B560F
:1011D000184608BD2005002048E5000010B51C4C4D
:1011E00094F82C3073B9012384F82C3000F09EF869
:1011F00048B1184BA362D823236284F82430082313
:10120000A361237710BD00F0A7F80028F1D100F00A
:10121000ADF80028EDD100F06BF838B10E4BA362A9
:10122000D823236284F824300423E9E700F06AF825
:101230000028F3D100F070F80028EFD100F080F81A
:101240000028EBD14FF4DF71742000F019F800BFD3
:101250002005002083E5000056E50000BFF34F8F16
:101260000549064BCA6802F4E0621343CB60BFF342
:101270004F8F00BFFDE700BF00ED00E00400FA055E
:101280001FB572B6134B5D688DB9FFF7E7FFB2FB70
:10129000F6F2DCB20133002AF9D104F110036B44F9
:1012A00003F80C2C0A2234B901A8A847EDE702463E
:1012B00000230A26EDE7631E04AEDCB256FA83F380
:1012C000B0FBF2F602FB1600303003F80C0C30468F
:1012D000E9E700BFB00900204FF08052034BD2F87D
:1012E00030111960D2F834215A607047EC0900209F
:1012F000034B1868A0F10F0358425841704700BFD4
:10130000EC090020034B1868A0F10A035842584129
:10131000704700BFEC090020034B1868A0F10E03D2
:1013200058425841704700BFEC090020034B186831
:10133000A0F1100358425841704700BFEC0900204B
:10134000044B1868062803D0431C58425841704784
:1013500001207047EC090020034B1868A0F10D0331
:1013600058425841704700BFEC090020034B1868F1
:10137000A0F1080358425841704700BFEC09002013
:1013800053B94AB9002908BF00281CBF4FF0FF31EC
:101390004FF0FF3000F00CB8ADF1080C6DE904CE51
:1013A00000F067F8DDF804E0DDE9022304B07047DF
:1013B000704700BF08B5FFF78FFFBDE80840FFF793
:1013C0000DBF801A00F3070038B540B20D4659B280
:1013D0001446FFF7F3FE0023287020446B7040B2E0
:1013E00038BD0023036070477047002070474FF0FE
:1013F000FF3070474FF0FF30704770474FF0FF30BD
:10140000704700207047002070470023037070472A
:101410000022FFF7D6BF002070474FF0FF30704723
:101420004FF0FF3070474FF0FF3070477047002893
:101430000CBF6FF015000020704700207047072395
:10144000037000207047002070470020704710F89C
:10145000012B11F8013B012A28BF9A42F7D0D01A7C
:101460007047034613F8012B002AFBD1181A0138E4
:1014700070472DE9F04786468C460846089E15467B
:1014800074461946002B40F0C2808542B2FA82F2BF
:1014900045D94AB1C2F1200300FA02FC2EFA03F347
:1014A000954043EA0C0C94404FEA154EA8B2BCFBA1
:1014B000FEF8230C0EFB18CC08FB00F943EA0C43A2
:1014C000994528D9EB1808F1FF3704D2994502D97C
:1014D000A8F102072B44A3EB0903A4B2B3FBFEFC63
:1014E0000EFB1C330CFB00F044EA0344A04214D969
:1014F0002C190CF1FF3304D2A04202D9ACF1020343
:101500002C44241A43EA07401EB1D440002334601F
:101510007360BDE8F0874746DDE76346F1E792BBBD
:10152000431B01214FEA154EAFB2B3FBFEFC200C6A
:101530000EFB1C330CFB07F840EA0343984562D9C5
:10154000EB180CF1FF3004D2984502D9ACF102003F
:101550002B44A3EB0803A4B2B3FBFEFC0EFB1C332D
:101560000CFB07F744EA0344A7424ED92C190CF1AF
:10157000FF3304D2A74202D9ACF102032C44E41B8E
:1015800043EA0040C0E7C2F1200320FA03F195408E
:1015900090402EFA03F303434FEA154EAFB2B1FB6E
:1015A000FEFC0EFB1C10190C0CFB07F841EA004175
:1015B000884504FA02F422D969180CF1FF3004D2EC
:1015C000884502D9ACF102002944A1EB08019BB285
:1015D000B1FBFEFC0EFB1C110CFB07F743EA0143B9
:1015E0009F420ED9EB180CF1FF3104D29F4202D971
:1015F000ACF102012B44DB1B41EA004192E760465B
:10160000E3E76146F7E76046A3E76346B7E783424F
:1016100006D916B9002108467BE7C6E900E0F9E7DC
:10162000B3FA83F78FB9834201D3724508D8BEEB72
:10163000020460EB030301209C461EB9002168E709
:101640003846FAE7C6E9004CF8E7C7F1200CBB4082
:1016500022FA0CF41C432EFA0CF120FA0CF3B840D9
:1016600001434FEA14490EFA07F5B3FBF9F81FFAE4
:1016700084FE09FB18300B0C08FB0EFA43EA00430A
:101680009A4502FA07F240D9E31808F1FF3004D274
:101690009A4502D9A8F102002344A3EB0A0389B2B8
:1016A000B3FBF9F809FB183308FB0EFE41EA0341CE
:1016B0008E452CD9611808F1FF3304D28E4502D92A
:1016C000A8F10203214443EA0040A0FB0298A1EBE9
:1016D0000E014145CE46434602D306D14D4504D2C4
:1016E000B9EB020E68EB04030138002EA6D0B5EB6F
:1016F0000E0261EB030101FA0CFC22FA07F34CEA3B
:101700000303F940C6E9003198E74046C5E7434680
:10171000D9E7000010B5084B084C012220461A708A
:101720000321074A0AF0BFFA2046064ABDE81040E6
:1017300003210AF0B8BA00BF7828002000E50000B5
:1017400044E800005BE80000032808D0042808D023
:1017500001280ED1074B00221A70074A05E0FFF757
:10176000D9BF044B00221A70044A054803210AF02D
:101770009ABA70477828002094E800007BE80000BF
:1017800000E500002DE9F0433E4C85B0204602AF55
:1017900006F0D4FF0646002871D12578082D45D1E2
:1017A000394A3A482B4603210BF06FFAE84688B0D5
:1017B00088B002AAA146364B536119F8051B354B78
:1017C00093614FF4007393830905334B42F8103F44
:1017D00041F4E6512D484B4601F0E6F82F4BD3F883
:1017E00000C0C546BCF1000F1AD02D4B1B78BBB111
:1017F000D4F80500D9F804103B4603C32A46334603
:101800003946604603F05AFD0828034604D0254AAD
:101810001E4801210BF039FA0C37BD46BDE8F083B4
:10182000214A022119480AF03EFAF5E7022D08D1B3
:101830006379A2791548009203211C4A0BF02FFA14
:10184000EAE71B4A11482B4602210BF01EFA6D46AF
:1018500088B002AA0E4B5361164B93614FF400738C
:1018600093830D4B42F8103F234613F8051B0905DF
:1018700041F4E651054801F097F8AD46CCE70E4A31
:101880000121CFE779280020A6E8000000E500004C
:10189000BDE80000C0E80000030000019012002035
:1018A00078280020D4E80000FBE800002FE90000C1
:1018B0006BE9000089E900009DE900000178012939
:1018C00007D0022907D041B9044A032104480AF08D
:1018D000EAB9044AFAE7FFF755BF7047B7E90000D5
:1018E00000E50000DBE900007FB54F4A4F480321C7
:1018F0000AF0D9F94E484F4C08F038FA206038B950
:101900004D4A4A4801210AF0CEF9002004B070BDCA
:101910004A4A464803210AF0C6F920680BF0D5FF71
:1019200008B9474AEDE7474A404803210AF0BBF9A6
:101930002068454900232D2203F0AAFC434A3B4876
:1019400003210AF0B0F920680BF01CFC044630B10A
:101950003F4A0346354801210BF097F9D5E73D4A48
:10196000324803210AF09FF93B4804F023FB3B4A2D
:101970002E4803210AF097F900214FF480400CF023
:1019800004FA374A294803210AF08DF9204601F06C
:101990004FFE034608B1334ADCE7334A2348334C51
:1019A00003210AF080F923788BB1314840F201130A
:1019B000038001242F4B43600826032504724674DC
:1019C000C58106F0A3FD034638B12B4AC2E70021CA
:1019D00040F6CD400CF0D9F9E5E7284B019301A87A
:1019E00006F014FF034608B1254AB3E7254A1068FC
:1019F000516802AB03C3314602A806F021FF03463B
:101A000008B1214AA6E706F0E9FE034608B11F4ADD
:101A1000A0E71F4A054829460AF045F900214FF47E
:101A200000400CF0B2F9F9E7FEE9000000E5000023
:101A300022EA00009012002028EA000057EA000085
:101A400087EA0000A6EA00004FEC0000C2EA0000AE
:101A5000D2EA0000F1EA00004917000002EB0000A2
:101A600038EB000054EB000071EB000078280020F8
:101A7000F8000020BD1800008BEB0000AB12CD3445
:101A8000ADEB000046EC0000D2EB0000F1EB0000F3
:101A900010EC00002DE9F04F91B08407009302F0A4
:101AA00004030293C2F3C20303F10103DDF868806B
:101AB000039205460E46059340F0BA81041D30B1ED
:101AC000072909D86FF01B0011B0BDE8F08F01F0B5
:101AD00007063444C6F10806009B4FF00009591E62
:101AE0004FF0040A4FF0FF330193CDF810904F46AA
:101AF000CB4653460DB1009A22600598002800F3AA
:101B0000E8809848009A824203D397488242C0F006
:101B1000E080039AA4EB050E92074FEA9E0000F1C5
:101B200003810F2F00F2B180002D00F0058107F135
:101B300040020DEB020C019A0CF8200C0CF8102C52
:101B4000049801300490E7E07A285DD84B280ED83D
:101B5000472859D829282DD8252852D054D82028AC
:101B60007AD02338D0F1000B4BEB000B74E04C38EB
:101B70002E2849D8DFE800F07048484848484848CF
:101B8000484848484B484848484848484859484BBE
:101B90004B595959704B6D487048184B184848823A
:101BA0007F4B48484B487F0000204FF0000B4FF020
:101BB000040A38E02A38C0B2012202FA00F010EA22
:101BC0000E0F49D110F0625C2FD110EA020B43D006
:101BD0006046013C5444B4FBFAF40AFB04F4002DC3
:101BE00061D0A3EB050CA444B4453FF66BAF0028CD
:101BF00068D1042B47D158F8043B236004340423F4
:101C00002AE0019A013A01924FF0000B24E011F80A
:101C1000010C6C2834D111F8023C00206C2B834657
:101C2000C5D14FF0080A5346D3E708F1070828F05A
:101C300007080734F8E802AB24F0070435B106982A
:101C40002044B0423FF63EAFC4E900AB08344FF049
:101C5000000B4FF0080A534611F8010F002878D006
:101C6000BBF1000F7FF470AF2528F5D1019B013344
:101C700001934FF0010B4FF0040AECE7584694E74C
:101C800000208346A5E7082B02D06FF015001BE764
:101C900008F1070828F00708F8E80223C4E9002340
:101CA00008340823D8E768B9042B02D108F10408E6
:101CB000A4E7082BE9D108F1070828F0070808F184
:101CC0000808EDE7059A013A059258F8042B0092AE
:101CD00010E7039A900720D5A4EB050E4FEA9E006B
:101CE0004FF0010CBEF5007FCFD20F2FCDD8F5B14C
:101CF00007F140020DEB020EC0B2019A0EF8200C63
:101D00000EF8102CBCF1000F3FF41AAF60F07F000A
:101D10000EF8200C09F101090137C5F1080204345D
:101D200006924FF6DA7E97E74FF0000CDAE7BCF147
:101D3000000F01D00136EFE7029802360028EBD100
:101D40000098CDE90631FFF78CFBDDE9063106444A
:101D5000E2E7631BB3F5806F97D23DB9A6F10804A3
:101D6000E018B1E648E1000090F90000029A28600E
:101D70009B082B709DF81030C2B1EB7085F8029073
:101D8000B9F1000F05D008A80022C5F1010C974257
:101D90000ED1C5F101030DF120084FF0000A0193A7
:101DA0000DF1300B574512D1601B8DE66B70E5E7E6
:101DB00010F8013B190608D50CEB040EB64503F0EC
:101DC0007F033FF67FAE04F8013B0132DFE7B9F154
:101DD000000F03D098F90020002A17DB029BD3B133
:101DE0001AF80B2004F8012B0022019B181910444B
:101DF000B0423FF667AE98F8000004F8010B009976
:101E0000039220460CF015F9039A14440AF1010AD2
:101E100008F10108C6E798F8002055F82230009331
:101E2000029B45F822300098FFF71BFB421CDCE7C1
:101E30006FF00D0048E600BF2DE9F04F97B000AFFE
:101E400090F802A0D7F880B03B62CBF3C003044601
:101E5000FA62BB61894641B9457800780AEB800097
:101E600020444D4517D8A0EB0409E378FB61BAF193
:101E7000000F02D01BF0010F16D1FB6953BBFB6AA8
:101E80001BB13A6A4946204698474D4628465C377A
:101E9000BD46BDE8F08F461C3046FFF7E2FA013040
:101EA000304409F10109DCE7237862687A62FA6A52
:101EB0009900796104EB8301002A40F000814D46CE
:101EC0000E4601EB0A094FF000084E454CD101EBDC
:101ED0000A0610E01BF0020FD1D023789A007A6135
:101EE00062687A62FA6A04EB8301002A77D14D4670
:101EF00001EB0A0690461BF0050F0CBF02230123DD
:101F0000FB62FB6906EB430A0BF00203BB6256451A
:101F1000BCD016F8021B16F8013C54F82390994BDC
:101F2000994502D3984B994536D3BB69002B40D0D5
:101F3000786A0AF098F900283BD0E9468AB06A46E8
:101F4000924B53617B6AC2E906314FF400731384EC
:101F50008F4B42F8103F8F4800234FF4125100F08E
:101F600023FD023DCD46D2E716F8013BF96254F855
:101F70002300FFF776FAD7F88430F96A01304BB1C5
:101F8000D7F8883098453EBFD7F8843023F818003A
:101F900008F10108054498E7BB6923B1786A0AF0A3
:101FA00062F90028C9D11BF0010F05D1FB6AED1AB7
:101FB000ADE7BB6A002BAAD04846FFF752FAD7F824
:101FC000843053B1D7F8883098453FBFD7F8842084
:101FD000431C22F8183008F10108054497E7BAF1CC
:101FE000000F72D01BF0040672D0D046002607F115
:101FF000480052463B61B9620CF01BF8B96A3B6974
:1020000001EB0A02BA62FA69F9695200FA60BA6A27
:1020100002EB41023A610BF00202BA603A69B96A16
:102020008A4257D162787A621BF0020F32440CBFA9
:102030004FEA580100211BF0010FD2B240F09F80FF
:102040001BF0040F14BF40460020BB616270A070FB
:10205000E1703A6A7969FB6A20469847051EFFF6E7
:1020600015AFBB6923707B6A6370FB69E3704146FF
:102070003A6AFB6A84F802A007F148009847B0F179
:102080000008C0F2BB807B693A6AA9EB0A01C91A51
:10209000FB68C91AD7E90A0398470028C0F2B08044
:1020A000A84408EB00054FF0000B07F1380AB345D0
:1020B00072D300213A6AFB6A08469847E6E656461C
:1020C0004FF0000807F1380093E75646D04697E7EF
:1020D000B04695E7BA6A12F8021BBA6212F8015CC0
:1020E000284A54F82500904202D3274A90421ED332
:1020F000BA6932B1786A7B600AF0B5F87B6800286B
:102100008CD1BA6802BB08F1280207F1300C08F143
:102110000100944407F1580252FA80F008F10208D5
:102120000CF8101C5FFA88F800F8105C76E7BA69C2
:102130003AB1786A7B600AF096F87B6800287FF4F1
:102140006DAF1BF0010F09D006F1280207F1300036
:10215000711C161806F8205CCEB25FE71BF0040F66
:102160003FF45CAF08F1280207F1300008F10101EB
:1021700002EB000808F8105C5FFA81F84EE70020D7
:1021800063E700BF48E1000090F9000085EC000023
:1021900004000001B8E400001BF80A3087F837306B
:1021A00054F82390D7F884302BB3D7F888309B4568
:1021B00021D2D7F8843033F81B803A6AFB6A0121B8
:1021C00007F13700984700281ADB0544B8F1000FE3
:1021D00006D14846FFF745F900F101081FFA88F8D3
:1021E0003A6AFB6A414648469847002808DB05449E
:1021F0000BF1010B5BE74FF00008DEE7454645E6D3
:10220000054643E6014B1860704700BF0C010020F3
:1022100080B505460E461746984608F079FD0346F8
:102220000BF088FFDFF81890044649F8003042466A
:1022300030463946A84754F8090002F09FFB00BF1A
:10224000080000002DE9F047058B0446280790465A
:1022500011D4022905F0070540F0CC8020460AF091
:10226000B2FA78B10138218B042811D8DFE800F0E8
:10227000C2106D85950001290CBF45F0100545F091
:102280002005258388F31188BFF36F8FBDE8F087A1
:1022900001F0070AAA4500F0A5800027B9463E468E
:1022A000A368002B00F0BC8041F00801218388F373
:1022B0001188BFF36F8FA168002900F0BA800D6804
:1022C000002900F0B680D1F80480334652462046FB
:1022D000C047002D76D02B6829461D46F0E701F057
:1022E00007035A1F012A1BD8002221F00701062BE1
:1022F000276889B2C4E9002209D13B4603E0628B1A
:10230000013262831B68002BF9D141F00201218365
:1023100020460AF058FA00287AD041F0200176E0F1
:10232000042B0AD121F0070189B2218320460AF04B
:102330004AFA10B141F020012183218B01F0070AF4
:10234000AA454FD00027B946AAE7236921F0070123
:1023500041F00601062DD3F8009021832DD1B9F16B
:10236000000F3FD041F00801218388F31188BFF3AB
:102370006F8F3A492046C84729E021F007012369B9
:1023800041F0040189B2042DD3F804902183E6D0F2
:1023900000273E464FF0040A82E721F00701236937
:1023A00041F0050189B2052DD3F808902183D6D0DC
:1023B00000273E464FF0050A72E700273E464FF0E1
:1023C000060A6DE72B4687E7B9F1000FD1D1EFF38D
:1023D0001188402383F31288BFF36F8F238B23F080
:1023E00008032383258BEA062ED525F010032383CB
:1023F00005F007056669218B002EBFF670AF00233C
:102400002768C4E9003321F0070141F0010121836D
:10241000218B01F0070AAA454FF000097FF440AF75
:10242000002F9CD041F00801218388F31188BFF36D
:102430006F8F002FC8D03D6839463346524620463C
:102440000AF0EDF92F46F4E7AB067FF51BAF25F058
:102450002003238305F0070500E700BF4BC80000F9
:102460002DE9F047DFF85880044607464FF0010990
:1024700014B93846BDE8F08794FAA4F5B5FA85F5A5
:1024800009FA05F32E0108EB05156FEA030A24EAA1
:1024900003042B7B002BEBD058F806301B694BB99B
:1024A0004644042273682846196807EA0A0700F0C0
:1024B00067FADDE7284698470028D9D1F0E700BF42
:1024C00028E5000030B51049104889B000220BF013
:1024D0001CFD0F4D0F494FF400320023CDE90623B8
:1024E00000240E23CDE90334CDE901440A4B0094C6
:1024F0004FF44072284608F055F9084928460BF079
:1025000092FB204609B030BD21250000B80E002006
:10251000300A0020C02B00202528000039ED0000E3
:10252000014807F031BF00BFEC0300202DE9F04760
:1025300080461F480F460AF019FB0646002830D097
:1025400000252846BDE8F087237B6BB12368DB6854
:102550000BB12046984723681B69D3B963680422EE
:102560001968204600F00CFA013610344C45EBD3C4
:10257000B8F1000FE5D0002DE2D02846FFF770FF3C
:102580000546002FF7D000214FF4A4700BF0FDFB9F
:10259000F1E7204698470028E0D00AFA06F31D43E9
:1025A000E2E7044CDFF8109005464FF0010ADDE742
:1025B000A412002028E5000038E50000014B53F884
:1025C00020007047FCE5000008B5034608462BB123
:1025D000044A136000F07EFC002008BD6FF0150077
:1025E000FBE700BF1001002010B5044C237813B99D
:1025F000034807F0C9FE0123237010BD9E28002068
:10260000EC03002010B504460B480AF0AFFA5CB1A9
:10261000BFF35B8F094B53E8001F013943E80012F9
:10262000002AF8D1BFF35B8F05480BF07AFC054810
:10263000BDE8104007F0A8BE9C120020A0120020A8
:10264000B80E0020EC0300200020064BBFF35B8F88
:10265000014653E8000F43E80012002AF9D1BFF306
:102660005B8F70479C12002070B5FFF7EDFF084CA0
:10267000084E0546B44200D370BD63685B792BB148
:1026800023685B6813B12946204698471034F1E768
:1026900028E5000038E5000010B5044C0449204648
:1026A00009F00FFF034B1C6010BD00BF200300208A
:1026B000E8E5000094120020084A094808B5002304
:1026C0001370084A1360084A4FF400411360FFF783
:1026D0007BFFBDE80840FFF7DFBF00BF9F28002059
:1026E00069CB00009C120020A012002001460022AD
:1026F0000148002309F006BF20030020014809F02B
:102700009FBF00BF20030020024B0146186809F05C
:10271000EBBF00BF9412002001480AF020B800BFB0
:102720002003002070B5284B187800284BD0FFF705
:10273000E5FF054690B1BFF35B8F244B53E8001FC4
:10274000013943E80012002AF8D1BFF35B8F204C17
:10275000204EB4422DD32846FFF7D6FF1E4B1F4C08
:102760001B68002B19DD0BF089FB4FF47A72A0FB7C
:10277000020302FB0131C30BD4E9002043EA4143C9
:102780009B1A4FEAD13140F2E93261EB00019342EA
:1027900071F1000101D3FFF767FFD4E9003213F5AF
:1027A0007A7342F10002C4E90032BDE87040FFF7DD
:1027B000B3BF63685B7923B1236829461B68204651
:1027C00098471034C5E770BD9E280020A012002055
:1027D00028E5000038E500009C120020B00E002023
:1027E00070B50D4D297861B90120FFF79FFE0B4CA4
:1027F0000B4EB44206D3FFF795FF0028FBD101230F
:102800002B7070BD63685B791BB1236820469B68A1
:1028100098471034EDE700BF9F28002028E500000E
:1028200038E5000000212DE9F0470846FFF77EFE5D
:10283000044658B340F267684FF000090BF07AFC89
:102840001B4B1C4A1B58136033B11B4B1B68092BD5
:1028500002DD1A4807F098FD194FDFF860A0002547
:1028600044B12046FFF7FCFD044618B94FF0FF388D
:102870004FF0FF39FFF756FF064628B9B5B9424673
:102880004B46504607F0B4FD3546E9E74FF0FF38B8
:102890004FF0FF39D2E72B689B691BB1002211462C
:1028A000284698471035BD42F5D3E8E7054DFAE7CD
:1028B0000800000098120020A0120020EC03002065
:1028C00038E5000028E5000013B518480AF04EF975
:1028D000174B1B7873B1EFF31184402383F31288F5
:1028E000BFF36F8FFFF71EFF84F31188BFF36F8F65
:1028F00002B010BD0F4B1B68002BF9D050B900225D
:102900000023CDE900230C484FF40042002308F0D7
:10291000CBFCEDE70928EBD107480BF002FB074899
:1029200002B0BDE8104007F02FBD00BFA01200208C
:102930009F28002098120020B80E0020EC030020F1
:1029400010B5064B1B68044698472146A060044812
:1029500009F057FEBDE81040FFF7B6BF1001002098
:1029600020030020044A054B9B1AB1EBD30F34BF60
:1029700052F8310000207047B8E4000028E500005C
:10298000084BC31A10B41B11446801332371436808
:102990009A7143681960436801225A7110BCFFF7AD
:1029A00023BE00BF28E500002DE9F04F8FB004AF33
:1029B000C1F34A28B8600D4691467B600C0DB8F112
:1029C000000F63D0002607F114034FF0040B4FF003
:1029D0000A0AC7F80C80C7E907667E620193CDF842
:1029E00008B0CDF800A007F11C03F968324648464C
:1029F000FFF722FAB0F5006F03461CD36C468AB08D
:102A0000D9F8041004AB2648C3E9050140F2FF7170
:102A1000D9611A464FF400711984224B42F8103FD5
:102A2000214833464FF41251FFF7BEFFA5462C371D
:102A3000BD46BDE8F08FC0F30A0804F11700184442
:102A400020F0070080083B60FFF750FE68F3532535
:102A5000044690B13B68154AC7E9083600F11001F9
:102A600007F11403F961CDE900A3CDF808B0F968C6
:102A700007F11C034846FFF7DFF968F353257B682D
:102A8000B9682A4620460AF0A7F8D0E704F11700F3
:102A900020F007008008FFF729FE0446EDE700BF9D
:102AA0004EED000004000001D0E40000ADCB0000BA
:102AB0002DE9F04F87B0DDE91279DDE9105A0446BF
:102AC000039193469846BFB1CDF800903B465246DD
:102AD00010210020CDF81490FEF7DCFFB0F5006F58
:102AE00006460AD3184A194840F2FF73022107B07C
:102AF000BDE8F04F0AF0C9B83E4605F11700304472
:102B000020F0070004F007048008FFF7EFFD0BF04A
:102B1000070BE40044EA8B1444EA462444EA0554D3
:102B2000054640B13FB1CDF800903B465246314694
:102B30001030FEF7AFFF039943462246284607B000
:102B4000BDE8F04F0AF048B88DED0000D0E4000079
:102B5000406820B1034BC01A40F3CF0070474FF0DC
:102B6000FF307047B8E400000EB403B503AB014674
:102B700053F8042B0448019302F0A8F902B05DF861
:102B800004EB03B0704700BFEDCC0000CA0605D4CB
:102B90008B064CBF02490349FFF7E6BF704700BFF1
:102BA000C6ED0000C5ED00002DE9F04F89B09B4651
:102BB000149B06939DF84CA0159B0593169B179E9E
:102BC000049304460D469046BAF1000F00F09D8034
:102BD00006F48073079309F0E7FF06F00209024646
:102BE00000283ED091492046FFF7BEFF0746B9F1C5
:102BF000000F08D016F0440F35D18D492A462046E3
:102C0000FFF7B2FF074406F0010353B1894B8A492D
:102C100053F82A20894B2046002A08BF1A46FFF79E
:102C2000A3FF06F48073002B49D006F00803002BA5
:102C300063D1B8F1000F66D0814942462046FFF7C4
:102C400093FF0546069B3D44002B6DD1049B002B52
:102C500073D1F30700F1E48031462046FFF796FF79
:102C6000D8E00746C3E7774B18680028CAD0764BF0
:102C70004FF47A791B68B5FBF3F54FF46163B5FB4C
:102C8000F0F100FB115509FB05F54FF03C0CB1FBD1
:102C9000F3F203FB1211B5FBF0FEB1FBFCF300FBFA
:102CA0001E550CFB131109FB05F50091B5FBF0F562
:102CB0006649CDE901E52046FFF756FFA2E706F099
:102CC0000803EBB1624B634953F82A202046FFF713
:102CD0004BFF0546B8F1000F05D059494246204642
:102CE000FFF742FF0544BBF1000FABD05A495A46EB
:102CF0002046FFF739FF0544A4E74FF0000BE1E75A
:102D000006F00805E6E745469CE7BBF1010F069B88
:102D100006D1002B64D1049B002B7BD000250CE056
:102D2000002BF8D04D485CE04D48069B4D492246AB
:102D300009F068FA049B002B68D0DFF82C81DFF8DB
:102D40002C91049F3146102F204628BF1027FFF7F3
:102D50001DFF4FF0000B5D4545DC059B49461A7889
:102D60002046FFF701FF4FF0010B1BF0070F03D1C7
:102D700041462046FFF7F8FE5F453BD9059B494693
:102D800013F80B202046FFF7EFFE0BF1010BBBF110
:102D9000100FEAD1364920464FF0000BFFF7E4FE52
:102DA0005A46059B9A5CA2F120015F2928BF2E227A
:102DB00030492046FFF7D8FE0BF1010BBBF1100F95
:102DC0001DD01BF0070F03D141462046FFF7CCFE74
:102DD0005F455A46E5D841462046FFF7C5FEEBE77A
:102DE0001F485546A1E741462046FFF7BDFE0BF1BF
:102DF000010BB0E720492046FFF7B6FEC5E7059B6B
:102E00003B440593049BDB1B04939AD1BAF1000F5A
:102E10007FF41FAF204609B0BDE8F04F09F059BF5D
:102E2000064A05492046FFF79FFE15E7CDED000055
:102E3000D1ED00000CE60000BDE80000C8ED000088
:102E4000F6ED0000AC120020A8120020DAED000020
:102E500020E60000FAED000000EE000023CD0000A7
:102E6000EDCC0000CD4E00000DEE000005EE0000A0
:102E70000FEE000011EE00000BEE000073B542F201
:102E80000F738B4228BF0B4605680F4A0446052185
:102E9000684608F07FFC63680C495B6806460B22B5
:102EA000284609F008FF63683246694628465B6891
:102EB00009F001FF636806495B681B22284609F098
:102EC000FAFE02B070BD00BFF8E8000030EE00006E
:102ED00014EE0000074A00210123904206D8064A5A
:102EE00001B901231360054B1860704740085B006F
:102EF0000121F2E740420F00A8120020AC1200208E
:102F0000F8B5074F0D4604464618B44201D128468D
:102F1000F8BD14F8011BBB6801485B689847F4E7EB
:102F200024E20000014B03600020704768E60000C7
:102F3000F0B40C4B0C4E5F6A0C4BB34203D36FF0F2
:102F40008500F0BC70475D68BD4209D31C693CB187
:102F500095F802C00579AC4502D12346F0BC18476C
:102F60002433EAE7D412002020050020D8040020F2
:102F70002DE9F047134CDFF85080DFF850900546FC
:102F80000E461746444503D36FF08500BDE8F08731
:102F90006268D9F824309A4212D3A36983B1907839
:102FA0002979884205D13A4631462846BDE8F0479E
:102FB00018475279012A03D13A46314628469847A4
:102FC0002434DFE7D804002020050020D41200209C
:102FD0002DE9F0410B4CDFF8308005460E461746D0
:102FE000444502D36FF0850009E063690BB92434CE
:102FF000F6E73A463146284698470028F7D1BDE81B
:10300000F08100BFD80400202005002010B5044640
:103010000AF0DBF810F1780F00D050B9054A2046CD
:1030200009F0FBFED2F8C43023EA0003C2F8C43032
:10303000002010BDD4120020024B00221A605A60FA
:10304000704700BF8F13002070B50B4B0B4CA34291
:1030500001D3002070BD196A1E7F00220439D5B249
:10306000AE4201D82433F2E7013211F832508542E2
:10307000F5D10120EEE700BFD80400202005002094
:1030800008B509480378C3F341130A3350F82330D5
:103090003BB100F1080200F110019847C043C00F96
:1030A00008BD1846FCE700BFD412002004282DE913
:1030B000F14FDFF8989004460F4616D001282DD125
:1030C000DFF88C8098F8B93043B300F0D7FD214D7C
:1030D0004D4520D2D5F820B04FF0000A2B7F5FFA83
:1030E0008AF6B34204D82435F2E7FFF7A5FFE7E7F5
:1030F0000BEBC6060AF1010A30790AF066F80246BF
:10310000307909F08AFED8F8C430002A23EA000397
:10311000C8F8C430E2DA002388F8B9300D4D4D45C7
:1031200008D30B4B1B6A6BB13946204601B0BDE892
:10313000F04F1847EB681BB13A462146284698479E
:103140002435ECE701B0BDE8F08F00BF200500207A
:10315000D4120020D804002073B5C4B263060D4613
:103160008DF8074007D02046FFF76EFF78B10D4B72
:1031700093F8BA0058B10B4E204655B102F040FD0D
:10318000F3691BB10DF1070108209847012002B037
:1031900070BD02F067FDF369002BF7D00DF1070158
:1031A0000920F2E7D412002073B586788DF800600C
:1031B000037942791C4C43EA0223ADF80230C3780C
:1031C000304603F003038DF8043009F026FED4F8EE
:1031D000C430184205460BD0304600F031FD304671
:1031E000FFF714FF0AF019FD10B9962007F04CFD07
:1031F000684602F0D7FC10F1780F03D010B1002020
:1032000002B070BD9DF8000002F068FD10F1780F6B
:1032100001D00028F3D1D4F8C43001202B4384F826
:10322000B900C4F8C430EBE7D41200202DE9F04710
:10323000924DAB6904460E461746C3B9207800F09C
:103240001F00012876D0022800F0DC8000BB94F932
:1032500000103A68637800292EDA062B0CD0082B70
:1032600025D0ABB9537001231370022303E19847B3
:103270000028E3D100200DE06388190A0A1F012A03
:103280008C4605D9072903D8DAB26B6A1C781CB9B9
:103290006FF01500BDE8F0875D78654503D1824287
:1032A00000F0E48001302344F0E71B78E3E095F878
:1032B000BA3013700123DEE0052B11D0092BE7D1C2
:1032C00063886E6A002B32D1FFF7B6FE638885F8FB
:1032D000BA30EB69002BCDD0694903209847C9E784
:1032E000A07802F021FC0028C4D0D1E77378042B29
:1032F00010D0052B11D0022B04D177796388BB4203
:1033000008BF012033781E443378002BEED100280B
:10331000BED0D9E796F80380F4E76388BB42F1D1C9
:10332000B8F1000FEED13046FFF73EFFEAE7FF2786
:10333000B846E9E795F8BA30D7F800C0002BA7D017
:103340006F6AA28894F804E03B46187800289FD062
:103350005978022904D193F80480F04500F2928054
:103360000344F2E78CF800308CF80130316081E7DB
:103370001F4493E00B2B8BD100264FF0FF08C14672
:10338000B24606E07B78042B0FD0052B21D03B788A
:103390001F443B78002BF5D1EB6913B15146072050
:1033A0009847002E7FF466AF72E797F80280A388F3
:1033B00097F803909845EAD163889945E7D1B8F129
:1033C000070F1CD805EB0803BA4683F8BB9001260B
:1033D000DDE7A3884345DAD1A3784B450AD0BE7810
:1033E000304600F02DFC3046FFF710FEB0FA80F6B4
:1033F0007609CCE73846FFF7D7FE0646C7E7BA4658
:103400000026C4E794F900206378002A18DA002B1C
:103410007FF43EAF24793F6863060AD02046FFF769
:1034200013FE00283FF434AF95F8BA30002B3FF478
:103430002FAF3946204602F035FC00237B7014E79D
:10344000012B08D0032B7FF423AF6388002B7FF47C
:103450001FAF012103E0618800297FF419AFA08824
:10346000FFF77AFE00287FF405AF11E702293B60E1
:103470007FF41BAF5B883360FCE600BFD4120020F2
:103480008E13002094F9000063780028BFF672AF15
:10349000002B3FF467AF0A2B7FF4FAAE3B78002B8A
:1034A0003FF4F6AE797804297FF462AFB9788A42A6
:1034B0007FF45EAF072A96BF5219002392F8BB3003
:1034C0008CF80030F6E600BF13B5164C237DF3B937
:1034D000E268A168019201AB802009F0ACFC019A7E
:1034E000A3681344A360E3689B1AE3606BB962B1FD
:1034F0002369E2889A4208DD94F8C82093FBF2F130
:1035000002FB11330BB90123237502B010BD002358
:103510001A4619468020237502B0BDE8104002F01B
:1035200007BC00BFD412002030B585B0002302468E
:103530000D460193002858D1002935D108220B46A9
:103540000DEB020109F05AFE002804DA802002F097
:1035500057FB05B030BD2A4C029A2260039A626084
:1035600004F13802A2609DF90820BDF80E302575DF
:10357000002AC4E903550ADB802B04D9802002F01D
:103580003FFB0020E3E713B1C4E90333E1E7FFF7B2
:1035900077FD0028DAD0E28823699A42D4BFE2603E
:1035A000E360FFF791FFD4E7154CD4E90215002D35
:1035B00001AB04DC09F022FE0028CADAC6E72A467D
:1035C00009F01CFE0028D9DB019AA3681344A3600C
:1035D000E3689B1AE360002BBBD104F13803A360BE
:1035E000FFF74EFD0028DCD1B0E78028B1D1044BB5
:1035F000DA68002AD5D11B7D002BD2D1A9E700BF04
:10360000D4120020054B064A9A62064ADA62064A3C
:103610001A63064A58629A6100207047D41200204B
:103620002D320000312F0000D12F0000712F00003B
:103630002DE9F3410446474D47484FF0FF334FF023
:10364000FF3206F0A7FD95F8B830002B7BD16B6AEE
:1036500083B142482C62E8616E6A02F0ABFC02F072
:1036600031FA041E10DA3C4806F00CFE204602B087
:10367000BDE8F08100F0BEF8FFF7C4FF6B6A002BD5
:10368000E7D14FF0FF34EEE700F01AFB041EEADB4F
:103690007378012B5AD1F379002B57D00026684656
:1036A00085F8C830ADF802308DF804608DF8006000
:1036B00002F078FA041ED6DB802768468DF8007089
:1036C00002F070FA041ECEDB2549304602F05EFCA3
:1036D000041EC8DB2249384602F058FC041EC2DB37
:1036E000204CDFF8848044451AD3002002F0F6FA1B
:1036F000041EB8DBD5F8C430802043F00103C5F8C0
:10370000C43002F0EBFA041EADDBD5F8C43043F44C
:103710008033C5F8C430012385F8B8300024A2E70F
:10372000276A0026227FF3B29A4201D82434DAE7CE
:1037300007EBC30257F83310107902F027FC01366B
:103740000028EFD09DE76FF077048CE76FF0150449
:1037500089E700BFD4120020C8030020AD3000006C
:1037600029350000D80400202005002030B51F4B6B
:103770008BB005AA03F1100518685968144603C4F4
:103780000833AB422246F7D11B7823701022002168
:1037900001A80AF05CFC1222002115480AF057FC2F
:1037A000102101A809F02BFE00281BDD0828B8BF56
:1037B0000820093801AB0E491A18002012F8013F01
:1037C0000AAC04EB131403F00F0328336B440130ED
:1037D00014F8144C13F8143C0C7008284B7001F1C9
:1037E0000201EBD102480BB030BD00BF76EE000005
:1037F000A22800202DE9F04F724B93F800B087B05B
:10380000BBF1000F03D0704807B0BDE8F08F6E4CDD
:1038100000264FF0011AB0463546B14623783BB931
:103820006A4B02349C42F3D1664A01231370EAE7E3
:103830006378052B1BD8DFE803F08E03C38E1D3998
:10384000402304A88DF810B0ADF812308DF814B0F4
:1038500002F07CF940B1082304A8ADF8123002F060
:1038600075F908B1ADF812B0BDF81230E3712378E4
:103870001C44D3E7E378002BF9D1A3786BB108F1AE
:1038800001085FFA88F8F2E76B689C4207D024359C
:103890004F4B9D42F8D30020B6E74E4DF8E7AB689A
:1038A000002BECD0414620469847E8E7002DF2D0A7
:1038B00000222B7F9A42EED2296AA07801EBC20146
:1038C0000B79984201D00132F3E70127E07800F04C
:1038D00003008DF81400207994F805C040EA0C200C
:1038E000ADF8120094F902000028FBB228DA07F1C3
:1038F00010004FF0010C0CFA00F010EA0A0F26D16C
:1039000043F080008DF8100004A8CDE90213019265
:1039100002F01CF9DDE90121039BC0B99DF81020DC
:10392000A27012F0800F18BF10330A7118BFDBB2FB
:103930004FF0010214BF9A40BA404AEA020A96E7E1
:103940000120B84010EA0A0F01D11846DAE7013722
:10395000102FBBD1B7E7032E1AD1FFF707FF074699
:1039600050B1FDF77EFD024630B11028A8BF1022ED
:103970003946A01C0AF05DFB23786FF00201E218C3
:10398000091B04EB5303D14213D50136F6B26EE79F
:10399000002EF1D1B9F1000F3FF47DAFA4EB090384
:1039A00089F80230C3F3072389F8033089F80480CB
:1039B000EBE702F801BC13F8010902F8020DE2E797
:1039C000A14654E7A12800200C040020D8040020C0
:1039D00020050020D804002010B5094B00211A460C
:1039E0001C78844204D15C6814B102EB811010BDD4
:1039F0000131042903F14003F2D10020F7E700BFB1
:103A0000A01300202DE9F34150F8283C10F82C6C4D
:103A1000103304460AD1036950F8202C980736D594
:103A2000D2B9590715D5002344F8283C54F8283C4E
:103A300010330BD054E9077554F8148C0AF0EDF8E4
:103A400000284FD02E4821460AF0CBF802B0BDE83E
:103A5000F08143F00403236154F8241C01AB304689
:103A600009F0E9F910B16FF01503DDE7019A54F898
:103A7000243C134444F8243C54F8203C9B1A44F85A
:103A8000203C54F81C3C134444F81C3CCEE754F84A
:103A9000241C01AB304602F0D5F90028E3D1019D8A
:103AA00054F8243C2B4444F8243C54F8203C5B1B41
:103AB00044F8203C54F81C3C2B4444F81C3C002D9A
:103AC000B1D0304602F07CFAB5FBF0F303FB1055A1
:103AD000002DA8D154F8203C002BA4D0304602F091
:103AE00007FAA3E744F8180CA4F1100006F04CFC08
:103AF000002DABD0424639463046A847A6E700BF66
:103B0000F00E00204B1E012B73B506460D460FD854
:103B1000FFF762FF044668B9012D09D101AB01220C
:103B20000DF10301304602F08DF9019B002BF5D118
:103B300002B070BD0AF071F804F12C0108B1012D3A
:103B400005D1084602B0BDE87040FFF75BBF0348EF
:103B500002B0BDE870400AF044B800BFF00E00208B
:103B60002DE9F74F064601911546984609F0ABF945
:103B7000044600285BD1EFF3118A402383F31288B7
:103B8000BFF36F8FDFF8ACB000220023584606F079
:103B90002FFC70B9DFF8A090A70109EB84146368CB
:103BA00013F1100F14D10193584606F0EDFB019B61
:103BB00006E00134042C0BF1400BE5D16FF00B0350
:103BC0008AF31188BFF36F8F184603B0BDE8F08FFA
:103BD000019B2061C4E902350C9B63610D9BA361CD
:103BE00030466FF00F0309F80760C4F83C8063604B
:103BF00002F0E6F958B1304602F0E2F9B5FBF0F315
:103C000003FB10551DB1E36B43F00403E36318F0AD
:103C1000020F07D007F12C010848494409F0E1FFE1
:103C20000023CDE7304602F063F90346C8E76FF0A2
:103C30000F03C9E7BC130020A0130020F00E0020E2
:103C400010B5EFF31184402383F31288BFF36F8F15
:103C5000FFF7C2FE50B14368103307D16FF08B03FA
:103C6000436000F12C01044809F0BBFF84F3118884
:103C7000BFF36F8F10BD00BFF00E0020F8B50E4CE3
:103C800004254027EFF3118687F31288BFF36F8F67
:103C90006368103307D16FF08B030848636004F149
:103CA0002C0109F09EFF86F31188BFF36F8F013D51
:103CB00004F14004E6D1F8BDA0130020F00E00206E
:103CC00070B50A4C0A4E00253146204609F06DFFBA
:103CD0000122A4F110001146013509F02AFF042D3C
:103CE00004F14004F0D1002070BD00BFCC130020CF
:103CF000053A00000169012381F84B300B6833B1AC
:103D000091F849301BB10248083109F06ABF704789
:103D1000F00E00200169012381F84A300B6833B1AD
:103D200091F848301BB10248083109F05ABF70477A
:103D3000F00E002070B50569EFF31186402383F380
:103D40001288BFF36F8FD5F8900008F086FE044606
:103D500086F31188BFF36F8F30B10448002200232F
:103D600005F1180106F0A8FC204670BDF00E0020F9
:103D700070B5012382F8483013680D4614463BB1F4
:103D800092F84A3023B10E4802F1080109F029FFE8
:103D9000D4F890309A681B699A4205D17DB904F134
:103DA000180140F6CD4204E004F11801002DF8D0CE
:103DB0000022BDE870400248002306F07DBC70BDC3
:103DC000F00E002070B504460E46017915481546E0
:103DD00009F055F810B394F900206378002A16DB37
:103DE000202B04D0222B0ED06FF085000AE02B6828
:103DF0001A6840F8102C9A8820F80C2C9B7900F84F
:103E00000A3C002070BD638800F8093CF9E7212BCB
:103E1000EAD11038072328603360F2E76FF0120010
:103E2000F0E700BFA014002008B50146034809F0E0
:103E300034F810B1012300F8073C08BDA01400209D
:103E40000D4A03460021A0F848101068C3F89400FA
:103E500090889279A3F8980083F89A2083F89C10B0
:103E600083F89B10A3F89E1083F8A010402203F162
:103E70004C000AF0ECB800BFD8E50000F0B5D0F86F
:103E80008C305B681B6A1F7D85B00446384609F09C
:103E90001AF80646F8B994F88630E3B1A06F4FF4EB
:103EA000806203A908F0F8FD0546A0B18306A4F1DD
:103EB000180308BF00F1FF3584F830600193074B09
:103EC000039900932A4602233846FFF749FEA06F64
:103ED000294608F001FE05B0F0BD00BF713D0000AD
:103EE00010B504690023C4F8A8300C4BC4F8A40032
:103EF000596804F1A80269B9C3E9002204F1080075
:103F0000074909F052FE04F11800064909F079FE4C
:103F1000002010BD0A605A60F0E700BFA014002026
:103F2000F1CE00007D3E000030B54FF40033426812
:103F300005690D4C85B042F2A100CDE901030023D3
:103F400085F89D30106AADF80C1000790A2201A99D
:103F500008F071FF95F89D3023B9012009F0B0FCFD
:103F6000013CF7D105B030BDA186010073B50469ED
:103F70008DF80710002384F848304025EFF31186B0
:103F800085F31288BFF36F8F0122D4F890000DF1F2
:103F9000070108F062FD86F31188BFF36F8F0128D7
:103FA0000AD009F03AFE10B994F8A1306BB9094B68
:103FB0001A780AB901221A702122002304F118018B
:103FC000054806F079FB02B070BD0021212009F000
:103FD000DCFED3E7B4280020F00E002037B51446ED
:103FE0000A1E054620DDD4F88C0004F14C0108F0CF
:103FF00034FD012384F8493023683BB194F84B30F9
:1040000023B1114804F1080109F0EBFDD4F88C103C
:104010004B684A699A1ACB699B1A3F2B04D8012333
:1040200084F8A03003B030BD94F89E30002BF9D056
:10403000064B009301940123402204F14C012846D1
:10404000FFF78EFDEEE700BFF00E0020DD3F000021
:10405000F7B50D4601461D4808F005FF044610B3AC
:104060000646691E56F8A4395F6805291BD8DFE8A3
:1040700001F01C1A031C222610F8061C99B9012312
:1040800000F8063C3B6A3246187BFFF7A7FF14F89E
:104090005C2C42B93B6A187D0D4B009301960223BC
:1040A0001146FFF75DFD03B0F0BD304603B0BDE83B
:1040B000F040FFF7C5BE012304F8053CF3E710F814
:1040C000053C002BEFD00023F6E700BFA014002032
:1040D000713D000037B5094D0949002400944FF0A7
:1040E000FF334FF48062284606F0A8FA05492846B7
:1040F00009F099FD204603B030BD00BFF00E00204E
:10410000002F00209AEE000008B5044808F0D2F80D
:10411000BDE80840024808F0CDB800BFA3EE00009B
:10412000D8EE0000014807F08DB900BF68E6000036
:1041300038B5044618B90F4B0F485B68984761685B
:10414000B1F5683F10D0B1F5680F0DD00B4DA94205
:104150000AD011F46861206807D00146084809F0C8
:104160000CFC00232360656038BD142209F06FFF4A
:10417000F9E700BFB402002006EF00002C5F5CA945
:10418000A819002008B520B34368B3F5683F10D1E3
:1041900001220368BFF35B8F53E8001F002903D19E
:1041A00043E800200028F7D1BFF35B8F0DD100203A
:1041B00008BD094A93420AD000684FF0FF324FF021
:1041C000FF3305F0E7FF0028F1D00448F0E704488A
:1041D000EEE76FF4E040EBE72C5F5CA9E98FFFFFAF
:1041E000EA8FFFFF08B5D8B14368B3F5683F10D137
:1041F00000220368BFF35B8F53E8001F012903D13E
:1042000043E800200028F7D1BFF35B8F0BD10020DB
:1042100008BD074A934208D0006806F033F8F6E775
:104220006FF4E040F4E70348F2E70348F0E700BF2B
:104230002C5F5CA9E98FFFFFEA8FFFFF10B50446F2
:1042400018B91D4B1D485B6898476368B3F5683F14
:104250002FD0B3F5680F2CD0194A934219D1236897
:1042600003BB18484FF0FF324FF0FF33214605F0F3
:1042700063FF08B923681BB90F4B13485B68984765
:1042800020681422002109F0E2FE4FF468636360A5
:1042900008E0B3F5683F0DD83A2B03D040F6BA6278
:1042A0009342DED1206809F0B2FB636843F03A0321
:1042B000636010BD054AF3E7B402002006EF00007A
:1042C0002C5F5CA9A81900202CEF00003A00003AEE
:1042D00008B5064906484023142209F040FBBDE812
:1042E00008400449044807F01FB900BFA814002083
:1042F000A819002070E6000084E600002DE9F047D0
:10430000064600AF0C46002936D0E9468AB0D1E90E
:104310000012A3686D462148A8464FF0050AC5E97A
:104320000501C5E9072348F810AF1D4842460023A0
:104330004FF42151FEF738FBCD46D4E903126369EF
:10434000AD461848C5F810A0C5E90501C5E9072321
:104350001348002342464FF42151FEF725FBCD467A
:10436000E369114A0E48012108F08FFCA3690F4A46
:104370000B48012108F089FC012E07D1EFF30583DA
:104380000B4A0748103B314608F07FFC2146304677
:1043900005F020FDBD46BDE8F08700BF59EF0000E5
:1043A000F8E4000088EF0000B7EF0000C6EF00005F
:1043B000F4EF000030BFFFF7FDBF00BF2DE9F04173
:1043C0000B4EDFF8308006EB0807CC1B0546324663
:1043D0000949204609F02DFEA01942460021083C5B
:1043E00009F035FE2C6707F10800BDE8F08100BF39
:1043F000000000000400000038E50000074A936850
:1044000093F90E10002907DB526993421FBF044A3B
:10441000536843F080535360704700BF4826002024
:1044200000ED00E070B5294C06460D4628482949A4
:1044300008F05CFEA36AD9043CD52548264908F05B
:1044400055FE1720A36A1A0504D52148234908F010
:104450004DFE18201D4CA36A9B0512D51C4820490F
:1044600008F044FEA36BA26A100409D51D4A18483F
:10447000012108F00AFC1EB1A36A23F40043A362E1
:104480001920124CA36A590504D51148164908F0A1
:104490002DFE1A20A36ADA050ED50D48134908F03F
:1044A00025FE1B20094A936A43F47F43936200234D
:1044B0002B7070BD1620C5E7A36A9B04F2D5044893
:1044C0000B4908F013FE1C20ECE700BF00ED00E0F4
:1044D000F8E4000007F000001DF000002EF00000DE
:1044E00041F000005AF000006FF000008AF0000078
:1044F000A2F0000010B5204C2049214808F0F6FD3C
:10450000A36A990136D51E481E4908F0EFFD1E200A
:10451000A36ADA0104D51A481B4908F0E7FD1F20F9
:10452000154CA36A1B0304D51548184908F0DEFD95
:104530002120A36A590304D51148154908F0D6FD76
:1045400022200D4CA36A9A0304D50D48114908F0A6
:10455000CDFD2320A36ADB0304D509480E4908F0EA
:10456000C5FD2420044A936A6FEA03436FEA1343AC
:10457000936210BD1D20CBE700ED00E0D1F00000FC
:10458000F8E40000E9F00000FCF0000016F1000083
:1045900034F1000059F1000073F100002DE9F843F7
:1045A000364D8046894636483649174608F09EFD06
:1045B000AB6ADE0627D53449314808F097FD11244F
:1045C000AB6A1D0704D531492D4808F08FFD122430
:1045D0002A4DAB6A980718D52D49294808F086FD61
:1045E0006E6BAB6A190646D52A4A25483346012127
:1045F00008F04BFBB9F1000F03D0AB6A23F0800346
:10460000AB62132403E01024DAE76FF015061B4DAC
:10461000AB6ADA0704D52049194808F067FD14246D
:10462000AB6A9B0604D51D49154808F05FFD1524AB
:10463000124B9A6AD50602D49A6A90070AD55B682B
:10464000190507D54146304600F074FA10B180F3E1
:1046500009880224094B9A6A920642BF5A6A22F4D8
:1046600000525A629A6A42F0FF029A6200233B703B
:104670002046BDE8F8836FF01506C2E700ED00E0C4
:10468000F8E400009EF10000B4F100002EF00000FC
:10469000E7F10000FFF1000015F20000A2F00000B9
:1046A0002DE9F041664B8AB0D3F8048000AF044690
:1046B000C8F30805002686F31188BFF36F8F02F058
:1046C0007F43B3F17F4F07D102F00C03082B12D1C7
:1046D0005C495D4808F00AFD002634460023FB7162
:1046E000EB1E092B00F28A80DFE803F00A80837C4E
:1046F00088888888888610074CBF0C460126EDE71D
:10470000524951484E4D08F0F1FC0023FB71EB6A11
:104710009A0705D54E494C4808F0E8FC002332E0E2
:10472000EB6A002B01DA4B49F5E7EB6A5B00F5D544
:104730004949454808F0DAFC6B69A26943F4807383
:104740006B61BFF34F8FBFF36F8F6B6932F8022C31
:1047500023F480736B61BFF34F8FBFF36F8F4DF600
:1047600002739A4208D0AB6ADBB273B3FA1D01211F
:104770002046FFF713FF37E02368384A324801210B
:1047800008F083FA2368FA79DAB907F1080504F129
:10479000200C206861682A4603C208346445154627
:1047A000F7D17A6A002E45D0C2F3080121B96FEA29
:1047B00052226FEA42227A6207F108011846FFF797
:1047C0009DFD2837BD46BDE8F081AB6A13F47F4FED
:1047D00004D0F91D0120FFF725FE05E0AB6AB3F513
:1047E000803F9BD3FFF786FE0346CCE7FA1D0021EE
:1047F000BEE7F91D0020EEE719498CE7194A1A4B6C
:1048000018F4F87FE8468AB018BF13466A4617497D
:10481000C2E905134FF400731384103D144BD561A6
:1048200042F8103F084800234FF41151FEF7BCF83E
:10483000C54673E722F4FF7222F00102BBE700BF16
:1048400000ED00E062F20000F8E400008DF20000EC
:10485000A4F20000C5F20000D3F20000F2F2000062
:104860000EF3000049F2000034F2000032F30000C1
:1048700004000001044B5A6942F010025A615A695F
:1048800022F008025A61704700ED00E0EFF3088063
:10489000EFF3098101B57246FFF702FF01BD00BFCA
:1048A000002080F31488BFF36F8F0F4880F30888CF
:1048B00004F08EFA00200D490860BFF34F8F00F01E
:1048C0002BF8402080F3118809484FF40461401808
:1048D00080F30988EFF314800221084380F31488E1
:1048E000BFF36F8F00F0EEF84045002094ED00E03C
:1048F000803700200749D1F890200023C2F3072217
:104900001846934200DB7047C1F89830C1F8A00008
:104910000133F6E700ED00E008B572B6002383F33B
:104920001388FFF7E7FF144B4FF0FF32C3F88020E6
:10493000C3F88420C3F88820C3F88C20C3F89020E3
:10494000C3F89420C3F89820C3F89C20C3F88021B2
:10495000C3F88421C3F88821C3F88C21C3F89021BF
:10496000C3F89421C3F89821C3F89C2162B6BFF321
:104970004F8FBFF36F8F08BD00E100E0084B9B68CD
:1049800083420BD1EFF3058343B1064B5A6842F0E3
:1049900080525A605A6A22F400425A6206F0BEB946
:1049A0004826002000ED00E015498A684FF03000ED
:1049B0001044EFF3098C80E8F01F402080F3128848
:1049C000BFF36F8F0F4F4FF000664A698A603E60F9
:1049D0004FF07004141920680B4C2060506F0023B6
:1049E000536780F3118804B5104600F007F9BDE85D
:1049F000044002F1300090E8F01F8CF30988704702
:104A00004826002004ED00E0C41900201EF0040F29
:104A10000CBFEFF30880EFF30980816911F8021CE5
:104A20000229FFD001B5724608F055FB01BD00BF59
:104A300040B2002807DB044A4109012300F01F00AF
:104A4000834042F82130704700E100E040B2002886
:104A50000CDB4309064900F01F002033012282408D
:104A600041F82320BFF34F8FBFF36F8F704700BF14
:104A700000E100E0054B420900F01F0053F822203E
:104A8000012303FA00F01040704700BF00E100E08E
:104A900040B2D30754BF023100210028ACBF00F15F
:104AA0006040074A4FEA4113ACBF00F5614000F097
:104AB0000F00DBB2B4BF135480F80033704700BF5F
:104AC00014ED00E00B4A08B50B4B22F07F029A6010
:104AD000BFF34F8FBFF36F8FD3F8882022F470029B
:104AE000C3F8882005F062FA06F038FA00F05CF8A6
:104AF00005F0A0FA0010000000ED00E042F8203CB4
:104B0000009B42F81C3C0A49019B42F8183C029B5E
:104B100042F8143C21F001014FF0807342F8043C4C
:104B200042F8081C0023203A02654367704700BF23
:104B300011220000094A0346906870B113F1160F64
:104B4000006E05D0A0F140029A4205D8834203D2FC
:104B5000814228BF0020704700207047482600206F
:104B600008B51546094A0A4B9060026F1A600E4656
:104B700000F044F82C4686F309880020054B98473E
:104B80002046002100220023034C20474826002015
:104B9000C4190020FDD0000011220000014B10229A
:104BA0001A61704700ED00E0044800234021C2185C
:104BB0000133302B82F80013F9D1704700E100E097
:104BC00008B5EFF30583064A103B02EBC30152F828
:104BD000330049688847BDE80840FFF70FBC00BFB5
:104BE00060E20000024B034A0348012100F08AB84A
:104BF000000004200000002094E60000026E054B37
:104C0000403A1A60044A4021C3E9011218460121C2
:104C100000F082B8C819002000000B1508B5034643
:104C20001048D0F89020C2F30722013A934207D9E6
:104C30000D480E4A012108F028F86FF0150008BD54
:104C4000C0F898300A6822F01F021A4342F010029E
:104C5000C0F89C208A6842F00102C0F8A0201846E3
:104C6000EDE700BF00ED00E0E8E4000049F30000DC
:104C7000F0B50E4685B01F4604460025B5420DDA54
:104C8000606810B397B1431E18420AD0104A114809
:104C90002B46012107F0F9FF6FF01502104605B011
:104CA000F0BD1F28F2D921680B42EFD12368019390
:104CB00008F047FAA36801A90343D0B20393FFF7B2
:104CC000ADFF10F1160FE7D0421C01350C34D5E7CB
:104CD0006FF30000E8E40000044B0522C3F89420C1
:104CE000BFF34F8FBFF36F8F704700BF00ED00E041
:104CF000BFF35F8F024B0022C3F89420704700BFC0
:104D000000ED00E010B5034C01232278FFF7B0FF5F
:104D1000207010BDB528002008B50B4A002312787A
:104D2000FFF7A6FF10F1160F07D0084A0021D2F8AE
:104D30009030C3F30723984200DB08BDC2F8980007
:104D4000C2F8A0100130F2E7B528002000ED00E025
:104D50002DE9F04357485849D0F890300D68C3F317
:104D600007239D4285B000F2A180FFF7C1FF49688B
:104D70000022954201F10C011AD1504C504F257080
:104D80006846FEF7CFF8DFF83C81DFF83C91064635
:104D90000025AE421FD1237846490020D1F890204B
:104DA000C2F3072293427BDBFFF796FF00204CE023
:104DB000C0F8982051F80C3C23F01F03134343F034
:104DC0001003C0F89C3051F8043C43F00103C0F8D4
:104DD000A0300132CDE7009800EB05114FEA051C29
:104DE000CB683B40B3F5000F44D00AD8B3F5001FA1
:104DF0002ED0B3F5800F34D0B3F5801F10D001351D
:104E0000C7E7B3F1807F3ED0B3F1007FF7D150F810
:104E10000C3088684A6808F094F940F4802009E072
:104E200050F80C3088684A6808F08BF940F08850D8
:104E300040F43020039001A92078CDE90123FFF749
:104E4000EDFE002828DA6FF0150005B0BDE8F0830C
:104E500050F80C3088684A6808F073F940EA080096
:104E6000E8E750F80C3088684A6808F06AF940EAC8
:104E70000900DFE750F80C3088684A6808F061F9EB
:104E800040F08270D6E750F80C3088684A6808F025
:104E900058F940F08870CDE7237801332370AEE7EE
:104EA000C1F89830C1F8A000013377E74FF0FF3028
:104EB000CBE700BF00ED00E0A0E60000B528002031
:104EC0000000F0FF0000081100000207F0B587B0F5
:104ED00007460E4614460021102268461D4609F07A
:104EE000B6F802238DF802302A46054B019321467D
:104EF0006846CDE9047606F079FC07B0F0BD00BF46
:104F000063D1000008B5024B1B689847002008BD1C
:104F1000D4190020034B044A1860937843F002032D
:104F200093707047D41900209401002008B50649F9
:104F3000064821F00701C1F1005202F5802207F076
:104F400009F9002008BD00BF47540020D8190020EF
:104F50000E4A0123C2F840354FF080424FF0805195
:104F6000C2F87835D1F83001082808D1D1F83411C9
:104F7000052904D80648415C09B1C2F838364FF01B
:104F800080430122C3F880250020704700E00140E3
:104F9000A1F3000020B1034B800143F00103184747
:104FA000704700BFE0E500004FF08043D3F8403683
:104FB000DB072ED54FF01023D3F8043303F007039B
:104FC000072B26D1144A0123C2F80435D2F8003445
:104FD000002BFBD04FF01021D1F8043323F007034E
:104FE00043F00403C1F804330023C2F804350A4A2D
:104FF000D2F80034002BFBD0BFF34F8F0749084B8A
:10500000CA6802F4E0621343CB60BFF34F8F00BF66
:10501000FDE70020704700BF00E0014000ED00E028
:105020000400FA050346024A0248022107F02DBE99
:10503000ABF3000018E5000070B504460D460146CC
:105040000A4807F02AFF20B92046BDE87040FFF764
:10505000E9BF022D08D150F8083C2BB11B691BB1E8
:10506000BDE870400068184770BD00BFFC19002003
:1050700080B500AF88B06A46064BC2E9053003230D
:1050800042F8103F044800234FF4C451FDF78CFC54
:10509000BD4680BDD1F3000018E5000070B506469E
:1050A0000D460146254807F0DEFE044620B930468D
:1050B000BDE87040FFF7DCBF0A2D3DD8DFE805F002
:1050C000060D181A23252C3C3C3C22001C4A1D4886
:1050D000BDE87040032108F053B81B4A194803216A
:1050E00008F04EF8002304F8043C04F8033C09E0FF
:1050F000164AECE7164A1348032108F041F8012349
:1051000004F8043C70BD134AE8E7134A0D48032134
:1051100008F036F80123E8E7104A0A48032108F0AE
:105120002FF814F8033C002BECD00D4A054803215E
:1051300008F026F80023D8E70A4AC8E7FC1900203F
:10514000F2F3000018E50000FFF3000015F4000082
:1051500026F4000038F400004CF400005DF4000078
:105160006CF4000079F400002DE9F04104460F468C
:1051700001791E48904607F082FE064648B9A3888A
:105180001B481C4A022107F080FD6FF01200BDE8A9
:10519000F08194F9003000686578002B13DA012D56
:1051A00009D0AB1E012B0BD9134A11482B46012104
:1051B00007F06BFD04E056F8083C0BB11D686DB9B3
:1051C0006FF08500E3E7092D02D0A5F10A03E9E7B6
:1051D00056F8083C002BF3D05D68F0E743463A46AA
:1051E0002146AC46BDE8F041604700BFFC190020F5
:1051F00018E5000087F40000AEF400002DE9F0414E
:1052000090F90030002B04460D46174603DB6FF083
:105210001500BDE8F081038823F0E0039BB240F263
:1052200001629342F3D190F80480468815484146C4
:10523000360A07F024FE30B9134A144843460221C7
:1052400007F023FDE3E7212E04D0222E0FD06FF0CC
:105250008500DEE70368E1885B685B6813F8092F67
:10526000914294BF29602A603B600020D1E7E38827
:1052700050F80C2C9A4294BF2A602B6050F8103CD6
:10528000F2E700BFFC19002087F4000018E50000D9
:1052900010B50469C4E90012A36000236361064BE2
:1052A0002061596804F1140211B9C3E9002210BD4C
:1052B0000A605A60FBE700BFFC19002070B5446823
:1052C0000069057B3DB1407B28B9206ABDE870408C
:1052D000007907F0B0BD044A0448022107F050FFEE
:1052E0006FF00A0070BD00BFC7F4000018E50000B1
:1052F000020600F07F0312D5082B05D1010700F04C
:105300000F0306D50E48704710F0780F12D100F049
:105310000F034C2000EB43100A4B18447047082B36
:1053200005D1020700F00F0306D50748704710F0BB
:10533000780FF6D000207047044800EB4310704708
:10534000501B0020041A0020701C0020701B00203D
:105350000149024808F045BC2C1A0020900F00209B
:105360000146014808F0DABBFC0300200248002295
:10537000002304F0D7BF00BFFC03002013B5124880
:1053800000F0A8FF114B98421AD1114804F05AFBC3
:105390000024104804F09CFB0F49104800944FF083
:1053A000FF334FF4806205F049F90D490B4808F0CE
:1053B0003AFC0C480C4908F0F8FB204602B010BD3E
:1053C0006FF00400FAE700BF795900000000AD0B50
:1053D00019F70000C4E6000040330020900F0020C1
:1053E000E8F400002C1A00206955000010B50E49A1
:1053F000BFF35B8F002351E8002F012A03D141E85E
:1054000000300028F7D1BFF35B8F0CD151F8044C6A
:105410001439204607F0B4FA783004D12046BDE8AC
:10542000104007F089BA10BD241A002038B50024B6
:1054300064F07F00C0B2FFF75BFF013407F0ACFE01
:10544000082CF5D10E4D0024E0B2FFF751FF03699F
:1054500003B90561013407F09FFE082C05F14005F2
:10546000F2D1084807F098FE074BD3F87C2212B916
:10547000064AC3F87C22064807F08EFE002038BD9D
:1054800094200020501B0020041A0020941C0020AF
:10549000701C002010B5054CFFF768FF20B1416873
:1054A000204608F06AFAF7E710BD00BF5C03002051
:1054B00007B500231448002201A904F03DFEE8B11D
:1054C000124A1348012107F07AFEFFF7E3FF0E4866
:1054D0000022002301A904F02FFE30B10D4A0C4830
:1054E000012107F06CFE00200AE0019804234060CF
:1054F0000374FFF735FFFFF72BFFF4E701984060D7
:1055000003B05DF804FB00BF5C030020F3F400006F
:1055100020E5000011F500000346024A024801217F
:1055200007F0B3BB2DF5000020E50000022810B500
:1055300011D80B4A145CFFF7BBFF80B10022027444
:105540000472FFF70DFF074B93F824303BB1BDE821
:105550001040FFF7FDBEBDE81040FFF7DDBF10BDF6
:1055600016F70000041A00202DE9F043A24CDFF8E2
:105570008C9285B08046FFF7F9FE074610B905B05A
:10558000BDE8F08394F825203B7C3AB9002B00F06D
:105590009A807968994808F0F0F9ECE7042B00F25A
:1055A0007581DFE813F09000050012013D015E01F6
:1055B00018F8043C33B9BB685B7A914A91480121E1
:1055C00007F063FB3B7BBD68032B37D8DFE803F0B4
:1055D000023D63686E698C4B002232607260D3F8C2
:1055E00080143170D3F884147170D3F88814D3F810
:1055F0008C0441EA00217180D3F89014D3F894040C
:1056000041EA0021B180D3F89814D3F89C3441EAE0
:105610000323F3800823EB60306871687B4B03C37E
:1056200011462B68687A984796F90030002B08DB02
:10563000F38833B1A4F88C3201F09AF979684846BE
:10564000A9E70023A4F88C32F8E76B7F002BF5D094
:105650002B7F002BF2D000264FF0FF326C486E7784
:105660004FF0FF332E7707F0ACFD6B6901936B6849
:10567000CDE9023601A9687A00F082FE654A9042BF
:10568000034604D0644A5F48012107F0FEFA6048EF
:1056900007F099FDD2E72B680121687A9847CDE79A
:1056A000AB7A6BB9EB7F5BB959484FF0FF324FF0E3
:1056B000FF3307F086FD01F061F9554807F083FDDF
:1056C0002B680221E9E73B7A042BB7D8DFE803F027
:1056D00059032367730000F0BDFD05460028ADD1D6
:1056E00000F0F8FCBFF35B8F4C49012351E8002F19
:1056F000002A03D141E800300028F7D1BFF35B8FC7
:105700009CD141F8085C41F8105CE0696361143990
:1057100007F0BBF892E7002565F07F00C0B2FFF705
:10572000E7FD037A13B1407A01F08CFA0135082DB8
:10573000F2D194F854311BB194F8550101F082FA7A
:105740000025E8B2FFF7D4FD037A13B1407A01F0E7
:1057500079FA0135082DF4D194F874321BB194F81C
:10576000750201F06FFA002000F058FD012384F863
:1057700025302368002B3FF461AF002102209847B9
:105780005CE7002584F8255001F0C2F9FFF72EFEF2
:105790002368002B3FF452AF29460420EFE7002A8C
:1057A0003FF44CAF00F060FD2368002B3FF446AFA0
:1057B00000210520E3E72368002B3FF43FAF002AD8
:1057C0003FF43CAF00210620D9E708F110054FF067
:1057D000FF334FF0FF32284607F0F3FCFFF726FEB9
:1057E000284607F0F0FC58F8283C002B3FF426AF81
:1057F00000210120C3E700BF041A00205C03002041
:1058000048F5000020E5000000700240081A002062
:105810003C1A00200000AD0B6EF50000241A002099
:1058200094F8743263B1012584F8895284F888525F
:10583000FFF73EFE60B9184A1848294607F0BFFC3A
:1058400058F8283C002B3FF4F9AE00210A2096E7D7
:10585000134A057405738260FFF782FDFFF778FD38
:10586000EEE7104A0D48012107F0A9FC08F002F804
:1058700001F04EF900F024FCFFF70CFEFFF7D6FD17
:1058800007F0F1FF084800F025FDD7E6074A034876
:10589000012107F0FAF9D1E694F5000020E50000B7
:1058A000701C0020A8F5000079590000BFF5000029
:1058B000F7B5877806463846FFF71AFD3B06F478B9
:1058C00005461DD554B1032C06D0284A2848009718
:1058D0002346012107F0E3F903B0F0BDFFF7E8FD2F
:1058E00003460028F8D00122AC7702740322027329
:1058F0009D60FFF735FD03B0BDE8F040FFF728BD20
:1059000054B1012CE1D1FFF7D3FD03460028E3D0C9
:105910006C7704740473EBE7FFF7CAFD0028DBD053
:10592000B278144B12F0800F02F0080111D041B18F
:10593000D3F8A836EB600123037402230373856058
:10594000D7E702F00F02142101FB0233D3F8083627
:10595000F0E711B1D3F8A837ECE702F00F021421F9
:1059600001FB0233D3F80837E4E700BFD7F50000A6
:1059700020E5000000700240F0B514228BB006460E
:1059800000210DEB020008F062FB3378013B052B90
:1059900021D8DFE803F08B0314147B1603238DF862
:1059A0001C300024FFF784FD0346A0B1047400F10D
:1059B0000802DDE9070182E80300184626E0042317
:1059C000EDE7B7783846FFF793FC837A054623B1B5
:1059D000013B022B54D90BB0F0BD3B06F4781CD52B
:1059E0004CB1032CF7D0324A3248009723460121AC
:1059F00007F055F9EFE7FFF75BFD03460028EAD013
:105A00000122AC770274032202739D60FFF7A8FCA9
:105A10000BB0BDE8F040FFF79BBC54B1012CE2D1C4
:105A2000FFF746FD03460028D5D06C770474047355
:105A3000EBE7FFF73DFD04460028CCD00223012709
:105A4000037307748560B07805F10C0107F0F2FB71
:105A5000034620B1184A1748394607F016F9174A85
:105A6000E968B2F88C328B4206D95B1AA2F88C3204
:105A700000F07EFF2046C9E70023A2F88C32F9E748
:105A800030460BB0BDE8F040FFF712BF03A800F0AE
:105A90004DFF9DF80D30052B04D19DF80C3013F00F
:105AA000600F98D0064B079301247BE7022479E727
:105AB000D7F5000020E5000003F60000041A0020DE
:105AC000701B002038B5164D95F824402CBB05F10D
:105AD000380007F09CFF204601F006FA224601211B
:105AE000E8612720FEF7D4FF07F0BDFEFFF79EFC1C
:105AF000044610B9012385F824300A4B1B680BB10A
:105B0000FFF726FC4FF08043D3F83834DB0702D58B
:105B10000020FFF70BFD204638BD0024FBE700BF47
:105B2000041A0020FC030020074B93F824203AB10C
:105B300093F82530002B14BF00206FF0120070473F
:105B40006FF01200704700BF041A002008B50378F8
:105B5000027903F00F0142B991B10D4A01210D48BC
:105B600007F02DFB4FF0FF3008BD082901D90A4A84
:105B7000F4E7012A04D11B0707D4084A0221EEE703
:105B800013F00800F0D0064AF8E70020ECE700BF69
:105B900023F6000020E5000042F6000061F6000058
:105BA00077F6000038B5134B93F824300446EBB178
:105BB00005782846FFF79CFB88B1457223798372EC
:105BC000638843602078618810F0080F0AD14B1E6B
:105BD0000B4207D0084A0948012107F0F0FA6FF09C
:105BE000150038BD07F021FB0020FAE76FF0120026
:105BF000F7E700BF041A002094F6000020E500003B
:105C000038B5154B93F8242005460AB393F8253090
:105C1000F3B1FFF76DFB044610B96FF0150038BD06
:105C2000817A01290FD007D90239012907D963697F
:105C3000A3610020E060F2E700F0A6FEF7E7284647
:105C400000F048FEF3E7054A054807F0B8FAE4E734
:105C50006FF01200E3E700BF041A0020BCF600005A
:105C600020E5000038B50E4B93F82420054682B19C
:105C700093F825306BB1FFF73BFB68B115F00804D2
:105C80000AD1284600F048FE284601F013F82046C5
:105C900038BD6FF01200FBE76FF01500F8E700BFAA
:105CA000041A002038B50C4B93F8242005460C4606
:105CB00062B193F825304BB1FFF71AFB48B144B1FC
:105CC000284600F00FFE2070002038BD6FF0120053
:105CD000FBE76FF01500F8E7041A002070B5134ECB
:105CE00096F824300446C3B1FFF702FB0546B8B16D
:105CF000230705D4204600F00FFE204600F0DAFF0F
:105D00002B7A83B901232B7296F825300BB900202A
:105D100070BD204600F096FFF9E76FF01200F7E73C
:105D20006FF01500F4E76FF07700F1E7041A002038
:105D30002DE9F043DFF8F4801E4698F8243085B052
:105D4000074689461546002B6DD098F82530002B64
:105D500069D003060BD5FFF7CBFA044638B1037AB6
:105D60005BB9334A33483B46012106F08EFF6FF0A2
:105D70001504204605B0BDE8F0834FF0FF334FF027
:105D8000FF3208F1380007F01CFAA37F33B108F1A5
:105D9000380007F018FA6FF00A04EAE7A37A05B3AF
:105DA0007BB30123A3774FF0000801A93846CDE962
:105DB0000195CDF80C8000F0E3FA1F4A90420346AB
:105DC0002DD084F81E800EB1C6F800801B4A1948F9
:105DD000012106F05AFF6FF00404194807F0F3F9A7
:105DE000C7E7E27F02B1E577002BDAD100F0D2FD00
:105DF0008742D6D000F0C2FD114807F0E4F9002434
:105E0000B7E7B8F80A309D42F0D26268B5FBF2F30A
:105E100002FB1353002BE9D10123E377E6E706B138
:105E200035600024D9E76FF01204A2E7041A0020BD
:105E3000DEF6000020E500000000AD0BFDF60000DE
:105E40003C1A00202DE9F0411D46254B174693F8DA
:105E5000242080460E46002A3FD093F82530002BA0
:105E60003BD010F0800F0ED101B967B94046FFF763
:105E70003FFA044638B1037A43B91A4A1A484346EE
:105E8000012106F002FF6FF0150013E04FF0FF3321
:105E900016484FF0FF3207F094F9E3689F42B84686
:105EA00028BF984646B93FB905B12B600F4807F0A7
:105EB0008AF90020BDE8F081A1694246304608F029
:105EC000B8F8A3694344A361E368A3EB0803E36064
:105ED000002DEBD0C5F80080E8E76FF01200E9E78D
:105EE000041A0020DEF6000020E500003C1A002025
:105EF00070B5224D95F824300646002B3AD095F81F
:105F00002530002B36D003060BD4FFF7F1F90446F9
:105F100038B1037A43B91A4A1A483346012106F0C8
:105F2000B4FE6FF0150070BD4FF0FF334FF0FF323D
:105F300005F1380007F045F9E368B3B90126636954
:105F40002677A361637F83B1FFF7B2FA30B905F119
:105F5000380007F038F96FF00B00E4E7067484604E
:105F60000673FFF7FDF9FFF7F3F9074807F02BF980
:105F70000020D8E76FF01200D5E700BF041A002018
:105F8000DEF6000020E500003C1A002010B5084BAA
:105F900093F824300C462BB1FFF7AAF928B104601E
:105FA000002010BD6FF01200FBE76FF01500F8E75E
:105FB000041A0020014B1860704700BF041A00202B
:105FC00008B5074B93F8243023B1FFF791F920B1BE
:105FD000406808BD6FF01200FBE76FF01500F8E7AE
:105FE000041A00204FF08053D3F83021082A06D13C
:105FF000D3F83431052B04D8034AD05C7047002015
:1060000070470120704700BF23F70000064B10F0D7
:10601000800FA3F1D80208BF134600F00F0018222A
:1060200002FB0030704700BFAC230020EFF311806B
:10603000402383F31288BFF36F8F0A4BD3F8001C01
:10604000032261B949F27531C3F8001CC3F8142D5D
:10605000C3F8001C80F31188BFF36F8F7047C3F83B
:10606000142DF7E700E00640EFF31180402383F39F
:106070001288BFF36F8F0A4BD3F8001C61B949F245
:106080007532C3F8002CC3F8141DC3F8002C80F33C
:106090001188BFF36F8F70470022C3F8142DF6E705
:1060A00000E006404FF08053D3F83031082B02BF98
:1060B000024B0022C3F81C2C704700BF0070024046
:1060C000024A00231360024A137070478C24002098
:1060D000BA28002008B54A4B4FF40062C3F80024E8
:1060E000FFF780FF08B1FFF7A1FF4FF08053D3F80F
:1060F0003031082B18D1EFF31180402383F312883D
:10610000BFF36F8F3F4BD3F8001CC02200296ED124
:1061100049F27531C3F8001CC3F8142CC3F8001CF5
:1061200080F31188BFF36F8F354B0122C3F8002530
:10613000D3F800241205FBD54FF40062C3F8002405
:106140004FF08053D3F83031082B17D1EFF3118083
:10615000402383F31288BFF36F8F2A4BD3F8001CC0
:10616000002947D149F27532C3F8002CC3F8141C3A
:10617000C3F8002C80F31188BFF36F8FFFF732FF55
:1061800030B1FFF771FFFFF72DFF08B1FFF74EFFAA
:106190004FF08053D3F83031082B194B0AD140F21D
:1061A000E372C3F800284022C3F80428BFF36F8FBE
:1061B000BFF34F8F8022C3F81C250122C3F830257E
:1061C000114B40F2FF121A60104B00211960104B66
:1061D0001970FFF767FF0F4B19700F4B02221A70EF
:1061E000FFF700FF50B1BDE80840FFF73DBFC3F81F
:1061F000142C95E70022C3F8142CBBE708BD00BFA0
:106200000070024000E00640882400208424002022
:10621000B6280020B8280020BA280020094B002208
:1062200010B51A70084A094B094C002808BF1346DC
:10623000C4F800332720FEF7FBFB0123C4F8043524
:1062400010BD00BFB9280020FDFFDF01FDFFFF01E9
:1062500000700240034B1878012894BF00200120F1
:10626000704700BFBA28002010B54FF0FF324FF042
:10627000FF33154804F0BCF8EFF31181402383F39A
:106280001288BFF36F8F114B1B7803F0FF0483B1AB
:106290000F4BD3F8002412F400720AD10120C3F886
:1062A0002C05D3F82C05D3F80004800502D5C3F8DB
:1062B0002C25002481F31188BFF36F8F024804F06E
:1062C00063F8204610BD00BFDC030020B928002081
:1062D00000700240F8B51C4B1C7894BB1B4A106040
:1062E00001221A7040F2FF17264664F07F0514F071
:1062F000080FEDB214BF39464021284606F095FF3D
:106300002846FFF783FE0134092C86750673066163
:10631000EBD1002440F2FF17254614F0080FE6B237
:1063200014BF39464021304606F07FFF3046FFF764
:106330006DFE0134092C857505730561EDD10448A6
:10634000F8BD0448FCE700BFBA2800208C240020D8
:106350000000AD0B0500AD0B084B10F0800F00F0F6
:106360000F0114BFD3F81025D3F8142501238B4057
:10637000134214BF01200020704700BF007002408C
:106380002DE9F8430246EFF31187402383F3128887
:10639000BFF36F8F030703D1184B1B78834229D1BA
:1063A000174B184E1C683568104606F036FFE4435C
:1063B000A4B24FF001092C4309FA00F814EA0804CA
:1063C0001AD11046FFF722FE80F80C90034607C949
:1063D0001C6183E807009C750B4B0C4845EA0805D7
:1063E00080223560C3F8042187F31188BFF36F8FD3
:1063F000BDE8F8830648F7E70648F5E7B828002027
:10640000882400208424002000E100E00000AD0B7F
:106410000A00AD0B0B00AD0B10F0080F074B06D0B8
:10642000D3F8C00410F4803F18BF0020704700F07C
:106430000F0000F5947053F8200070470070024080
:106440002DE9F74FAB4BAC4ED3F85421DAB1002213
:10645000C3F85421D3F80413890214D58DF804200D
:10646000D3F82025ADF80620D3F8C034002B3368CC
:1064700014BF4FF001224FF48072134333609F4BDF
:1064800001A81B6898479B4BD3F8604134B10022A8
:10649000C3F86021D3F86C44C3F86C44D3F82821C6
:1064A0004AB10022C3F82821954B187806F0B5FEB2
:1064B000012383401C43DFF84C82934F98F800502F
:1064C00098F9009015F0080143D1B9F1000F05F0DB
:1064D0000F032EDA8D4A52F8230020B342F823101E
:1064E0001422534303F1804303F51C33D3F80836D9
:1064F000874A117803F001034B401370FFF7D2FD78
:10650000844803F041FF2846FFF780FD837D032B7D
:1065100037D1284606F081FE012303FA00F03B68DC
:1065200023EA00033B60DFF8D4A101254FF0060900
:106530005DE0794A52F823000028F4D042F8231095
:106540001422534303F1804303F51C33D3F8083777
:10655000CEE7B9F1000F674B09DBD3F85021002AD1
:10656000E1D00022C3F85021D3F8A837C0E7D3F810
:106570002C21002AD7D00022C3F82C21D3F8A8362A
:10658000B6E7037BDBB9284606F047FE012303FA92
:1065900000F03B68B9F1000F23EA00033B6001DA29
:1065A000882DC0D106238DF8043000238DF80730E4
:1065B000524B8DF806501B6801A89847B3E7002D91
:1065C000B1D14C4B0122DA64ADE794FAA4F0326801
:1065D000B0FA80F005FA00F31A430F28326024EA7B
:1065E00003043A6840F39C80134200F0A980002C19
:1065F000EBD1404BD3F800215AB1C3F80041474BCF
:106600001C703F4B1C70012301933C4B01A81B687D
:106610009847384BD3F85821002A2ED00022C3F8CF
:106620005821D3F80044C3F80044E30508D53B4B98
:1066300001221A7002230193304B01A81B6898476E
:10664000A50508D5354B00221A70032301932B4B67
:1066500001A81B68984760050FD5304B1A7862B1C6
:1066600000221A70234B0122C3F808259A650423DF
:106670000193224B01A81B6898471E4BD3F85C314D
:1066800003B3244B9B681BB998F80030590619D006
:10669000184B0022C3F85C21D3F88034184A23F049
:1066A0007F0313703B6823F001133B60336823F4CE
:1066B000803343F001033360052301930F4B01A89E
:1066C0001B6898473A6833681A4200F0EB8011481B
:1066D0000022002303F08CFE002840F0E380054BED
:1066E000D3F82C35002B7BD00A4803B0BDE8F04F1F
:1066F00003F04ABE00700240882400208C24002051
:10670000B8280020B7280020842400200871024007
:10671000B6280020DC03002030710240B928002098
:1067200013407FF464AF60F07F018DF804908DF822
:1067300006108DF80730DAF8003001A8984756E7C0
:10674000A0F110018DF804908DF806108DF8075017
:10675000F1E749F080052846FFF758FC4368B0F898
:1067600014A001689A4528BF9A4601F06043B3F12E
:10677000005F044604D05448524607F05AFC524980
:106780002268636852442260A268A3EB0A03D2071E
:1067900068B2636053D5BAF1000F52D1002323735E
:1067A0004FE011464FF0000A604545D1003B18BF4D
:1067B0000123002A42D0504540D9012303FA09F3AE
:1067C0002BEA03033B6006238DF804303F4B8DF822
:1067D000065002221B68A2758DF8072001A8984771
:1067E000D7F800B033681BEA03093FF47DAF19F016
:1067F000012314BF93FAA3F999FAA9F9B9FA89F90F
:10680000B9F10F0FA5D9A9F11005EDB22846FFF790
:10681000FDFB04462846FFF7FFFD6368B4F814C08B
:1068200022689842BDD81B1A00EB020E1146636025
:10683000C4F800E08246B7E70023BAE768B2002B4D
:10684000ACD04FF08053D3F83031082B02BF204B2F
:106850008222C3F81C2C336888F80050012202FA07
:1068600009F923EA09033360236915F0080F53443B
:106870002361174B19D1002805F00F054FF01400C4
:1068800000FB0530A9BF0A3503EB8503C0F80017EC
:10689000C0F804A7AFBF43F82520C0F80016C0F821
:1068A00004A65A6003B0BDE8F08F0028B5BFC3F856
:1068B000A016C3F8A017C3F8A4A6C3F8A4A7B4BF32
:1068C0005A629A64EEE700BF942200208C240020D4
:1068D00000700240024B40F48070C3F81805704706
:1068E00000700240030713D400F00F0310F0800F74
:1068F000084A0BBF03F5887303F5847302EB830228
:1069000052F8230008BF5068003818BF01207047B4
:106910000020704700700240034BC3F80C0540F4A0
:106920008070C3F80C0570470070024000230360BC
:1069300043600E4BD3F880240270D3F88424427055
:10694000D3F88824D3F88C1442EA01224280D3F889
:106950009024D3F8941442EA01228280D3F8982438
:10696000D3F89C3442EA0323C3807047007002408E
:10697000014B0122DA64704700700240014B012292
:106980001A65704700700240014B01225A6570473A
:1069900000700240014B1878704700BFB8280020F3
:1069A00010B50246EFF31184402383F31288BFF33E
:1069B0006F8F06F032FC0B49012303FA00F00B68DD
:1069C00023EA00030B6012F0080101BF02F00F027E
:1069D000054B02F5947243F8221084F31188BFF33B
:1069E0006F8F10BD8824002000700240F7B501466B
:1069F000EFF31185402383F31288BFF36F8FFFF706
:106A000005FB0646084606F008FC012211F0800F3F
:106A100002FA00F22D4818D1036832EA03040AD0C2
:106A20000846FFF7BDFF0323B37585F31188BFF355
:106A30006F8F03B0F0BD2649347323EA020303606D
:106A40000B6823EA02030B60EDE70B0715D48029DE
:106A5000204B2FD001F00F0404F2DA346400C3F8A5
:106A60000048D3F80448D3F80478E4B244F00204B0
:106A70003C43C3F80448D3F80438154F04683B6816
:106A800064EA030C1CEA020FCFD013433B600023DF
:106A900033730323B3758DF807300F4B8DF8061051
:106AA00024EA0204062204601B688DF8042001A871
:106AB0009847BAE740F2B474C3F80048D3F80448E2
:106AC000D3F80478E4B244F00404D1E7842400202D
:106AD00088240020007002408C24002038B5044631
