:10100000404B00204D4B000023CE0000394B000028
:10101000394B0000394B0000394B00000000000044
:10102000000000000000000000000000354C00003F
:10103000394B000000000000314E0000394B000029
:10104000AD4E0000ED850000AD4E0000AD4E00003D
:10105000AD4E0000AD4E0000AD4E0000AD4E0000A4
:10106000AD4E0000AD4E00007D800000AD4E000092
:10107000AD4E0000AD4E0000AD4E0000AD4E000084
:10108000AD4E0000AD4E0000AD4E0000AD4E000074
:101090008D860000AD4E0000AD4E0000AD4E00004C
:1010A000AD4E0000AD4E0000AD4E0000AD4E000054
:1010B000AD4E0000AD4E0000AD4E0000AD4E000044
:1010C000AD4E0000AD4E0000AD4E0000AD4E000034
:1010D000AD4E0000AD4E0000AD4E0000AD4E000024
:1010E000AD4E0000AD4E0000AD4E0000AD4E000014
:1010F000AD4E0000AD4E0000AD4E0000AD4E000004
:10110000014B1B685B68184700000020014B1B68FF
:101110009B68184700000020014B1B681B6918479B
:1011200000000020014B1B685B691847000000208D
:10113000014B1B689B69184700000020014B1B688E
:10114000DB69184700000020014B1B681B6A184729
:1011500000000020014B1B689B6A1847000000201C
:1011600030B4044C9DF8085024680295E468A44605
:1011700030BC6047000000209F130000A513000052
:10118000A7130000CD130000AB130000D71300001D
:10119000B1130000E1130000B7130000ED130000CD
:1011A000C3130000C7130000B9130000BF130000F1
:1011B000DD130000E713000030B50346114890F935
:1011C0001C209A4219DD90F924209A4217DA9A1AC3
:1011D000846AA05C0C4A15569D420DD00E3200293F
:1011E00018BF01309442C0B206D129B1013BDBB235
:1011F000012B01D80130C0B230BD0D20FCE700202A
:10120000FAE700BF5805002090EA000008B5054B3A
:1012100093F91C30984203DAFFF7CEFF024B1B56BE
:10122000184608BD5805002090EA000008B5184B84
:1012300093F82C20FAB9012283F82C20154A126861
:10124000A2F10800082803D813490141C90709D5AC
:10125000911F092910D9013212D04FF4DF71742087
:1012600000F034F80D4A9A62D8221A6283F82420DA
:1012700008229A611A7708BD094A0A41D207ECD4BC
:10128000084A9A62D8221A6283F824200422F0E7DE
:101290005805002008070020DEFEFFFFCBEA000013
:1012A000EEFCFFFF9EEA0000BFF34F8F0549064B9F
:1012B000CA6802F4E0621343CB60BFF34F8F00BFF4
:1012C000FDE700BF00ED00E00400FA051FB572B6AF
:1012D000134B5D6895B9FFF7E7FF2346B2FBF6F2C3
:1012E0005C1C002AF9D104AEDCB256FA83F303F891
:1012F0000C2C0A2234B901A8A847ECE702460023C7
:101300000A26EDE7631E04AEDCB256FA83F3B0FBA7
:10131000F2F602FB1600303003F80C0C3046E9E719
:10132000D00600204FF08052034BD2F830111960E4
:10133000D2F834215A6070470807002053B94AB9DF
:10134000002908BF00281CBF4FF0FF314FF0FF30CD
:1013500000F00CB8ADF1080C6DE904CE00F059F8BE
:10136000DDF804E0DDE9022304B07047704700BFF8
:1013700008B5FFF7D7FFBDE80840FFF757BF801A51
:1013800000F3070038B540B20D4659B21446FFF7D6
:101390003DFF002328706B70204440B238BD00230D
:1013A000036070477047002070474FF0FF30704770
:1013B0004FF0FF30704770474FF0FF30704700200C
:1013C0007047002070470023037070479DF800307D
:1013D0000022FFF7D4BF4FF0FF3070470020704766
:1013E0004FF0FF3070474FF0FF307047704710F8F4
:1013F000012B11F8013B012A28BF9A42F7D0D01ADD
:101400007047034613F8012B002AFBD1181A013844
:1014100070472DE9F0478C468E46089E15460446D7
:101420001946002B40F0D080724547D9B2FA82F7B6
:101430004FB1C7F120030EFA07FC20FA03F3BD40B9
:1014400043EA0C0CBC404FEA154EA8B2BCFBFEF8B8
:10145000230C0EFB18CC08FB00F943EA0C4399451A
:1014600028D9EB1808F1FF3204D2994502D9A8F126
:1014700002022B44A3EB0903A4B2B3FBFEFC0EFB58
:101480001C330CFB00F044EA0344A04214D92C198D
:101490000CF1FF3304D2A04202D9ACF102032C4478
:1014A000241A43EA02401EB1FC40002334607360FA
:1014B000BDE8F0874246DDE76346F1E7002A79D0D0
:1014C000B2FA82F3002B3FD01946C1F1200302FA91
:1014D00001F52EFA03F20EFA01FE20FA03F343EAB5
:1014E0000E034FEA154E00FA01F4B2FBFEFCAFB258
:1014F0000EFB1C201A0C0CFB07F842EA0042904538
:101500005AD9AA180CF1FF3004D2904502D9ACF197
:1015100002002A44A2EB08029BB2B2FBFEFC0EFBC7
:101520001C220CFB07F743EA02439F4246D9EB1803
:101530000CF1FF3204D29F4202D9ACF102022B44DB
:10154000DB1B42EA004202E0AEEB020301224FEA5B
:10155000154EAFB2B3FBFEFC200C0EFB1C330CFB94
:1015600007F840EA034398452AD9EB180CF1FF30FD
:1015700004D2984502D9ACF102002B44A3EB080336
:10158000A4B2B3FBFEFC0EFB1C330CFB07F744EAD2
:101590000344A74216D92C190CF1FF3304D2A742F9
:1015A00002D9ACF102032C44E41B43EA00400F468D
:1015B000114678E71F2188E76046ABE76246BFE740
:1015C0006046DBE76346EFE7734506D916B90021AD
:1015D00008466DE7C6E9000EF9E7B3FA83F787B965
:1015E000734501D3824207D8841A6EEB03030120AE
:1015F0009C461EB900215BE73846FAE7C6E9004C75
:10160000F8E7C7F1200CBB4022FA0CF51D4320FA85
:101610000CF12EFA0CF30EFA07FE41EA0E014FEA26
:10162000154900FA07F4B3FBF9F81FFA85FE09FB28
:1016300018300B0C08FB0EFA43EA00439A4502FAF5
:1016400007F240D9EB1808F1FF3004D29A4502D9CD
:10165000A8F102002B44A3EB0A0389B2B3FBF9F80B
:1016600009FB183308FB0EFE41EA03418E452CD9D5
:10167000691808F1FF3304D28E4502D9A8F102039C
:10168000294443EA0040A0FB0298A1EB0E0141452A
:10169000CE46434602D306D14C4504D2B9EB020EE6
:1016A00068EB05030138002EA4D0B4EB0E0261EB09
:1016B000030101FA0CFC22FA07F34CEA0303F94098
:1016C000C6E9003196E74046C5E74346D9E7000042
:1016D00008B505480AF085FB28B104480AF081FBEB
:1016E000B0FA80F0400908BD101200200C12002052
:1016F0002DE9F04F3A4E87B000AF00214FF4203073
:101700000CF0AEFDFFF7E4FFDFF8D8B0DFF8D4A0AF
:10171000354A002818BFB34634480AF062FB002857
:1017200018BFB24632480AF05CFB814631480AF0E5
:1017300058FB054630480AF054FB04462F480AF08F
:1017400050FB01462E480AF04CFB03462D480AF098
:1017500048FB78602C480AF044FB80462B480AF08E
:1017600040FBD2F850C5C7F808C0D2F808C5C7F882
:1017700014C0D2F810C5C7F810C0D2F830C54FF069
:101780008042D2F80C24C7F800D098B0FA606A46BC
:10179000CDE90B137B68DFF878E00F90CDE90D38C9
:1017A000BB681093502311937B6912933B69CDE979
:1017B000133CFB681593174B1693174BCDE905EBBC
:1017C000CDE907A9CDE9095442F8103F1348002399
:1017D00049F6C00101F05AF9D7F800D08DE700BFF3
:1017E00070ED000076ED000000100040F8110020C0
:1017F000F411002008120020FC1100200412002027
:1018000000120020F0110020EC110020E81100204F
:101810007EED00000002010312000002E8E9000072
:10182000014808F0D9BD00BF10040020013808B5F8
:1018300005281CD8DFE800F0161B03160D070C481E
:1018400001210AF0D4FABDE808400A4800210AF054
:10185000CEBA012107480AF0CAFA0748BDE8084095
:1018600008F0BABD024800210AF0C1FAF2E708BD4B
:10187000101200200C1200201004002070B5037814
:10188000022B88B004D12C4E2B4807F023F908B165
:1018900008B070BD29480AF0B5FA96F90210284838
:1018A0000AF0A5FA33780C2B03D026480AF0AAFADE
:1018B000EAE7254A1068516805AB03C390681860D1
:1018C0009DF81430A52BF0D19DF81530012BECD1EB
:1018D0009DF81630012BE8D11C4C237806AD3BB1A6
:1018E0001B49082228460CF0B7FD08B91948DDE766
:1018F000012323702B4603CB154A01AC84E8030077
:101900001060516014480022002321460CF0C5FAF3
:101910000028B9D011480AF075FA0F4800220023B8
:1019200003A908F001FC0028AED1002200232146C3
:1019300009480CF0B2FAA7E771260020081200202F
:10194000FC110020041200207626002070260020C2
:101950006826002000120020D8030020F01100208B
:101960007FB50023CDE900334B4A4C4803210BF0EF
:10197000AAF84B484B4C08F067F92060B8B14A4BC5
:101980004A493F2203F060FE20680BF0A0FA0546AA
:1019900020B9474801F020FF054658B1454A3F4865
:1019A0002B4601210BF098F8284604B070BD6FF06B
:1019B0001205F3E7404940F201130B800125082688
:1019C0000C224B8208463D4B0D728E724A744B605E
:1019D00006F044FF98B93A4807F044F978B9394815
:1019E00007F05AF958B93848314607F06DF930B95F
:1019F000502007F08FF910B907F0B6F8C8B10146CA
:101A000032480AF0F4F9324A0B46012123480BF020
:101A100063F8FFF75DFEA0B92E4800220023694657
:101A200008F082FB0028F7D0002121200CF018FCE0
:101A3000EFE7294829460AF0DAF9284A502303211A
:101A4000E4E702AD234800220023294608F06CFB9E
:101A500018B995E80300CDE90001FFF739FE002829
:101A6000D7D01F4808F012FD2068002308226946DD
:101A700003F000FE18B11B480AF0C4F9C9E74FF0A3
:101A8000FF3317484FF0FF3208F0DAFCFFF720FE73
:101A90000028BED01448EFE720EE0000E8E900007F
:101AA00046EE00001412002018EB00008001010037
:101AB0002D1800004CEE0000B80000207D1800003A
:101AC0007C0101007801010070010100F411002087
:101AD0006EEE0000D8030020F8110020A3EE0000F5
:101AE00010040020E8110020EC1100202DE9F84F2F
:101AF0008A4600AF002974D004680E1F361BF50813
:101B000026F0070604EB0608B8F802B01BF0010B3C
:101B100016D1E94688B06A46334BCDE90531032337
:101B200042F8103F31485B464FF4C25100F0AEFF1F
:101B3000CD468BF31188BFF36F8F0423184602DF65
:101B4000294620460AF06AF9284434F83030C01A91
:101B5000854217D0E94688B06A46254BCDE9053A5B
:101B6000032342F8103F214800234FF4C25100F0F4
:101B70008DFF0023CD4683F31188BFF36F8F0423BD
:101B8000184602DFB8F8023023F00103A8F802304B
:101B9000294620460AF042F905EB000804EBC80389
:101BA0005B88DA0708D4414620460AF080F94246AD
:101BB000294620460AF0C0F9A65BAE1B04EBC6031B
:101BC0005B88DB0709D4314620460AF070F92A46C3
:101BD000314620460AF0B0F93546294620460AF03B
:101BE00022F9BD46BDE8F88F5AEF0000E0E9000099
:101BF00031EF00002DE9F04F91B08407009302F01F
:101C000004030293C2F3C20303F10103DDF868A0E9
:101C1000039205460E46059340F09D81041D002861
:101C20004AD101F00706341DC6F10806009B0027C3
:101C30005A1E4FF004084FF0FF3301930497B94642
:101C4000BB4643460DB1009921600598002800F37A
:101C5000D78090480099814203D38F488142C0F0D9
:101C6000CF80039911F0020CA4EB050040F0D68060
:101C7000B9F10F0F00F2CF80002D00F0D68009F1EE
:101C800040010DEB010EC0F3870001990EF8200C06
:101C90000EF8101CBCF1000F00F0C38060F07F0054
:101CA0000EF8200C013709F10109C5F108010434CF
:101CB00006914FF6DA7E8CE00729B7D86FF01B004B
:101CC00011B0BDE8F08F7A285BD84B280FD8472891
:101CD00057D829282ED8252850D052D8202818BFC8
:101CE00023280CBF4FF0010B4FF0000B71E04C3874
:101CF0002E2846D8DFE800F06D4545454545454569
:101D0000454545454845454545454545455645486C
:101D1000485656566D486A456D4518481845457FE2
:101D20007C48454548457C0000204FF0000B4FF0B3
:101D3000040835E02A38C0B2012101FA00F010EAA7
:101D40000E0F46D110F0625C2CD110EA010B40D08E
:101D50006046013C4444B4FBF8F408FB04F425B1AC
:101D6000A3EB050CA444B445A8D8002870D005996D
:101D7000013905915AF8041B009163E70199013973
:101D800001914FF0000B24E012F8010C6C2834D1C3
:101D900012F8023C00206C2B8346C8D14FF0080893
:101DA0004346D6E70AF1070A2AF0070A0734FAE899
:101DB00002BC24F0070435B106982044B0423FF637
:101DC0007DAFC4E900BC08344FF0000B4FF00808A9
:101DD000434612F8010F002853D0BBF1000F7FF4E7
:101DE00072AF2528F5D1019B013301934FF0010B10
:101DF0004FF00408ECE7584697E700208346A8E731
:101E0000039988077FF551AF601B4FF0010CB0F5C7
:101E1000007FFFF42DAF6FF0150051E74FF0000C7D
:101E2000F5E70498013004903DE7BCF1000F01D0C4
:101E3000013638E70298023600287FF434AF009864
:101E4000CDE90632FFF7DDFADDE9063206442AE77E
:101E5000042B08D10AF1040015B1DAF80010216052
:101E600004348246B5E70AF1070323F0070303F1C0
:101E7000080A1DB1D3E90001C4E9000108340823B0
:101E8000A7E7631BB3F5806FC5D23DB9A6F108047F
:101E9000E01815E77CE500000C020100029A2860BA
:101EA0009B082B709DF81030AAB1EB70AF702FB16A
:101EB00008A80022C5F1010C91450ED1C5F101031E
:101EC0000DF120084FF0000A01930DF1300BD145C0
:101ED00012D1601BF4E66B70E8E710F8013B1906BD
:101EE00008D50CEB040EB64503F07F033FF6E6AED3
:101EF00004F8013B0132DFE71FB198F90020002A06
:101F000017DB029BD3B11AF80B2004F8012B002237
:101F1000019B18191044B0423FF6D0AE98F800006B
:101F200004F8010B0099039220460CF07FFA039A03
:101F300014440AF1010A08F10108C8E798F80020E2
:101F400055F822300093029B45F822300098FFF7A5
:101F500058FA421CDCE76FF00D00B1E62DE9F04FB6
:101F600097B000AFC7E90A3205468A4649B90378F7
:101F70004678807800EB83002844564524D8A0EBAF
:101F8000050AD7F8803095F80280D7F8804003F032
:101F90000103FB61EB787B62B8F1000F0CBF0024FA
:101FA00004F001041BB1D7F880309A0715D4A4B906
:101FB000FB6A1BB1BA6A51462846984756463046D6
:101FC0005C37BD46BDE8F08F441C2046FFF719FA88
:101FD000013020440AF1010ACFE7D7F88030C3F37B
:101FE000C0033B622B78BB619B003B616B687B61EC
:101FF000BB6905EB830BFB6A002B77D15646D844AF
:10200000BCB11C461BF8013B55F82300FFF7F9F95A
:10201000D7F88430013043B1D7F88830A34282BF6B
:10202000D7F8843023F814000134C3450644E9D1BD
:10203000D846D7F8803013F0050F0CBF4FF0020BD5
:102040004FF0010B4FF000097B6A9945B7D298F821
:10205000013055F823A0AE4B9A4508F10208C0F0B4
:102060004B81AC4B3A6A9A452CBF002301230AB33B
:1020700018F8021C7869FB620AF033F8FB6AC8B1F1
:10208000EA468AB06A46A44B05937B69CDE90631DE
:102090004FF40073ADF82030A04B42F8103FA04839
:1020A00000234FF4125100F0F1FC023ED54609F135
:1020B0000109C9E723B1FB6933B9A6EB0B06F6E7C3
:1020C000D7F880309B07F2D55046FFF79AF9D7F83A
:1020D00084304BB1D7F888309C423FBFD7F884207A
:1020E000431C22F8143001340644E0E7002C69D187
:1020F000B8F1000F6CD0D7F8803058076BD5C146C7
:1021000007F14800424659460CF090F90BEB0803E2
:10211000FB6000220233796A8A425ED3D7F88020BE
:1021200095F801B0F969920704EB0B03DBB254BFD9
:102130004FEA59020022002940F0A680D7F880100B
:1021400011F0040F14BF494600216B70A970EA70AA
:102150003969BA6AFB6A28469847061EFFF62FAF10
:10216000BB692B707B6AEB704946BA6AFB6A85F8DB
:1021700001B085F8028007F148009847B0F10009E6
:10218000C0F2B6803B697A6A786A03EB4201FB6869
:10219000BA6A414403EB4000AAEB0101FB6A98478D
:1021A0000028C0F2A780B14409EB00064FF0000BF5
:1021B00007F1380AA34569D30021BA6AFB6A0846C9
:1021C0009847FCE6444607F138004FF0000999E7CC
:1021D0004446C1469AE7A14698E713F8016CDFF838
:1021E00030C155F8260013F8021C6045C0F08A8003
:1021F000DFF820C16045386A2CBF4FF0000B4FF06C
:10220000010B38B17869C7E9013209F06AFFD7E9F3
:102210000132F0B9BBF1000F1ED0F96949B1611C60
:1022200004F1280007F13004041904F8206CCCB242
:102230000FE0D7F8801049070BD509F1280007F106
:10224000300C09F1010100EB0C0909F8106C5FFA80
:1022500081F9013202335EE7D7F880008007DED4CF
:1022600009F1280C07F1300EF44409F101000CF8D3
:10227000101C07F1580151FA80F009F102095FFAC8
:1022800089F900F8106CE4E700215EE71BF80A30DA
:1022900087F8373055F82390D7F884302BB3D7F828
:1022A00088309B4521D2D7F8843033F81B80BA6A36
:1022B000FB6A012107F13700984700281ADB064422
:1022C000B8F1000F06D14846FFF79BF800F101086E
:1022D0001FFA88F8BA6AFB6A4146484698470028C0
:1022E00008DB06440BF1010B64E74FF00008DEE762
:1022F0004E4664E6064662E63B6A002B3FF4E0AEDB
:102300000023B5E6386A0028A6D04FF0000B79E725
:102310007CE500000C02010087EF000004000001D2
:1023200080E90000014B1860704700BFCC0000201E
:1023300080B505460E461746984608F06BFD0346E5
:1023400002F0C6FDDFF81890044649F80030424616
:1023500030463946A84754F8090002F053FD00BF43
:10236000080000002DE9F047058B044628071746B2
:102370000CD501290CBF45F0100545F0200525833B
:1023800087F31188BFF36F8FBDE8F087022905F04E
:10239000070540F0948020460AF055F9052864D8D6
:1023A00001A353F820F000BF81230000BF240000E8
:1023B0006B2400002D240000472400005924000055
:1023C00001F007035A1F012A1FD8002221F007013C
:1023D000062BD4F8008089B2C4E9002209D1434613
:1023E00003E0628B013262831B68002BF9D141F05C
:1023F0000201218320460AF026F94FF00009002847
:102400006DD041F02001218369E0042B0AD121F035
:10241000070189B2218320460AF015F910B141F075
:10242000200121834FF00008C14658E02369D3F80A
:102430000090238B23F0070343F0060323834FF020
:10244000000846464BE02369D3F80490238B23F021
:10245000070343F00403F1E72369D3F80890238BC3
:1024600023F0070343F00503E8E74FF00008C146F7
:10247000E7E7012243F00803238387F31188BFF3C2
:102480006F8F002A3BD1B8F1000F4AD1B9F1000F8C
:1024900002D02D492046C847EFF31187402383F32C
:1024A0001288BFF36F8F238B23F008039BB2238323
:1024B000D9063FD523F01002228303F00705666991
:1024C000218B002EBFF67CAF0023D4F8008021F0D2
:1024D0000701C4E9003341F0010121839946238BB0
:1024E00003F0070AAA4502D0A268002AC1D1B8F1B8
:1024F000000F02D1B9F1000FDAD00022BAE7A168CB
:102500000029C0D00D680029BDD04F68334652461F
:102510002046B8471DB12B6829461D46F3E72B46D8
:10252000FAE74146334652462046D8F800800AF082
:10253000B6F8A8E79A067FF523AF23F0200222839E
:1025400003F0070527E700BFCBC600002DE9F047E1
:10255000DFF85480044607464FF0010994FAA4F5C9
:10256000B5FA85F509FA05F32E0108EB05156FEAB2
:10257000030A24EA03042B7B63B158F806301B6975
:102580006BB94644042273682846196807EA0A07AB
:102590000AF029FA002CE1D13846BDE8F087284638
:1025A00098470028F6D1ECE730EA000010B50F4953
:1025B0000F4888B000220BF001FF00220023CDE974
:1025C000062300240E23CDE90334CDE90144094B51
:1025D000094900944FF44072084808F081F908490D
:1025E000064808F0F7F8204608B010BD05260000A0
:1025F000F00C002035290000C02D002038080020F4
:1026000046F00000014807F0E7BE00BF20040020AC
:102610002DE9F047804621480F460AF0C4F90646E6
:10262000002833D000252846BDE8F087237B83B1FE
:102630002368DB680BB120469847636883F80690EF
:1026400023681B69D3B963680422196820460AF01D
:10265000CAF9013610345445E8D3B8F1000FE2D07E
:10266000002DDFD02846FFF771FF0546002FF7D079
:1026700000214FF4A4700BF0F3FDF1E720469847DA
:102680000028E0D009FA06F31D43E2E7044CDFF826
:1026900014A005464FF00109DDE700BF2812002015
:1026A00030EA000040EA0000014B53F82000704778
:1026B00044EB000008B5034608462BB1044A1360FA
:1026C00000F044FC002008BD6FF01500FBE700BFE0
:1026D000D000002010B5044C237813B9034807F04C
:1026E0007BFE0123237010BD9626002020040020CD
:1026F00010B504460B480AF056F95CB1BFF35B8F86
:10270000094B53E8001F013943E80012002AF8D1B1
:10271000BFF35B8F054808F0C5FE0548BDE81040D3
:1027200007F05ABE2012002024120020F00C0020D6
:1027300020040020064BBFF35B8F002253E8000FFC
:1027400043E800210029F9D1BFF35B8F704700BF38
:102750002012002070B5FFF7EDFF084C084E05462B
:10276000B44200D370BD63685B792BB123685B68AA
:1027700013B12946204698471034F1E730EA0000AB
:1027800040EA000010B5044C0449204609F0D5FD8C
:10279000034B1C6010BD00BF1C03002030EB000089
:1027A000181200200D4A0E48002310B513700D4A70
:1027B00013600D4A4FF400411360FFF77BFFFFF7F2
:1027C000E1FF0A4B0A4918468B4200D310BD1A1A82
:1027D0005C681211013222711033F5E79726002050
:1027E000A3C90000201200202412002030EA0000BB
:1027F00040EA0000014600220148002309F0BEBD66
:102800001C030020014809F055BE00BF1C03002036
:10281000024B0146186809F0A8BE00BF181200203C
:10282000014809F0DDBE00BF1C03002070B52A4B33
:102830001B78002B4ED0FFF7E5FF0446002846D159
:10284000264B274D1B68002B19DD0BF0B5FD4FF40F
:102850007A76A0FB063206FB0121D5E90020DB0BCE
:1028600043EA41439B1A4FEAD13140F2E93261EB2E
:102870000001934271F1000101D3FFF76BFFD5E92D
:10288000003213F57A7342F10002C5E900320CB34D
:10289000BDE87040FFF7C4BF6B685B7923B12B685C
:1028A00021461B68284698471035B542F4D3204688
:1028B000FFF7AEFFBFF35B8F0A4B53E8001F0139F0
:1028C00043E80012002AF8D1BFF35B8FB8E7064D4A
:1028D000064EEAE7002070BD962600202012002058
:1028E000E80C00202412002030EA000040EA00003A
:1028F00070B50D4D297861B90120FFF789FE0B4CA9
:102900000B4EB44206D3FFF791FF0028FBD1012301
:102910002B7070BD63685B791BB1236820469B6890
:1029200098471034EDE700BF9726002030EA0000FA
:1029300040EA000000212DE9F8430846FFF768FE51
:10294000044648B340F267684FF0000902F0C0FA4D
:102950001A4B1B4A1B58136033B11A4B1B68092BC7
:1029600002DD194807F038FD184F002544B1204614
:10297000FFF7ECFD044618B94FF0FF384FF0FF3970
:10298000FFF754FF064628B9B5B90F4842464B46F3
:1029900007F056FD3546E9E74FF0FF384FF0FF39B5
:1029A000D4E72B689B691BB1002211462846984743
:1029B0001035BD42F5D3E8E7054DFAE70800000001
:1029C0001C120020241200202004002040EA0000F5
:1029D00030EA000013B5184809F0E5FF174B1B78E3
:1029E00073B1EFF31184402383F31288BFF36F8F29
:1029F000FFF71CFF84F31188BFF36F8F02B010BD87
:102A00000F4B1B68002BF9D050B900220023CDE9F1
:102A100000230C484FF40042002308F00BFDEDE7C3
:102A20000928EBD1074808F03DFD074802B0BDE892
:102A3000104007F0D1BC00BF2412002097260020D0
:102A40001C120020F00C00202004002010B5064BC2
:102A50001B68044698472146A060044809F00BFD16
:102A6000BDE81040FFF7B6BFD00000201C030020D7
:102A7000044A054B9B1AB1EBD30F34BF52F8310017
:102A80000020704780E9000030EA00002DE9F04F97
:102A90008FB004AFC1F34A26B8600D4690467B6004
:102AA0000C0D002E61D04FF000090A234FF0040BEB
:102AB00007F1140AFE60C7E90799C7F8249000934C
:102AC000CDF808B0CDF804A007F11C03F9684A4618
:102AD0004046FFF743FAB0F5006F03461CD36C463F
:102AE0008AB0D8F8041004AB2448C3E9050140F2C9
:102AF000FF71D9611A464FF400711984204B42F8D6
:102B0000103F20484B464FF41251FFF7BFFFA54638
:102B10002C37BD46BDE8F08FC0F30A0604F117005C
:102B2000184420F0070080083B60FFF763FE66F35F
:102B30005325044680B13B68134A00F11001C7E9F0
:102B40000839F961CDE901AB0A230093F96807F16F
:102B50001C034046FFF702FA66F353257B68B96809
:102B60002A46204609F05FFFD2E704F1170020F063
:102B700007008008FFF73EFE0446EDE75BF000002B
:102B800004000001B0E90000F9C900002DE9F04F90
:102B900087B0DDE9127ADDE9106B054688461446F8
:102BA0009946BFB11021CDF800A03B465A460020FF
:102BB000CDF814A0FFF71EF8B0F5006F01460BD357
:102BC000194A1A4840F2FF73022107B0BDE8F04FDE
:102BD00009F082BF3946384604F0070305F00704C0
:102BE000E40044EA831444EA402444EA065406F12B
:102BF0001700084420F0070080080391FFF7FAFD52
:102C0000054640B13FB10399CDF800A03B465A4676
:102C10001030FEF7EFFF4B4622464146284607B0EC
:102C2000BDE8F04F09F0FFBE9AF00000B0E90000E7
:102C3000406820B1034BC01A40F3CF0070474FF0FB
:102C4000FF30704780E900000EB403B503AB0146C6
:102C500053F8042B0448019302F0C2FA02B05DF865
:102C600004EB03B0704700BF3BCB0000CA0605D49D
:102C70008B064CBF02490349FFF7E6BF704700BF10
:102C8000D3F00000D2F000002DE9F04F89B0984653
:102C9000159B0693DDE916A39DF85090189F0592A9
:102CA00004460D460493B9F1000F00F0B08007F41C
:102CB0008073079309F095FE07F0020B0246002887
:102CC00074D078492046FFF7BFFF0646BBF1000FDE
:102CD00008D017F0440F6BD173492A462046FFF7FE
:102CE000B3FF064407F0010353B1704B704953F82A
:102CF0002920704B2046002A08BF1A46FFF7A4FF80
:102D000007F48073002B07F0080318BF4FF000088A
:102D1000002B79D0684B694953F829202046FFF7EA
:102D200093FF0546059B2BB165491A462046FFF7E0
:102D30008BFF0544B8F1000F05D06249424620469A
:102D4000FFF782FF054460483544069B1BB15F498D
:102D5000224609F095F9049B002B00F08E80DDF8E7
:102D600010803946B8F1100F204628BF4FF01008E8
:102D7000FFF77CFF0026B54250DC002633461AF8E8
:102D8000032053492046FFF75FFF0136102E4BD03A
:102D9000710703D14F492046FFF756FF464533469A
:102DA000EDD34D492046FFF74FFFEEE706468DE78E
:102DB0004A4B1868002894D0494B4FF47A7B1B6823
:102DC000B5FBF3F54FF46163B5FBF0F100FB115572
:102DD0000BFB05F54FF03C0CB1FBF3F203FB1211BA
:102DE000B5FBF0FEB1FBFCF300FB1E550CFB131111
:102DF0000BFB05F50091B5FBF0F53A49CDE901E58E
:102E00002046FFF721FF6CE707F008058AE7B8F1D5
:102E1000010F0CBF2C4834484D4696E72D492046FB
:102E2000FFF712FF0136A6E7304920460026FFF7DC
:102E30000BFF33461AF803202D49A2F120035F2B24
:102E400028BF2E222046FFF7FFFE0136102E0DD0A0
:102E5000720703D11F492046FFF7F6FEB0453346FF
:102E6000E8D81C492046FFF7EFFEEEE7049BB3EBE2
:102E70000803C24404937FF472AFB9F1000F0AD083
:102E8000FB0704D50B4A0A492046FFF7DDFE394609
:102E90002046FFF7EBFE204609B0BDE8F04F09F0F1
:102EA0003FBE00BFDAF00000DEF0000054EB00008F
:102EB00003F10000D5F0000068EB000006F100000F
:102EC0000CF1000010F100003BCB0000E1510000CC
:102ED00015F100001DF100001BF100003012002070
:102EE0002C120020E7F0000071CB00001FF1000061
:102EF00021F1000073B542F20F738B4228BF0B46DD
:102F000005680F4A04460521684608F0FBFC636823
:102F10000C495B6806460B22284609F0F3FD6368FE
:102F20003246694628465B6809F0ECFD636806494D
:102F30005B681B22284609F0E5FD02B070BD00BFAA
:102F400029000100DB010100BF010100074A002147
:102F50000123904206D8064A01B901231360054BAC
:102F60001860704740085B000121F2E740420F0003
:102F70002C12002030120020F8B5074F0D460446F1
:102F80004618B44201D12846F8BD14F8011BBB68AD
:102F900001485B689847F4E780E60000014B036056
:102FA00000207047B0EB0000F0B40D4B0D4E5F6A8F
:102FB0000D4BB34203D36FF08500F0BC70475C68E3
:102FC000BC420AD31D6945B194F802C08488E4B2BA
:102FD000A44502D12B46F0BC18472433E9E700BFD3
:102FE00058120020540500200C0500202DE9F04760
:102FF000144CDFF85480DFF8549005460E4617460F
:10300000444503D36FF08500BDE8F0876268D9F8C6
:1030100024309A4213D3A3698BB1A9889078C9B29E
:10302000884205D13A4631462846BDE8F047184760
:103030005279012A03D13A4631462846984724342A
:10304000DEE700BF0C0500205405002058120020C8
:103050002DE9F0410B4CDFF8308005460E4617464F
:10306000444502D36FF0850009E063690BB924344D
:10307000F6E73A463146284698470028F7D1BDE89A
:10308000F08100BF0C05002054050020024B0022F7
:103090001A605A60704700BF1313002070B50B4BC5
:1030A0000B4CA34201D3002070BD196A1E7F002281
:1030B0000439D5B2AE4201D82433F2E7013211F817
:1030C00032508542F5D10120EEE700BF0C0500200B
:1030D0005405002073B58488E4B263060D468DF86C
:1030E000074007D02046FFF7D9FFB0B1144B93F843
:1030F000BA0090B1124E95B1124A134823460321EB
:1031000009F0B3FD9DF8070002F03AFFF3691BB127
:103110000DF1070108209847012002B070BD0B4A4D
:1031200009482346032109F0A0FD9DF8070002F09D
:1031300059FFF369002BEFD00DF107010920EAE7F1
:10314000581200205EF1000010EA000071F100004A
:1031500008B50346034A0448012109F086FD002012
:1031600008BD00BF86F1000010EA000038B5054632
:1031700009F0D0FE10F1780F044611D10D4A0E4827
:103180002B46022109F071FD284609F070FD0B4A1B
:10319000D2F8C43023EA0003C2F8C430002407E0A8
:1031A0000028F1D0064A04482B46012109F05DFDB4
:1031B000204638BDA1F1000010EA0000581200209E
:1031C000C2F1000008B509480378C3F341130A337C
:1031D00050F823303BB100F1080200F1100198478C
:1031E000C043C00F08BD1846FCE700BF58120020BE
:1031F00004282DE9F74FDFF89C9004460F4615D0C0
:1032000001282FD1DFF8908098F8B93053B300F03F
:1032100085FE224D4D4522D22A6A4FF0000A2B7FAF
:103220005FFA8AF6B34204D82435F3E7FFF72EFF9E
:10323000E8E702EBC6060192307909F06BFE83469F
:10324000307909F014FDD8F8C430019A23EA00035C
:10325000BBF1000FC8F8C4300AF1010ADFDA00231D
:1032600088F8B9300D4D4D4508D30B4B1B6A6BB137
:103270003946204603B0BDE8F04F1847EB681BB154
:103280003A462146284698472435ECE703B0BDE886
:10329000F08F00BF54050020581200200C050020BC
:1032A00073B5044680788DF8000023796279294D42
:1032B00043EA0223ADF80230E37803F003038DF80C
:1032C000043009F0D4FCD5F8C430184206460CD0BE
:1032D000A478204600F004FE2046FFF747FF0AF0DE
:1032E000FBFE10B9962007F077FD684602F01CFE41
:1032F00010F1780F9DF800301BD1174A17480221B2
:1033000009F0B3FC9DF8000002F0A8FE10F1780F60
:1033100019D19DF80030124A1048022109F0A5FC8D
:10332000D5F8C4300120334385F8B900C5F8C4305E
:1033300007E00028E6D00B4A0848012109F095FC77
:10334000002002B070BD0028EAD09DF80030064A87
:10335000F2E700BF58120020E4F1000010EA00007C
:103360002BF2000007F200004BF200002DE9F047BD
:10337000A64DAB6904460E46174663B9207800F0A7
:103380001F00012878D0022800F0DF8040B16FF0E4
:103390001500BDE8F08798470028EFD10020F8E736
:1033A00094F900206378002A28DA062B09D0082B2C
:1033B0003A681ED0002BEAD1537001231370022308
:1033C000FEE06388190A0A1F012A8C46DFD9072903
:1033D000DDD8DAB26B6A1C78002CD8D05D786545F0
:1033E00003D1824200F0E78001302344F3E71B78E9
:1033F000E6E095F8BA3013700123E1E0052B16D012
:10340000092BC4D1638833B1FF276E6AB84633787D
:10341000A3B90028BBD0FFF739FE638885F8BA301E
:10342000EB69002BBAD07A4903209847B6E7608849
:10343000C0B202F039FD0028B0D0A8E77378042BA1
:103440000DD0052B0ED0022B06D177796388BB42B5
:1034500008BF40F00100C0B233781E44D7E796F8A9
:103460000380F9E76388BB42F6D1B8F1000FF3D1CE
:103470003046FFF715FFEFE795F8BA30002B86D0FE
:10348000A188D5F824805FFA81FC43461A78002A87
:103490003FF47DAF5878022804D193F804E0E64564
:1034A00000F290801344F1E713705370306075E7B9
:1034B000984494E00B2B7FF46AAF0026FF27B946AF
:1034C000B24608E098F80130042B11D0052B21D02A
:1034D00098F80030984498F80030002BF2D1EB694E
:1034E00013B1514607209847002E7FF457AF4EE79F
:1034F00098F80270A38898F803909F42E8D16388F7
:103500009945E5D1072F1DD8EB19C24683F8BB902A
:103510000126DDE7A388BB42DAD16388DBB24B45E5
:103520000BD098F80260304600F0DAFC3046FFF726
:103530001DFEB0FA80F67609CAE74046FFF7B0FEF6
:103540000646C5E7C2460026C2E794F90020637824
:10355000002A1ADA002B7FF41AAFA3885FFA83F8E7
:103560005B060AD04046FFF799FD00283FF40FAFF5
:1035700095F8BA30002B3FF40AAF3C68404621462C
:1035800002F050FD0023637019E7012B08D0032BD4
:103590007FF4FDAE6388002B7FF4F9AE012103E0D8
:1035A000618800297FF4F3AE2046FFF793FD0028E1
:1035B0007FF4F4AEEBE602293B607FF418AF5B8842
:1035C0003360EBE694F900206378002ABFF672AF0F
:1035D0003A68002B3FF468AF0A2B7FF4D8AE98F816
:1035E0000030002B3FF4D3AE98F8010004287FF49C
:1035F0005FAF98F8020081427FF45AAF072996BF67
:103600004919002391F8BB30F5E600BF581200209D
:10361000121300202DE9F84305460F4690469946BF
:1036200004264B4642463946284602F041FD10F139
:103630000B0F044609D1064A06482B46022109F021
:1036400014FB07F04BFB013EEBD12046BDE8F883AD
:103650006CF2000010EA000013B5164C237DF3B99C
:10366000E268A168019201AB8020FFF7D3FF019AC5
:10367000A3681344A360E3689B1AE3606BB962B16B
:103680002369E2889A4208DD94F8C82093FBF2F19E
:1036900002FB11330BB90123237502B010BD0023C7
:1036A0001A4619468020237502B0BDE8104002F08A
:1036B000FFBC00BF581200207FB500230D460193C8
:1036C0000646002862D100293AD108220B460DEBAC
:1036D000020109F038FC002804DA802002F050FCD6
:1036E00004B070BD2E4C029A2260039A626004F10D
:1036F0003802A2609DF90820BDF80E302575002A19
:10370000C4E903550FDB802B09D9264A264801213D
:1037100009F0D9F9802002F033FC2846DEE713B126
:10372000C4E90333DCE7FFF74DFD0028D5D0E2887C
:1037300023699A42D4BFE260E360FFF78DFFCFE7D1
:10374000174CD4E90212002A01AB05DC024609F04D
:10375000FAFB0028C4DAC0E709F0F5FB002804DA18
:10376000802002F00DFC3046B8E7019AA3681344AC
:10377000A360E3689B1AE360002BB1D104F1380326
:10378000A360FFF71FFD0028D7D1A6E78028A7D1A7
:10379000034BDA68002AD0D11B7D002BCDD19FE7E7
:1037A0005812002093F2000010EA0000054B064A70
:1037B0009A62064ADA62064A1A63064A58629A61AF
:1037C00000207047581200206D330000A92F000020
:1037D00051300000ED2F00002DE9F34104464C4D1F
:1037E0004C484FF0FF334FF0FF3206F001FD95F8E3
:1037F000B8306BB1484A4948022109F064F96FF0CA
:103800007704444806F066FD204602B0BDE8F0812A
:103810006E6A6EB900F0D4F8FFF7C8FF6E6A3EB961
:103820003F4A3E48012109F04EF94FF0FF34E8E7E6
:103830003C482C62E86102F077FD02F007FB041EB1
:10384000DFDB00F08DFB041EDBDB7378012B01D185
:10385000F3793BB9344A3148012109F034F96FF06A
:103860001504CEE70026684685F8C830ADF802306A
:103870008DF804608DF8006002F056FB041EC0DB7A
:10388000802768468DF8007002F04EFB041EB8DBFE
:103890002649304602F034FD041EB2DB2349384687
:1038A00002F02EFD041EACDB214CDFF8888044457D
:1038B0001AD3002002F0D2FB041EA2DBD5F8C430DC
:1038C000802043F00103C5F8C43002F0C7FB041E9A
:1038D00097DBD5F8C43043F48033C5F8C4300123F6
:1038E00085F8B83000248CE7276A0026227FF3B2DF
:1038F0009A4201D82434DAE707EBC30257F83310B1
:10390000107902F0FDFC01360028EFD08DE700BFF2
:1039100058120020C4030020ACF2000010EA00009E
:10392000CFF20000F1310000F4F20000B9360000DF
:103930000C0500205405002030B51F4B8BB005AAA4
:1039400003F1100518685968144603C40833AB42E4
:103950002246F7D11B78237001AC102200212046AB
:103960000AF072FD1222002114480AF06DFD1021A8
:10397000204609F02DFC00281ADD0828B8BF0820D1
:1039800009380E4A0444002114F8013F0AA800EB4C
:10399000131003F00F0328336B44013110F8140C9B
:1039A00013F8143C10700829537002F10202EBD195
:1039B00002480BB030BD00BF2EF300009A26002055
:1039C0002DE9F04F884B87B093F800A000AFBAF113
:1039D000000F04D085481C37BD46BDE8F08F834CEE
:1039E00000264FF00119FE603546B04623783BB9FA
:1039F0007F4B02349C42F3D17B4A01231370E9E7E9
:103A00006378052B05D8DFE803F0AE0703AE1E4F41
:103A1000A04623781C44E9E7402307F1100087F80B
:103A200010A07B8287F814A002F050FA40B108235E
:103A300007F110007B8202F049FA08B1A7F812A042
:103A40007B8AE371E5E7E378002BE2D1A37813B337
:103A5000FB680133DBB2FB60DBE76B689C421CD088
:103A60002435644B9D42F8D36D4688B06A46624B5C
:103A7000CDE90534032342F8103F604800234FF49A
:103A8000C251FFF703F8AD465C485D4A012109F0D9
:103A90001AF800209FE75B4DE3E7AB68002BD7D017
:103AA000F96820469847D3E7002D5AD1564A534823
:103AB000012109F008F8E7E72B6AA07803EBC201BF
:103AC0000B79984247D14FF0010BE07894F805C08C
:103AD00000F003003875207940EA0C20788294F9D0
:103AE000020000285FFA8BF328DA0BF110004FF088
:103AF000010C0CFA00F010EA090F27D143F0800006
:103B0000387407F11000C7E90031BA6002F0DEF93D
:103B1000D7E901123B68C8B93A7CA27012F0800F55
:103B200018BF10330A7118BFDBB24FF0010214BF87
:103B30009A4002FA0BF249EA02096AE7012000FA08
:103B40000BF010EA090F01D11846D9E70BF1010B70
:103B5000BBF1100FB9D101322B7F9A42ACD32B4A63
:103B6000A5E70022F8E7032E24D1FFF7E5FE834600
:103B7000A0B1FDF746FC034680B1102806D0B8601E
:103B8000234A1E48022108F09EFFBB68102BA8BFE5
:103B900010231A465946A01C0AF048FC23786FF0FF
:103BA00002011A19091B04EB5303D14209D501364E
:103BB000F6B22EE7002EF1D1B8F1000F08D1154A68
:103BC00075E702F801AC13F8010902F8020DECE701
:103BD000A4EB080388F80230C3F3072388F8033006
:103BE000FB6888F80430E2E79926002040040020B2
:103BF0000C050020540500203FF3000008EA0000F7
:103C000025F400000C0500205FF30000A0F3000085
:103C1000BDF3000008F4000010B5094B00211A465E
:103C20001C78844204D15C6814B102EB811010BD91
:103C30000131042903F14003F2D10020F7E700BF6E
:103C4000241300202DE9FF4150F8283C10F82C6C7B
:103C5000103304460AD1036950F8202C98073DD54B
:103C6000D2B9590715D5002344F8283C54F8283C0C
:103C700010330BD054E9077554F8148C0AF02CFA61
:103C8000002857D0324821460AF00AFA04B0BDE8AD
:103C9000F08143F00403236103AB54F8241C304645
:103CA000FFF7B8FC034640B12A4A2B480096012191
:103CB00008F01CFF6FF01503D6E7039A54F8243C74
:103CC000134444F8243C54F8203C9B1A44F8203C0C
:103CD00054F81C3C134444F81C3CC7E703AB54F8AD
:103CE000241C304602F068FA03460028DCD1039D0C
:103CF00054F8243C2B4444F8243C54F8203C5B1BEF
:103D000044F8203C54F81C3C2B4444F81C3C002D47
:103D1000A9D0304602F00EFBB5FBF0F303FB1055C3
:103D2000002DA0D154F8203C002B9CD0304602F04E
:103D300099FA9BE744F8180CA4F1100006F04CFB2C
:103D4000002DA3D0424639463046A8479EE700BF23
:103D5000280D002053F4000028EA00004B1E012B20
:103D600073B506460D4614D8FFF756FF044690B9C2
:103D7000012D0ED101AB01220DF10301304602F0FD
:103D80001BFA019B002BF5D10C4A0D48012108F0CC
:103D90009AFE02B070BD0AF09FF904F12C0108B13F
:103DA000012D05D1084602B0BDE87040FFF74ABFBB
:103DB000044802B0BDE870400AF072B970F4000027
:103DC00028EA0000280D00202DE9F74F0546019153
:103DD0001646984608F08CFF002871D1EFF3118346
:103DE0004022009382F31288BFF36F8FDFF8D890E0
:103DF000834600220023484606F022FBA0B9DFF8E4
:103E0000CCA04FEA8B170AEB8B1BDBF8044014F1B4
:103E1000100F20D12E4A2F482B46012108F05CFEBE
:103E2000484606F0D9FA0DE00BF1010BBBF1040F87
:103E300009F14009DDD1284A2648012108F043FE56
:103E40006FF00B04009B83F31188BFF36F8F204644
:103E500003B0BDE8F08F0C99019BCBF814100D99BD
:103E6000CBF81000CBF8181028466FF00F01CBE903
:103E700002360AF80750CBF83C80CBF8041002F069
:103E800059FA68B1284602F055FAB6FBF0F101FB89
:103E900010662EB1DBF83C1041F00401CBF83C1069
:103EA00018F0020F07D007F12C010C4851440AF01A
:103EB000F7F80024C6E7284602F0D4F90446C1E723
:103EC0006FF00F04C3E700BF40130020241300204D
:103ED000A5F4000028EA00008AF40000280D002064
:103EE00010B5EFF31184402383F31288BFF36F8F73
:103EF000FFF792FE50B14368103307D16FF08B0388
:103F0000436000F12C0104480AF0CAF884F31188D8
:103F1000BFF36F8F10BD00BF280D0020F8B50E4C09
:103F200004254027EFF3118687F31288BFF36F8FC4
:103F30006368103307D16FF08B030848636004F1A6
:103F40002C010AF0ADF886F31188BFF36F8F013DA5
:103F500004F14004E6D1F8BD24130020280D002010
:103F600038B5094C0025094920460AF07DF80122A0
:103F7000A4F11000114601350AF031F8042D04F1C6
:103F80004004F0D1002038BD50130020453C000013
:103F90000169012381F84B300B6833B191F8493046
:103FA0001BB1024808310AF07BB87047280D002089
:103FB0000169012381F84A300B6833B191F8483028
:103FC0001BB1024808310AF06BB87047280D002079
:103FD00070B50569EFF31186402383F31288BFF3B0
:103FE0006F8FD5F8900008F087FC044686F311889F
:103FF000BFF36F8F30B104480022002305F1180190
:1040000006F0BEFB204670BD280D002070B50123D0
:1040100082F8483013680D4614463BB192F84A3096
:1040200023B10E4802F108010AF03AF8D4F89030B2
:10403000DA885B899A4205D17DB904F1180140F60E
:10404000CD4204E004F11801002DF8D00022BDE8B3
:1040500070400248002306F093BB70BD280D00207D
:1040600070B50E4681880446C9B21548154608F059
:104070001BFE10B394F900206378002A16DB202B76
:1040800004D0222B0ED06FF085000AE02B681A684E
:1040900040F8102C9A8820F80C2C9B7900F80A3CE8
:1040A000002070BD638800F8093CF9E7212BEAD1B4
:1040B0001038072328603360F2E76FF01200F0E752
:1040C0002814002008B50146034808F0FBFD10B194
:1040D000012300F8073C08BD281400200D4A0346C0
:1040E0000021A0F848101068C3F8940090889279D5
:1040F000A3F8980083F89A2083F89C1083F89B100B
:10410000A3F89E1083F8A010402203F14C000AF09F
:104110009BB900BF04EB000010B504690023C4F88C
:10412000A8300C4BC4F8A400596804F1A80269B97E
:10413000C3E9002204F10800074909F095FF04F1E2
:104140001800064909F0BCFF002010BD0A605A6043
:10415000F0E700BF281400201BCD0000E54100005F
:1041600073B504698DF80710002384F848304025A2
:10417000EFF3118685F31288BFF36F8F0122D4F815
:1041800090000DF1070108F0B7FB86F31188BFF32B
:104190006F8F012810D009F09FFFB0B10F4BBFF314
:1041A0005B8F012253E8001F002903D143E8002060
:1041B0000028F7D1BFF35B8F2122002304F11801FF
:1041C000074806F0DDFA02B070BD94F8A130002B6C
:1041D000E4D0002121200AF043F8C9E7241400208C
:1041E000280D0020F0B5D0F88C305B681B6A1F7D6D
:1041F00085B00546384608F07BFD064650BB95F86D
:1042000086303BB3A86F0146C38831F80A2F9B1A4A
:104210009BB2B3F5806F28BF4FF4806303AA08F008
:104220001CFB0446B0B18306A5F1180308BF00F1DA
:10423000FF3485F830600193074B039900932246C1
:1042400002233846FFF7C0FDA86F224600F10A019D
:1042500008F039FB05B0F0BD0D40000037B514463D
:104260000A1E054621DDD4F88C0004F14C0108F04B
:1042700043FB012384F8493023683BB194F84B3069
:1042800023B1114804F1080109F00AFFD4F88C2089
:104290009388918912695B1A9BB2D31A3F2B04D879
:1042A000012384F8A03003B030BD94F89E30002B79
:1042B000F9D0064B009301940123402204F14C01F4
:1042C0002846FFF781FDEEE7280D00205D42000043
:1042D00073B50D4601461D4808F0DAFC044610B3DC
:1042E000691EA0F1A40605291DD8DFE801F01E1CF7
:1042F000031E242810F8061CA9B903685D68012371
:1043000000F8063C2B6A3246187BFFF7A7FF14F82B
:104310005C2C42B92B6A187D0D4B00930196022349
:104320001146FFF751FD02B070BD304602B0BDE846
:104330007040FFF7D3BE012304F8053CF3E710F803
:10434000053C002BEFD00023F6E700BF2814002027
:104350000D40000013B500240749084800944FF0B1
:10436000FF334FF4806206F0CBF90549034806F0AD
:1043700031FA204602B010BD00310020280D002087
:10438000EEF4000008B5044807F0CAFE034807F041
:10439000C7FE002008BD00BFFDF4000032F500009C
:1043A000014807F04FB900BFB0EB000038B5044634
:1043B00018B90F4B0F485B6898476168B1F5683FC3
:1043C00010D0B1F5680F0DD00B4DA9420AD011F4F1
:1043D0006861206807D00146084809F00EFD0023F7
:1043E0002360656038BD14220AF02EF8F9E700BF9B
:1043F0008C0200205FF500002C5F5CA930190020C2
:1044000008B520B34368B3F5683F10D101220368B3
:10441000BFF35B8F53E8001F002903D143E800205E
:104420000028F7D1BFF35B8F0DD1002008BD094AEA
:1044300093420AD000684FF0FF324FF0FF3305F08F
:10444000D7FE0028F1D00448F0E70448EEE76FF407
:10445000E040EBE72C5F5CA9E98FFFFFEA8FFFFFED
:1044600008B5D8B14368B3F5683F10D1002203689E
:10447000BFF35B8F53E8001F012903D143E80020FD
:104480000028F7D1BFF35B8F0BD1002008BD074A8E
:10449000934208D0006805F01DFFF6E76FF4E04096
:1044A000F4E70348F2E70348F0E700BF2C5F5CA99C
:1044B000E98FFFFFEA8FFFFF10B5044618B91D4BC7
:1044C0001D485B6898476368B3F5683F2FD0B3F524
:1044D000680F2CD0194A934219D1236803BB18489E
:1044E0004FF0FF324FF0FF33214605F089FD08B948
:1044F00023681BB90F4B13485B6898472068142248
:10450000002109F0A1FF4FF46863636008E0B3F590
:10451000680F0DD83A2B03D040F6BA629342DED131
:10452000206809F0C9FC636843F03A03636010BD7A
:10453000054AF3E78C0200205FF500002C5F5CA9C0
:104540003019002085F500003A00003A08B5064908
:1045500006484023142209F043FCBDE80840044902
:10456000044807F0E1B800BF3014002030190020E3
:10457000B8EB0000CCEB000008B50348034A00216B
:10458000121A08F046FC08BD5805002080290020BA
:104590000748084A084908B5121A08F03CFC0748C1
:1045A000074A0849BDE80840121A08F034BC00BFA9
:1045B00000000020540500200C0201000000002033
:1045C000000000200C0201002DE9F047064600AF74
:1045D0000C46002936D0E9468AB0D1E90012A3681A
:1045E0006D462148E8464FF0050ACDE90501CDE9C1
:1045F000072348F810AF1D48424600234FF42151CD
:10460000FEF744FACD46D4E903126369AD46184873
:10461000C5F810A0C5E90501C5E907231348002323
:1046200042464FF42151FEF731FACD46E369114A73
:104630000E48012108F050FAA3690F4A0B480121E6
:1046400008F04AFA012E07D1EFF305830B4A074819
:10465000103B314608F040FA2146304605F028FB71
:10466000BD46BDE8F08700BFB2F50000D8E9000004
:10467000E1F5000010F600001FF600004DF6000006
:1046800030BFFFF7FDBF00BF2DE9F0410B4EDFF853
:10469000308006EB0807CC1B054632460949204608
:1046A00009F0C4FEA01942460021083C09F0CCFEE6
:1046B000C5F8A44007F10800BDE8F0810000000043
:1046C0000400000084EA000010B5204C2049214875
:1046D00008F0AEFBA36A990136D51E481E4908F0C2
:1046E000A7FB1E20A36ADA0104D51A481B4908F06B
:1046F0009FFB1F20154CA36A1B0304D515481849BE
:1047000008F096FB2120A36A590304D511481549E6
:1047100008F08EFB22200D4CA36A9A0304D50D48A5
:10472000114908F085FB2320A36ADB0304D509485F
:104730000E4908F07DFB2420044A936A6FEA034384
:104740006FEA1343936210BD1D20CBE700ED00E03C
:1047500060F60000D8E9000078F600008BF6000053
:10476000A5F60000C3F60000E8F6000002F700001E
:1047700070B506460D46284C2849294808F058FBD4
:10478000A36AD9043CD52648264908F051FB1720D6
:10479000A36A1A0504D52248234908F049FB1820CA
:1047A0001D4CA36A9B0512D51D48204908F040FB0B
:1047B000A36BA26A100409D51D4A1948012108F00B
:1047C0008BF91EB1A36A23F40043A3621920124C93
:1047D000A36A590504D51248164908F029FB1A2086
:1047E000A36ADA050ED50E48134908F021FB1B20F9
:1047F000094A936A43F47F43936200232B7070BD90
:104800001620C5E7A36A9B04F2D505480B4908F0BA
:104810000FFB1C20ECE700BF00ED00E02DF70000CF
:10482000D8E9000043F7000054F7000067F70000E4
:1048300080F7000095F70000B0F70000C8F700000F
:104840002DE9F843804689461746354D35493648A7
:1048500008F0EEFAAB6ADE0627D53449324808F094
:10486000E7FA1124AB6A1D0704D531492E4808F038
:10487000DFFA12242A4DAB6A980718D52D492A4829
:1048800008F0D6FA6E6BAB6A190646D52A4A264856
:104890003346012108F020F9B9F1000F03D0AB6ACB
:1048A00023F08003AB62132403E01024DAE76FF0F7
:1048B00015061B4DAB6ADA0704D520491A4808F0E3
:1048C000B7FA1424AB6A9B0604D51D49164808F0B4
:1048D000AFFA1524124B9A6AD50602D49A6A900749
:1048E0000AD55B68190507D54146304600F03CFA09
:1048F00010B180F309880224094B9A6A920642BFDC
:104900005A6A22F400525A629A6A42F0FF029A628C
:1049100000233B702046BDE8F8836FF01506C2E720
:1049200000ED00E0F7F70000D8E900000DF8000006
:1049300054F7000040F8000058F800006EF800003E
:10494000C8F700002DE9F041684B8AB0D3F8048025
:1049500000AF0446C8F30806002585F31188BFF3AD
:104960006F8F02F07F43B3F17F4F07D102F00C034A
:10497000082B12D15E495F4808F05AFA00252C46F0
:104980000023FB71F31E092B00F28F80DFE803F098
:104990000A8588818D8D8D8D8D8B10074CBF0C46BF
:1049A0000125EDE754495348504E08F041FA0023E1
:1049B000FB71F36A9A0705D550494E4808F038FA5A
:1049C00000232DE0F36A002B01DA4D49F5E7F36A85
:1049D0005B00F5D54B49474808F02AFA7369A2698C
:1049E00043F480737361BFF34F8FBFF36F8F32F85F
:1049F000023C726922F480727261BFF34F8FBFF381
:104A00006F8F03F47F42B2F55F4F2BD1DBB2022BE5
:104A100028D123683C4A3748012108F05DF8236813
:104A2000FA79DAB907F1080604F1200C2068616808
:104A3000324603C2083464451646F7D17A6A002D1F
:104A400050D0C2F3080121B96FEA52226FEA422224
:104A50007A6207F108011846FFF7B6FD2837BD4610
:104A6000BDE8F081214B9A6AD2B22AB1FA1D012128
:104A70002046FFF7E5FE0EE09A6A12F47F4F04D05D
:104A8000F91D0120FFF774FE05E09B6AB3F5803F36
:104A900096D3FFF719FE0346C2E7FA1D0021E7E7A8
:104AA000F91D0020EEE7194987E7194A194B18F458
:104AB000F87FE8468AB008BF13466A461649CDE932
:104AC00005134FF40073ADF82030103E134B0796DA
:104AD00042F8103F074800234FF41151FDF7D6FF6D
:104AE000C5466DE76FF30802B2E700BF00ED00E0D6
:104AF000BBF80000D8E90000E6F80000FDF800006F
:104B00001EF900002CF900004BF9000067F90000C5
:104B10008DF80000A2F800008BF9000004000001ED
:104B2000044B5A6942F010025A615A6922F0080295
:104B30005A61704700ED00E0EFF30880EFF3098160
:104B400001B57246FFF7FEFE01BD00BF002080F3F5
:104B50001488BFF36F8F114880F308880020104934
:104B6000087004F099FB00200E490860BFF34F8FD6
:104B700000F02EF8402080F311880B484FF40461B8
:104B8000401880F30988EFF314800221084380F372
:104B90001488BFF36F8F00F0B7F80000404B00207F
:104BA0007B29002094ED00E0803900200749D1F8EE
:104BB00090200023C2F307221846934200DB70477F
:104BC000C1F89830C1F8A0000133F6E700ED00E02D
:104BD00008B572B6002383F31388FFF7E7FF144B81
:104BE0004FF0FF32C3F88020C3F88420C3F8882038
:104BF000C3F88C20C3F89020C3F89420C3F8982001
:104C0000C3F89C20C3F88021C3F88421C3F888210D
:104C1000C3F88C21C3F89021C3F89421C3F89821DC
:104C2000C3F89C2162B6BFF34F8FBFF36F8F08BDEF
:104C300000E100E01EF0040F0CBFEFF30880EFF37B
:104C40000980816911F8021C0229FFD001B5724662
:104C500008F0E3F801BD00BF40B2002807DB044ABA
:104C60004109012300F01F00834042F821307047C2
:104C700000E100E040B200280CDB4309064900F0E7
:104C80001F0020330122824041F82320BFF34F8FC1
:104C9000BFF36F8F704700BF00E100E0054B420992
:104CA00000F01F0053F82220012303FA00F0104007
:104CB000704700BF00E100E040B2D30754BF0231AB
:104CC00000210028ACBF00F16040074A4FEA4113C1
:104CD000ACBF00F5614000F00F00DBB2B4BF13546D
:104CE00080F80033704700BF14ED00E0044B054A24
:104CF00023F07F039360BFF34F8FBFF36F8F704735
:104D00000010000000ED00E008B5FFF7EFFF074AD4
:104D1000D2F8883023F47003C2F88830FFF72CFCF7
:104D2000FFF736FC00F0B6F805F0ECF800ED00E017
:104D300042F8203C009B42F81C3C0A49019B42F887
:104D4000183C029B42F8143C21F001014FF08073A3
:104D500042F8043C42F8081C0023203A0265C0F8DF
:104D6000A8307047312300000A4A0346906878B1A2
:104D700013F1160FD0F8940005D0A0F14002934231
:104D800005D3834203D2814228BF00207047002010
:104D9000704700BFF025002008B515460C4A0D4BA2
:104DA0009060D0F8A4201A600E4600F0A3F82C46BC
:104DB00086F309880020044B9847204600210022F2
:104DC0000023024C2047000047CE000031230000A2
:104DD000F02500204C190020014B10221A61704769
:104DE00000ED00E0054B5A699B689A421FBF044AD8
:104DF000536843F080535360704700BFF025002094
:104E000000ED00E0084B9B6883420BD1EFF3058374
:104E100043B1064B5A6842F080525A605A6A22F4F3
:104E200000425A6205F0FCBFF025002000ED00E0D2
:104E300015498A684FF030001044EFF3098C80E880
:104E4000F01F402080F31288BFF36F8F0F4F4FF099
:104E500000664A698A603E60D2F8A4000C4C20606B
:104E6000D2F8A8000023C2F8A83080F3118804B556
:104E7000104600F03FF8BDE8044002F1300090E831
:104E8000F01F8CF309887047F025002004ED00E046
:104E90004C190020044800234021C2180133302B54
:104EA00082F80013F9D1704700E100E008B5EFF394
:104EB0000583064A103B02EBC30152F833004968F0
:104EC0008847BDE80840FFF78DBF00BFF0E600004F
:104ED00001480068704700004C190020024B034A4B
:104EE0000348012100F08CB80000042000000020DD
:104EF000DCEB0000D0F89430054A403B1360054BD2
:104F00004021C2E901131046012100F083B800BF1F
:104F10005019002000000B1508B503461048D0F8C2
:104F20009020C2F30722013A934207D90D480E4A56
:104F3000012107F0D1FD6FF0150008BDC0F89830D1
:104F40000A6822F01F021A4342F01002C0F89C20A7
:104F50008A6842F00102C0F8A0201846EDE700BFC1
:104F600000ED00E0C8E90000A2F90000F0B50E462F
:104F700085B01F4604460025B5420DDA606810B3BF
:104F800097B1431E18420AD0104A11482B460121FE
:104F900007F0A2FD6FF01502104605B0F0BD1F2806
:104FA000F2D921680B42EFD12368019307F06EFF1D
:104FB000A36801A90343D0B20393FFF7ADFF10F13B
:104FC000160FE7D0421C01350C34D5E7C8F90000B4
:104FD000C8E90000044B0522C3F89420BFF34F8FAB
:104FE000BFF36F8F704700BF00ED00E0BFF35F8F2E
:104FF000024B0022C3F89420704700BF00ED00E090
:1050000010B5034C01232278FFF7B0FF207010BDCC
:10501000AC26002008B50B4A00231278FFF7A6FF44
:1050200010F1160F07D0084A0021D2F89030C3F3D0
:105030000723984200DB08BDC2F89800C2F8A01010
:105040000130F2E7AC26002000ED00E02DE9F0434E
:105050005D485E49D0F890300C68C3F307239C424A
:1050600085B000F2AE80FFF7C1FF4968002294428C
:1050700001F10C011AD1564F564D3C706846FDF7B0
:105080008DFF554C554E81464FF00008C14520D14B
:105090003B784D490020D1F89020C2F3072293427B
:1050A000C0F28980FFF796FF002050E0C0F89820FA
:1050B00051F80C3C23F01F03134343F01003C0F8D6
:1050C0009C3051F8043C43F00103C0F8A030013299
:1050D000CDE7009800EB08114FEA081CCB6823408D
:1050E000B3F5000F49D00BD8B3F5001F32D0B3F59C
:1050F000800F37D0B3F5801F14D008F10108C5E741
:10510000B3F1007F42D0B3F1805F48D0B3F1807F2C
:10511000F3D150F80C3088684A6807F0B7FE40F0C9
:10512000887009E050F80C3088684A6807F0AEFED5
:1051300040F0885040F43020039001A93878CDE940
:105140000123FFF7E9FE002831DA6FF0150005B002
:10515000BDE8F08350F80C3088684A6807F096FE86
:105160003043E9E750F80C3088684A6807F08EFE53
:1051700040F0007040F40030DEE750F80C308868F2
:105180004A6807F083FE40F08270D5E750F80C3093
:1051900088684A6807F07AFE40F48020CCE750F82F
:1051A0000C3088684A6807F071FE2843C4E73B78F2
:1051B00001333B70A1E7C1F89830C1F8A00001337A
:1051C00069E74FF0FF30C2E700ED00E0E8EB0000D8
:1051D000AC260020000002110000F0FF00000811C2
:1051E000F0B587B007460E461446002110226846E7
:1051F0001D4609F029F902238DF802302A46054B95
:10520000019321466846CDE9047606F0A5FB07B078
:10521000F0BD00BFADCE000008B5024B1B6898473B
:10522000002008BD5C190020034B044A18609378E5
:1052300043F00203937070475C1900203C0100208A
:1052400008B50649064821F00701C1F1005202F5F0
:10525000802206F0D4FE002008BD00BF475B00207E
:10526000601900200C4B0122C3F840254FF0804309
:105270004FF08051C3F87825D1F83001082805D1C6
:10528000D1F83411022908BFC3F838260122C3F827
:1052900080250020704700BF00E0014048B1054B69
:1052A000054A1B68B3FBF2F35843044B43F0010378
:1052B000184770477802002040420F0010EB0000B2
:1052C00008B5054A054B136010463F23536004F0B0
:1052D000BFF8002008BD00BF6C190020FFFF0700C9
:1052E0004FF08043D3F84036DB072ED54FF0102324
:1052F000D3F8043303F00703072B26D1134A012305
:10530000C2F80435D2F80034002BFBD04FF0102146
:10531000D1F8043323F0070343F00403C1F8043346
:105320000023C2F80435094AD2F80034002BFBD020
:10533000BFF34F8F0649074BCA6802F4E06213437C
:10534000CB60BFF34F8F00BFFDE7704700E0014027
:1053500000ED00E00400FA050346024A024802217B
:1053600007F0BABB01FA000018EA000070B5044665
:105370000D4601460A4807F0A5FC20B92046BDE8C5
:105380007040FFF7E9BF022D08D150F8083C2BB15F
:105390001B691BB1BDE870400068184770BD00BFB5
:1053A0008C19002080B500AF88B06A46064BCDE965
:1053B0000530032342F8103F044800234FF4C45142
:1053C000FDF764FBBD4680BD27FA000018EA000027
:1053D00070B506460D460146314807F059FC0446B3
:1053E00020B93046BDE87040FFF7DCBF0A2D55D824
:1053F000DFE805F0060D2729323D445454543100AE
:10540000284A2948BDE87040032107F05EBD2648C0
:10541000264A032107F059FD002304F8033C04F851
:10542000023C14F8043C206801218B4204F8041C5F
:1054300011D054F8083C73B19B6863B1BDE870406B
:1054400018471B4ADDE71B4A1748032107F03DFDBB
:10545000012304F8033C70BD174A1348032107F0E9
:1054600034FD002304F8033C04F8023CF3E7134A3C
:105470000D48032107F029FD0123F5E7104A0A48EA
:10548000032107F022FD14F8023C002BE3D00D4A63
:105490000548032107F019FD0023E5E70A4AB0E7B4
:1054A0008C19002048FA000018EA000055FA0000A4
:1054B0006BFA00007CFA00008EFA0000A2FA0000ED
:1054C000B3FA0000C2FA0000CFFA00002DE9F04163
:1054D000904690F900200378002A04460D4603DB2D
:1054E0006FF01500BDE8F08103F01F03012BF7D129
:1054F0004378062BF4D1878846881648FFB2394690
:10550000360A07F0D1FB30B9134A14483B46022152
:1055100007F0E2FAE4E7212E04D0222E10D06FF03B
:105520008500DFE70368E1885B685B6813F8092F93
:10553000914294BF29602A60C8F800300020D1E76A
:10554000E38850F80C2C9A4294BF2A602B6050F8E4
:10555000103CF1E78C190020DDFA000018EA000089
:105560002DE9F0410F4681880546C9B23048904682
:1055700007F09AFB044648B9AB882E482E4A022110
:1055800007F0AAFA6FF01200BDE8F08195F900303B
:1055900000686E78002B1CDA022E08D0032E09D08A
:1055A000012E42D154F8083C0BB11C68ECB96FF0E5
:1055B0008500E9E76B882BB1204A1E48012107F0DE
:1055C00084FCF4E7043C0123C8F800403B60002061
:1055D000DAE70A2EEBD00B2E0ED0092E25D154F887
:1055E000083C002BE3D05C68E0E743463A46294696
:1055F000A446BDE8F04160476B88012B05D9104AED
:105600000C48012107F068FAD1E714F8042C9A42FB
:10561000DDD0D9B254F8083C04F8041C002BD6D0D5
:105620009B68002BD3D09847D1E7064A3346E7E77B
:105630008C19002018EA0000DDFA000004FB0000CD
:1056400030FB000017FB000010B50469C4E900122C
:10565000A36000236361064B2061596804F11402C2
:1056600011B9C3E9002210BD0A605A60FBE700BF10
:105670008C19002070B544680069457B3DB1807B82
:1056800028B9206ABDE870400079FDF7C3BF044A1D
:105690000448022107F019FC6FF00A0070BD00BF3A
:1056A00049FB000018EA000000F07F03082B42B21B
:1056B00004D010F0780F01D000207047002A00F0CD
:1056C0000F0300F0080004DA30B9054800EB43107E
:1056D000704718B90348F9E7034870470348704713
:1056E000E0190020001B0020E01A0020001C002010
:1056F0000149024808F0D4BCBC190020F80D002074
:105700000146014808F060BC300400200248002235
:10571000002304F02FBE00BF3004002013B5114851
:1057200000F07EFF0446C8B90F4804F0BBF90F48EB
:1057300004F0F6F90E490F4800944FF0FF334FF490
:10574000806204F0DDFF0C490A4805F043F80B497C
:105750000B4808F089FC204602B010BD6FF004042D
:10576000F9E700BF015D0000EA0101000CEC000058
:1057700040350020F80D00206AFB0000FD580000B5
:10578000BC19002010B50E49BFF35B8F002351E810
:10579000002F012A03D141E800300028F7D1BFF3E0
:1057A0005B8F0CD151F8044C1439204607F01CF8DB
:1057B000783004D12046BDE8104006F0F1BF10BD9E
:1057C000B419002038B5002464F07F00C0B2FFF7A0
:1057D0006BFF013407F085FB082CF5D10E4D00243A
:1057E000E0B2FFF761FF036903B90561013407F017
:1057F00078FB082C05F14005F2D1084807F071FB51
:10580000074BD3F87C2212B9064AC3F87C22BDE8C4
:105810003840054807F065BB24200020E01A00202E
:1058200094190020241C0020001C002008B5FFF75C
:105830006DFF20B14168024808F0DFFAF7E708BDC4
:105840005803002007B500231448002201A904F0E2
:10585000D7FBE8B1124A1348012107F055FBFFF7C7
:10586000E5FF0E480022002301A904F0C9FB30B176
:105870000D4A0C48012107F047FB00200AE001987F
:10588000042340600374FFF73BFFFFF731FFF4E7A9
:105890000198406003B05DF804FB00BF580300208E
:1058A00075FB000020EA000093FB00000346024A5B
:1058B0000248012107F010B9AFFB000020EA000008
:1058C000022810B511D80B4A145CFFF7BBFF80B15A
:1058D000002202740472FFF713FF074B93F8243081
:1058E0003BB1BDE81040FFF703BFBDE81040FFF734
:1058F000DDBF10BDE7010100941900202DE9FF4133
:10590000A04C8046FFF702FF074610B904B0BDE87F
:10591000F08194F825203B7C3AB9002B00F0978069
:105920007968994808F069FAECE7042B00F2728173
:10593000DFE813F08D00050012013A015B0118F851
:10594000043C33B9BB685B7A904A9148012107F067
:10595000C3F83B7BBD68032BE2D8DFE803F0023CD1
:1059600060656E698B4B002232607260D3F88014E0
:105970003170D3F884147170D3F88814D3F88C0480
:1059800041EA00217180D3F89014D3F8940441EADD
:105990000021B180D3F89814D3F89C3441EA032352
:1059A000F3800823EB60306871687B4B03C31146BA
:1059B0002B68687A984796F90030002B07DBF3884C
:1059C0009AB222B1A4F88C3201F076F9A8E700234C
:1059D000A4F88C32A4E76B7F002BA1D02B7F002B87
:1059E0009ED000266D486E774FF0FF324FF0FF33A8
:1059F0002E7707F08BFA6B6901936B68CDE902365D
:105A000001A9687A00F05EFE034620B1644A60484E
:105A1000012107F061F8614807F07AFA80E72B6806
:105A20000121687A98477BE7AB7A6BB9EB7F5BB96A
:105A30005A484FF0FF324FF0FF3307F067FA01F09A
:105A400041F9564807F064FA2B680221E9E73B7AEE
:105A5000042B3FF665AFDFE803F05B0325697500B3
:105A600000F09EFD054600287FF45AAF00F0D8FCF8
:105A7000BFF35B8F4B49012351E8002F002A03D16C
:105A800041E800300028F7D1BFF35B8F7FF448AFC7
:105A900041F8085C41F8105CE0696361143906F074
:105AA00034FE3DE7002565F07F00C0B2FFF7FCFD46
:105AB000037A13B1407A01F067FA0135082DF2D16B
:105AC00094F854311BB194F8550101F05DFA0025AA
:105AD000E8B2FFF7E9FD037A13B1407A01F054FA16
:105AE0000135082DF4D194F874321BB194F8750285
:105AF00001F04AFA002000F037FD012384F8253038
:105B00002368002B3FF40CAF00210220984707E7E1
:105B1000002584F8255001F09DF9FFF733FE236836
:105B2000002B3FF4FDAE29460420EFE7002A3FF4A6
:105B3000F7AE00F03FFD2368002B3FF4F1AE0021EB
:105B40000520E3E72368002B3FF4EAAE002A3FF488
:105B5000E7AE00210620D9E708F110054FF0FF332A
:105B60004FF0FF32284607F0D1F9FFF72BFE284609
:105B700007F0CEF958F8283C002B3FF4D1AE0021B5
:105B80000120C3E79419002058030020CAFB00003D
:105B900020EA00000070024098190020CC19002073
:105BA000F0FB0000B419002094F8743263B10125B1
:105BB00084F8895284F88852FFF744FE60B9184A85
:105BC0001848294607F0A0F958F8283C002B3FF464
:105BD000A7AE00210A2099E7134A05740573826075
:105BE000FFF78EFDFFF784FDEEE7104A0D48012117
:105BF00007F08AF908F04AF801F02CF900F006FCE9
:105C0000FFF714FEFFF7DEFD08F039F8084800F052
:105C100007FD85E6074A0348012106F05DFF7FE6A0
:105C200016FC000020EA0000001C00202AFC0000F6
:105C3000015D000041FC000073B58178064608460E
:105C4000FFF732FD0B06F47805461DD554B1032C41
:105C500006D0284A009128482346012106F046FF35
:105C600002B070BDFFF7EEFD03460028F8D0012218
:105C7000AC770274032202739D60FFF741FD02B00E
:105C8000BDE87040FFF734BD54B1012CE1D1FFF7FE
:105C9000D9FD03460028E3D06C7704740473EBE766
:105CA000FFF7D0FD0028DBD0B278144B12F0800F44
:105CB00002F0080111D041B1D3F8A836EB600123FE
:105CC0000374022303738560D7E702F00F021421E7
:105CD00001FB0233D3F80836F0E711B1D3F8A83747
:105CE000ECE702F00F02142101FB0233D3F808376E
:105CF000E4E700BF59FC000020EA00000070024009
:105D0000F0B514228BB0064600210DEB020008F01E
:105D10009BFB3378013B052B21D8DFE803F08B0395
:105D200014147B1603238DF81C300024FFF78AFD22
:105D30000346A0B1047400F10802DDE9070182E81E
:105D40000300184626E00423EDE7B1780846FFF784
:105D5000ABFC837A054623B1013B022B54D90BB02F
:105D6000F0BD0B06F4781CD54CB1032CF7D0324AA9
:105D7000009132482346012106F0B8FEEFE7FFF715
:105D800061FD03460028EAD00122AC7702740322A9
:105D900002739D60FFF7B4FC0BB0BDE8F040FFF765
:105DA000A7BC54B1012CE2D1FFF74CFD03460028FB
:105DB000D5D06C7704740473EBE7FFF743FD04461A
:105DC0000028CCD002230127037307748560B078C4
:105DD00005F10C0107F0E1F8034620B1184A174815
:105DE000394606F079FE174AE968B2F88C328B42E0
:105DF00006D95B1AA2F88C3200F05EFF2046C9E794
:105E00000023A2F88C32F9E730460BB0BDE8F04031
:105E1000FFF712BF03A800F02DFF9DF80D30052BF2
:105E200004D19DF80C3013F0600F98D0064B079307
:105E300001247BE7022479E759FC000020EA0000F6
:105E400085FC000094190020001B002038B5144C7C
:105E500094F824500DBB04F1380008F02DF82846C2
:105E600001F0E2F92A460121E0612720FEF724FF34
:105E700007F005FFFFF7A6FC012384F82430094B47
:105E80001B680BB1FFF734FC4FF08043D3F8383474
:105E9000DB0702D50020FFF713FD002038BD00BF4F
:105EA0009419002030040020074B93F824203AB1C5
:105EB00093F82530002B0CBF6FF0120000207047C4
:105EC0006FF01200704700BF9419002008B5024619
:105ED0000378127903F00F0042B930B10D4A012165
:105EE0000D4807F011F84FF0FF3008BD082801D920
:105EF0000A4AF4E7012A03F0080303D143B9084A28
:105F00000221EDE703F0FF00002BEED0054AF7E792
:105F10000020EAE7A5FC000020EA0000C4FC000025
:105F2000E3FC0000F9FC000010B5124B93F824309C
:105F30000146E3B104782046FFF7B6FB80B1447216
:105F40000B7983724B8843600878498803070AD429
:105F50004B1E0B4207D0084A0848012106F0D4FF27
:105F60006FF0150010BD07F013F80020FAE76FF08E
:105F70001200F7E79419002016FD000020EA000047
:105F800038B5154B93F8242005460AB393F825300D
:105F9000F3B1FFF789FB044610B96FF0150038BD67
:105FA000817A01290FD007D90239012907D96369FC
:105FB000A3610020E060F2E700F08AFEF7E72846E0
:105FC00000F02CFEF3E7054A054806F09DFFE4E7E4
:105FD0006FF01200E3E700BF941900203EFD0000BF
:105FE00020EA000038B50E4B93F82420054682B114
:105FF00093F825306BB1FFF757FB68B115F0080433
:106000000AD1284600F02CFE284600F0F5FF204675
:1060100038BD6FF01200FBE76FF01500F8E700BF26
:106020009419002038B50C4B93F8242005460C46F3
:1060300062B193F825304BB1FFF736FB48B141B15F
:10604000284600F0F3FD2070002038BD6FF01200EC
:10605000FBE76FF01500F8E79419002070B5134EB8
:1060600096F824300446C3B1FFF71EFB0546B8B1CD
:10607000230705D4204600F0F3FD204600F0BCFFC6
:106080002B7A83B901232B7296F825300BB90020A7
:1060900070BD204600F078FFF9E76FF01200F7E7D7
:1060A0006FF01500F4E76FF07700F1E79419002026
:1060B0002DE9F043DFF8EC801F4698F8243085B0D6
:1060C000054689461646002B69D098F82530002BE6
:1060D00065D003060BD5FFF7E7FA044638B1037A1B
:1060E0005BB9314A31482B46012106F0F5FC6FF0CF
:1060F0001505284605B0BDE8F0834FF0FF334FF09B
:10610000FF3208F1380006F001FFA37F33B108F138
:10611000380006F0FDFE6FF00A05EAE716B9E37FE6
:1061200003B1E677A37ABBB95EB1B8F80A309E42F4
:1061300007D26268B6FBF2F302FB13630BB90123CB
:10614000E37700F0CBFD854206D000F0BBFD184898
:1061500006F0DEFE0025CCE701232846A3774FF0AA
:10616000000801A9CDE90196CDF80C8000F0AAFA4B
:10617000054680B184F81E800FB1C7F800800D4A33
:106180000A482B46012106F0A7FC6FF004050848D9
:1061900006F0BEFEADE7002FF9D03E60F7E76FF0E6
:1061A0001205A6E79419002060FD000020EA000017
:1061B000CC1900207FFD00002DE9F0411D46254B44
:1061C000174693F8242080460E46002A3FD093F8C5
:1061D0002530002B3BD010F0800F0ED101B967B9EC
:1061E0004046FFF761FA044638B1037A43B91A4AC8
:1061F0001A484346012106F06FFC6FF0150013E0CA
:106200004FF0FF3316484FF0FF3206F07FFEE36891
:106210009F42B84628BF984646B93FB905B12B60A2
:106220000F4806F075FE0020BDE8F081A1694246E6
:10623000304608F0FBF8A3694344A361E368A3EB8D
:106240000803E360002DEBD0C5F80080E8E76FF0AD
:106250001200E9E79419002060FD000020EA000028
:10626000CC19002070B5224D95F824300146002B42
:106270003AD095F82530002B36D003060BD4FFF723
:1062800013FA044638B1037A43B91A4A1A480B463E
:10629000012106F021FC6FF0150070BD4FF0FF33B7
:1062A0004FF0FF3205F1380006F030FEE368B3B975
:1062B000012663692677A361637F83B1FFF7C2FA82
:1062C00030B905F1380006F023FE6FF00B00E4E76B
:1062D000067484600673FFF713FAFFF709FA07489C
:1062E00006F016FE0020D8E76FF01200D5E700BFD9
:1062F0009419002060FD000020EA0000CC19002065
:1063000008B5084B93F824302BB1FFF7CDF928B12D
:106310000160002008BD6FF01200FBE76FF0150070
:10632000F8E700BF94190020014B1860704700BFC8
:106330009419002008B5074B93F8243023B1FFF7D8
:10634000B3F920B1406808BD6FF01200FBE76FF0B1
:106350001500F8E794190020064B10F0800F03F1A8
:10636000D80218BF134600F00F00182202FB0030BD
:10637000704700BF64220020EFF31180402383F3B5
:106380001288BFF36F8F0A4BD3F8001C032261B948
:1063900049F27531C3F8001CC3F8142DC3F8001C72
:1063A00080F31188BFF36F8F7047C3F8142DF7E7A0
:1063B00000E00640EFF31180402383F31288BFF31F
:1063C0006F8F0A4BD3F8001C61B949F27532C3F8DC
:1063D000002CC3F8141DC3F8002C80F31188BFF300
:1063E0006F8F70470022C3F8142DF6E700E00640D7
:1063F0004FF08053D3F83031082B02BF024B0022FC
:10640000C3F81C2C704700BF00700240024A0023F2
:106410001360024A137070471C240020B12600202C
:1064200008B54A4B4FF40062C3F8002406F09AFD09
:1064300008B1FFF7A1FF4FF08053D3F83031082B9C
:1064400018D1EFF31180402383F31288BFF36F8FCD
:106450003F4BD3F8001CC02200296ED149F27531A0
:10646000C3F8001CC3F8142CC3F8001C80F3118877
:10647000BFF36F8F354B0122C3F80025D3F80024FA
:106480001205FBD54FF40062C3F800244FF080538F
:10649000D3F83031082B17D1EFF31180402383F369
:1064A0001288BFF36F8F2A4BD3F8001C002947D105
:1064B00049F27532C3F8002CC3F8141CC3F8002C41
:1064C00080F31188BFF36F8F06F04CFD30B1FFF7FA
:1064D00071FF06F047FD08B1FFF74EFF4FF0805304
:1064E000D3F83031082B194B0AD140F2E372C3F8CC
:1064F00000284022C3F80428BFF36F8FBFF34F8FEB
:106500008022C3F81C250122C3F83025114B40F22C
:10651000FF121A60104B00211960104B1970FFF721
:1065200067FF0F4B19700F4B02221A7006F01AFD0D
:1065300050B1BDE80840FFF73DBFC3F8142C95E704
:106540000022C3F8142CBBE708BD00BF0070024056
:1065500000E006401824002014240020AD2600206E
:10656000AF260020B1260020094B002210B51A707A
:10657000084A094B094C002808BF1346C4F80033E9
:106580002720FEF769FB0123C4F8043510BD00BFC6
:10659000B0260020FDFFDF01FDFFFF01007002407B
:1065A000034B1878012894BF00200120704700BFDA
:1065B000B126002010B54FF0FF324FF0FF331548E1
:1065C00003F03EFFEFF31181402383F31288BFF302
:1065D0006F8F114B1B7803F0FF0483B10F4BD3F87F
:1065E000002412F400720AD10120C3F82C05D3F85C
:1065F0002C05D3F80004800502D5C3F82C2500240F
:1066000081F31188BFF36F8F024803F0E5FE204647
:1066100010BD00BF00040020B02600200070024022
:10662000F8B51C4B1C7894BB1B4A106001221A70F1
:1066300040F2FF17264664F07F0514F0080FEDB214
:1066400014BF39464021284606F0A2FC2846FFF731
:1066500083FE0134092C867506730661EBD1002494
:1066600040F2FF17254614F0080FE6B214BF394672
:106670004021304606F08CFC3046FFF76DFE0134B9
:10668000092C857505730561EDD10020F8BD6FF00B
:106690007700FBE7B12600201C240020084B10F0F7
:1066A000800F14BFD3F81035D3F8143500F00F0263
:1066B000012090401840003818BF0120704700BFEB
:1066C000007002402DE9F843024606F059FCEFF352
:1066D0001188402383F31288BFF36F8F130703D110
:1066E000174B1B78934224D1164B174F1C683E68FA
:1066F000E4434FF00109A4B209FA00F534432C40F9
:106700001AD11046FFF728FE80F80C90034607C9FF
:106710001C6183E807009C750C4B2E4380223E6071
:106720002046C3F8042188F31188BFF36F8FBDE8BA
:10673000F8836FF00D00F6E76FF00F00F3E700BF8E
:10674000AF260020182400201424002000E100E0DF
:1067500010F0080F074B06D0D3F8C00410F4803FA8
:1067600018BF0020704700F00F0000F5947053F838
:1067700020007047007002402DE9F74F594BDFF8B9
:106780006881D3F85421EAB10022C3F85421D3F828
:106790000413890216D58DF80420D3F82025ADF80E
:1067A0000620D3F8C034002BD8F8003014BF4FF0C7
:1067B00001224FF480721343C8F800304B4B01A8FC
:1067C0001B689847474BD3F8604134B10022C3F8A7
:1067D0006021D3F86C44C3F86C44D3F828214AB143
:1067E0000022C3F82821424B187806F0C9FB012388
:1067F00083401C43DFF8FCA09AF800509AF900602F
:1068000015F0080005F00F0238D1002EB4BF3A4B46
:106810003A4B91000B441968DFF8E49051B3002122
:106820001960304B88BB8E424FF0140101FB0233DC
:10683000B4BFD3F80836D3F80837324A117803F0DA
:1068400001034B401370FFF7D3FD2F4803F0C4FD45
:106850002846FFF781FD837D032B1DD1284606F0D6
:106860008FFB012303FA00F0D9F8003023EA00037C
:10687000C9F800301D4F0125062672E0234B24493C
:1068800033EA260328BF0B46C5E7002EB4BFD3F872
:10689000A836D3F8A837D0E7037BE3B9284606F03B
:1068A0006FFB012303FA00F0D9F80030002E23EA31
:1068B0000003C9F8003001DA882DDBD106238DF8FA
:1068C000043000238DF80730084B8DF806501B6804
:1068D00001A89847CEE7002DCCD1024B0122DA6403
:1068E000C8E700BF00700240182400201C240020CC
:1068F000AF260020AE260020087102403071024011
:1069000014240020AD260020000400205071024015
:106910002C71024094FAA4F3B3FA83F30F2BD8F846
:1069200000201946C8BFA3F1100105FA03F342EA9B
:106930000302C8F80020D9F80020CCBFC9B241F04A
:10694000800124EA030413400A0640F1938043B90E
:106950008DF804608DF806108DF807303B6801A8AB
:106960009847002CD6D1A74BD3F800215AB1C3F8D1
:106970000041A54B1C70A54B1C7001230193A44B37
:1069800001A81B6898479F4BD3F85821002A2ED0A6
:106990000022C3F85821D3F80044C3F80044E605A8
:1069A00008D5994B01221A7002230193984B01A834
:1069B0001B689847A50508D5934B00221A7003233E
:1069C0000193934B01A81B68984764050FD58E4B24
:1069D0001A7862B100221A708A4B0122C3F8082586
:1069E0009A65042301938A4B01A81B689847854B3D
:1069F000D3F85C3123B3874B9B681BB99AF80030FE
:106A000058061DD07F4B0022C3F85C21D3F8803498
:106A10007E4A23F07F031370D9F8003023F001136E
:106A2000C9F80030D8F8003023F4803343F0010374
:106A3000C8F8003005230193754B01A81B689847DF
:106A4000D9F80020D8F800301A4200F0C880714808
:106A50000022002303F0F4FC002840F0C080694BC2
:106A6000D3F82C35002B44D06A4803B0BDE8F04F72
:106A700003F0B2BC002B7FF474AF8DF804608DF886
:106A800006108DF8075069E70B4661E0003A69E0AF
:106A90002046FFF75DFED5E90032B5F814C09042FC
:106AA0009FBF121AC7182F606A6094BF074600275D
:106AB00060450CBF4FF0010C4FF0000C002A08BFDE
:106AC0004FF0000C002B53D0874251D20123B3402A
:106AD00021EA0303C9F8003006238DF804304C4B3B
