:1010000080460020FD36000095A60000E93600006D
:10101000E9360000E9360000E93600000000000073
:10102000000000000000000000000000D9370000B0
:10103000E936000000000000CD390000E93600006C
:10104000453A0000A56A0000453A0000453A000014
:10105000453A0000453A0000453A0000453A000094
:10106000453A0000453A0000A1640000453A0000FE
:10107000453A0000453A0000453A0000453A000074
:10108000453A0000453A0000453A0000453A000064
:10109000456B0000453A0000453A0000453A000023
:1010A000453A0000453A0000453A0000453A000044
:1010B000453A0000453A0000453A0000453A000034
:1010C000453A0000453A0000453A0000453A000024
:1010D000453A0000453A0000453A0000453A000014
:1010E000453A0000453A0000453A0000453A000004
:1010F000453A0000453A0000453A0000453A0000F4
:10110000014B1B685B68184700000020014B1B68FF
:101110009B68184700000020014B1B681B6918479B
:1011200000000020014B1B685B691847000000208D
:10113000014B1B689B69184700000020014B1B688E
:10114000DB69184700000020014B1B681B6A184729
:1011500000000020014B1B689B6A1847000000201C
:1011600030B4044C9DF8085024680295E468A44605
:1011700030BC6047000000209F130000A513000052
:10118000A7130000CD130000AB130000D71300001D
:10119000B1130000E1130000B7130000ED130000CD
:1011A000C3130000C7130000B9130000BF130000F1
:1011B000DD130000E713000030B50346114890F935
:1011C0001C209A4219DD90F924209A4217DA9A1AC3
:1011D000846AA05C0C4A15569D420DD00E3200293F
:1011E00018BF01309442C0B206D129B1013BDBB235
:1011F000012B01D80130C0B230BD0D20FCE700202A
:10120000FAE700BF9003002090BC000008B5054B32
:1012100093F91C30984203DAFFF7CEFF024B1B56BE
:10122000184608BD9003002090BC000008B5184B7C
:1012300093F82C20FAB9012283F82C20154A126861
:10124000A2F10800082803D813490141C90709D5AC
:10125000911F092910D9013212D04FF4DF71742087
:1012600000F034F80D4A9A62D8221A6283F82420DA
:1012700008229A611A7708BD094A0A41D207ECD4BC
:10128000084A9A62D8221A6283F824200422F0E7DE
:101290009003002040050020DEFEFFFFCBBC0000D5
:1012A000EEFCFFFF9EBC0000BFF34F8F0549064BCD
:1012B000CA6802F4E0621343CB60BFF34F8F00BFF4
:1012C000FDE700BF00ED00E00400FA051FB572B6AF
:1012D000134B5D6895B9FFF7E7FF2346B2FBF6F2C3
:1012E0005C1C002AF9D104AEDCB256FA83F303F891
:1012F0000C2C0A2234B901A8A847ECE702460023C7
:101300000A26EDE7631E04AEDCB256FA83F3B0FBA7
:10131000F2F602FB1600303003F80C0C3046E9E719
:10132000080500204FF08052034BD2F830111960AD
:10133000D2F834215A6070474005002053B94AB9A9
:10134000002908BF00281CBF4FF0FF314FF0FF30CD
:1013500000F00CB8ADF1080C6DE904CE00F059F8BE
:10136000DDF804E0DDE9022304B07047704700BFF8
:1013700008B5FFF7D7FFBDE80840FFF757BF801A51
:1013800000F3070038B540B20D4659B21446FFF7D6
:101390003DFF002328706B70204440B238BD00230D
:1013A000036070477047002070474FF0FF30704770
:1013B0004FF0FF30704770474FF0FF30704700200C
:1013C0007047002070470023037070479DF800307D
:1013D0000022FFF7D4BF4FF0FF3070470020704766
:1013E0004FF0FF3070474FF0FF307047704710F8F4
:1013F000012B11F8013B012A28BF9A42F7D0D01ADD
:101400007047034613F8012B002AFBD1181A013844
:1014100070472DE9F0478C468E46089E15460446D7
:101420001946002B40F0D080724547D9B2FA82F7B6
:101430004FB1C7F120030EFA07FC20FA03F3BD40B9
:1014400043EA0C0CBC404FEA154EA8B2BCFBFEF8B8
:10145000230C0EFB18CC08FB00F943EA0C4399451A
:1014600028D9EB1808F1FF3204D2994502D9A8F126
:1014700002022B44A3EB0903A4B2B3FBFEFC0EFB58
:101480001C330CFB00F044EA0344A04214D92C198D
:101490000CF1FF3304D2A04202D9ACF102032C4478
:1014A000241A43EA02401EB1FC40002334607360FA
:1014B000BDE8F0874246DDE76346F1E7002A79D0D0
:1014C000B2FA82F3002B3FD01946C1F1200302FA91
:1014D00001F52EFA03F20EFA01FE20FA03F343EAB5
:1014E0000E034FEA154E00FA01F4B2FBFEFCAFB258
:1014F0000EFB1C201A0C0CFB07F842EA0042904538
:101500005AD9AA180CF1FF3004D2904502D9ACF197
:1015100002002A44A2EB08029BB2B2FBFEFC0EFBC7
:101520001C220CFB07F743EA02439F4246D9EB1803
:101530000CF1FF3204D29F4202D9ACF102022B44DB
:10154000DB1B42EA004202E0AEEB020301224FEA5B
:10155000154EAFB2B3FBFEFC200C0EFB1C330CFB94
:1015600007F840EA034398452AD9EB180CF1FF30FD
:1015700004D2984502D9ACF102002B44A3EB080336
:10158000A4B2B3FBFEFC0EFB1C330CFB07F744EAD2
:101590000344A74216D92C190CF1FF3304D2A742F9
:1015A00002D9ACF102032C44E41B43EA00400F468D
:1015B000114678E71F2188E76046ABE76246BFE740
:1015C0006046DBE76346EFE7734506D916B90021AD
:1015D00008466DE7C6E9000EF9E7B3FA83F787B965
:1015E000734501D3824207D8841A6EEB03030120AE
:1015F0009C461EB900215BE73846FAE7C6E9004C75
:10160000F8E7C7F1200CBB4022FA0CF51D4320FA85
:101610000CF12EFA0CF30EFA07FE41EA0E014FEA26
:10162000154900FA07F4B3FBF9F81FFA85FE09FB28
:1016300018300B0C08FB0EFA43EA00439A4502FAF5
:1016400007F240D9EB1808F1FF3004D29A4502D9CD
:10165000A8F102002B44A3EB0A0389B2B3FBF9F80B
:1016600009FB183308FB0EFE41EA03418E452CD9D5
:10167000691808F1FF3304D28E4502D9A8F102039C
:10168000294443EA0040A0FB0298A1EB0E0141452A
:10169000CE46434602D306D14C4504D2B9EB020EE6
:1016A00068EB05030138002EA4D0B4EB0E0261EB09
:1016B000030101FA0CFC22FA07F34CEA0303F94098
:1016C000C6E9003196E74046C5E74346D9E7000042
:1016D0002DE9F04385B00C461646054608F081FC1E
:1016E00016F17F0F94F8029094F80380864648DB49
:1016F0007E2E49DC72B26068A16802AB03C3EFF3CF
:101700001187402383F31288BFF36F8F1F4B1B7821
:1017100083BB1F4E3488B4F5807F09D11D490B88E7
:101720000133DBB20B801C490B8801330B80FF2493
:10173000DFF868C08DF80720BCF80030184ACDF8F3
:1017400000E08DF804508DF805908DF80680EE4687
:1017500002EB0312754603CD516004A98D4210605F
:10176000AE4602F10802F5D10133DBB20134ACF828
:101770000030348087F31188BFF36F8F05B0BDE868
:10178000F0836FF07F02B6E77F22B4E75D1D002093
:10179000E61C0020E81C0020E41C0020EA1C0020BD
:1017A0005E1D00202DE9FF471E464B8815461A0A8C
:1017B000032A40F0CA80DBB2032B3CD1EFF3118443
:1017C000402383F31288BFF36F8F614F3B782BBBAD
:1017D0004FF6FF705F4903230B705F4B1B784B7014
:1017E0005E4B1B788B705E4B1B88CB701B0A0B719A
:1017F0005C4B1B784B713B780BB15B4B1B78C87112
:10180000000A8B71087284F31188BFF36F8F09236C
:1018100031602B60002004B0BDE8F08708F0E1FBE8
:10182000524B1B68C01A524B9842D1D24FF47A7374
:10183000B0FBF3F0CEE7042B1BD1EFF31182402174
:1018400081F31288BFF36F8F4A490B704A4B1B78A4
:101850004B704A4B1B788B70494B1B88CB701B0A13
:101860000B7100234B718B71CB710B7282F311885A
:10187000CBE7052B69D11022002168460AF075F8E4
:10188000EFF3118C402383F31288BFF36F8FDFF8DF
:10189000F4E0BEF80040002C55D0DFF8EC803B4B64
:1018A000B8F8002003EB0213E94603F1100A1868A8
:1018B00059684F4603C708335345B946F7D101323B
:1018C000013CD2B2A4B2A8F80020AEF800404FF01C
:1018D00001092F4BB3F800802E4BB8F1FF0F28BF42
:1018E0004FF0FF0893F800A05FFA88F88CF3118896
:1018F000BFF36F8F1022284800210AF036F8264ADD
:101900000523FF2C02F8053C49EA4A0A4FF001037F
:1019100028BFFF24571F7B7087F802A0FC7087F850
:101920000480B9F1000F0BD06B4614461A4603CA67
:10193000616004A98A422060134604F10804F5D1CD
:101940003760152365E7A146C3E76FF0850062E7BE
:101950004B1D0020211D00204F1D00204E1D00208A
:10196000E21C00204D1D00204C1D0020C00800205E
:1019700018FCE703331D00203D1D00203C1D002006
:10198000E01C0020E61C0020E81C00205E1D00205A
:10199000E41C00205D1D0020111D002010B500F08A
:1019A0000700EFF31184402383F31288BFF36F8F96
:1019B0000F4A104B117811B11978814214D00E4999
:1019C00018700B7801330B7001230121117084F31F
:1019D0001188BFF36F8F4BB1084808F00FFBBDE8CB
:1019E0001040074808F00ABB0023EEE710BD00BF17
:1019F0005E2D0020612D0020602D0020C4080020F5
:101A0000C808002008B54988080A0228C9B211D1BF
:101A1000012979D11268002A76DD1B68002B73D06A
:101A2000012A187802D001286BD15878FFF7B6FF49
:101A3000002008BD032867D104292DD11168002991
:101A400062DD1A68002A5FD0082903D91378042BB5
:101A500008BF0132EFF31180402383F31288BFF3F4
:101A60006F8F2B4B5A2119700321597002219970E5
:101A7000D9780131D9701168596051689960254B46
:101A800001211970244B197080F31188BFF36F8FF7
:101A9000224808F0B3FACBE70329C9D0052933D18E
:101AA0001168002930DD1A6872B31429137802D93D
:101AB000052B08BF5378EFF31182402181F3128880
:101AC000BFF36F8F022B11D0032B13D0012B14D136
:101AD000134900230B8013490B8013490B801349D2
:101AE0000B8082F31188BFF36F8FA1E7104B0121A8
:101AF0001970F6E70E4B0021FAE782F31188BFF365
:101B00006F8F6FF0150094E76FF0850091E700BFCD
:101B10003F1D00203E1D00203D1D0020C808002064
:101B2000EA1C0020E81C0020E61C0020E41C002029
:101B30005D1D00207FB5EFF31186402383F31288EB
:101B4000BFF36F8F0D4D2C7844B10D4A106851686A
:101B500001AB03C39068186000232B7086F31188D3
:101B6000BFF36F8F24B1002201A90A20FFF7B0FD57
:101B7000044804B0BDE8704007F018B9501D0020BB
:101B8000511D0020B8020020013808B505281FD8D3
:101B9000DFE800F0191E03190D070E48012108F0B7
:101BA0002DFABDE808400C48002108F027BA0121B1
:101BB000094808F023FA094807F052F90748BDE838
:101BC000084007F0F3B80348002108F017FAEFE7E0
:101BD00008BD00BFF4080020F0080020B802002073
:101BE0002DE9F0470378022B86B005D1DFF8448257
:101BF000904805F099FC10B106B0BDE8F0878E481A
:101C000008F027FA98F902108C4808F0F7F998F8CC
:101C100000300C2B03D08A4808F01BFAE8E7894A09
:101C2000106851686B4603C3906818609DF80030D7
:101C3000A52BF0D19DF80130032BECD1BFF35B8FC6
:101C4000814B1B68BFF35B8F1BB18048012108F0FB
:101C5000D5F99DF80230132B1BD1EFF311834022ED
:101C600082F31288BFF36F8F794A9DF804101170C8
:101C7000784A9DF805101170774ABDF8061011805A
:101C800083F31188BFF36F8F7048012108F0B6F914
:101C9000AEE7042B4AD19DF80430642BBBD89DF8E5
:101CA0000530042BB7D8BDF80630A3F52F639BB2DF
:101CB00040F2DC529342AED89DF80930DA07AAD53B
:101CC0000F2BA8D89DF80A309DF80B201343A2D102
:101CD000EFF31185402383F31288BFF36F8F5F4CBE
:101CE0009DF8081023785E4A23B11378CB1A5BB2B3
:101CF000002B16DD5B4B9DF8040018705A4B9DF8C5
:101D000005001870594BBDF806001880584B11702B
:101D10009DF809201A7008F064F9564B18600123E9
:101D2000237085F31188BFF36F8F61E7032B05D113
:101D30009DF80430022B3FF45BAF6CE7002269464C
:101D40000120FFF7C5FC9DF80230012B11D14A4C50
:101D5000DFF8289122784A4F4A4E32B39DF803505B
:101D600096F800A055450BD13A78F2B9012B59D11C
:101D700008E0454CDFF814912278454F454EECE7DA
:101D8000012B4AD14946082201A809F0F6FD014677
:101D9000002842D1387035703F4808F05AF90A4699
:101DA00004206946FFF794FC22E73C480022002308
:101DB000694609F06AFBB0B1394808F04AF969464A
:101DC0006FF01B020320FFF783FC3448002200233E
:101DD00003A906F095FEC8B93048002200236946E1
:101DE00009F053FB90B9694602200022FFF770FC0E
:101DF000012323709DF80330337000233B7001AB47
:101E000003CBC9F80000C9F80410F1E601239DF8DE
:101E10000320237032703B70EAE6A5EB0A056DB231
:101E2000002DC2DC1C4808F014F969460022052088
:101E3000B8E700BF782D0020EC080020E008002063
:101E4000E80800207D2D0020C4080020C8080020DC
:101E50003D1D00203C1D0020E01C00204B1D0020EB
:101E60004D1D00204F1D00204E1D0020E21C0020B3
:101E70004C1D0020C0080020772D00206C2D002074
:101E8000752D0020632D0020762D0020642D00206C
:101E9000742D0020622D0020E40800208002002024
:101EA000D4080020084BBFF35B8F1868BFF35B8F2B
:101EB00040B1BFF35B8F054B1868BFF35B8FB0FA7F
:101EC00080F04009704700BFF4080020F0080020AF
:101ED0002DE9F84307460C461546FFF7E3FF0028B7
:101EE00049D028480022002306F094FF0646002827
:101EF00044D1EFF311814FF0400888F31288BFF30B
:101F00006F8F214A2B6813606B68DFF880905360F5
:101F1000AB689360012389F8003081F31188BFF327
:101F20006F8F1B482246394609F011FD19481849A0
:101F300000682246334608F0FEFB0446A0B1EFF3EA
:101F4000118388F31288BFF36F8F89F8006083F3E1
:101F50001188BFF36F8F0B4806F028FF0E4808F07A
:101F600078F82046BDE8F883024629460720FFF7A7
:101F7000AFFB0A48F3E76FF07F04F2E76FF00F045E
:101F8000EFE700BFB8020020511D0020501D0020C7
:101F90002A1D0020F8080020CC080020D0080020CE
:101FA0002DE9F04F93B00023CDE90233049308F0FC
:101FB0007CFDA24B1870A248A24C06F0A7FB206043
:101FC00078B1A14BA149AC2202F03AF8206808F0A0
:101FD000A8FB18B99E4800F00DFE28B113B0BDE86B
:101FE000F08F6FF01200F9E79A4940F201130B806D
:101FF000012408250C224B820846974B0C728D72E7
:102000004A744B6005F0DCF8A8B9944805F054FB1D
:1020100088B9934805F06AFB68B99248294605F0EB
:102020007DFB40B9502005F09FFB20B905F0C6FAB2
:10203000002800F0828001468B4807F0DFFF002473
:10204000A146274625462646884ABFF35B8F4FF0B8
:10205000000852E8003F012B03D142E8008100292B
:10206000F7D1BFF35B8F55D12522414608A8CDE9B2
:102070000588CDF81C8009F078FCEFF3118E4FF045
:10208000400A8AF31288BFF36F8F794B19789C4608
:10209000002955D0774B8CF800801868596893F860
:1020A00000B093F801A005AA03C2986810609A785E
:1020B000D878197901925A799B798EF31188BFF3F8
:1020C0006F8FDDF804C08DF81A308DF814B08DF8DC
:1020D00015A08DF816C08DF817008DF818108DF822
:1020E000192005AB03CB4FF00C0ECDF82500186876
:1020F000ADF820E0CDF82D004FF0000E08A88DF8C7
:1021000023E0CDF8291005F065F918B15A480121EE
:1021100007F074FFFFF7C6FE8046002839D1574804
:102120000022002308A906F0EBFC58B3212000216F
:1021300009F034FB0025464686E7514821467CE7F6
:102140008EF31188BFF36F8F4B4807F057FFEFF303
:10215000118C8AF31288BFF36F8F4A4B18784A4B61
:1021600019784A4B1A78354B1B788CF31188BFF3DA
:102170006F8F4FF0010CCDF804C04FF0030A4FF001
:102180005A0B9EE76FF07F0208A90620FFF7A0FA1E
:10219000C5E7A6B90DF1200A3848002200235146B0
:1021A00006F0AEFC98BB9AE8070002AB83E8070094
:1021B0009DF822709DF824909DF825403546012F0A
:1021C00029D18DF80C908DF80D4003AB03CB8DF821
:1021D0001470CDF81500CDF819108DF80A7002AA08
:1021E00009211846FFF774FE024628B36DB910F1B5
:1021F000100F02A914BF092008208DF80A708DF86D
:102200000C908DF80D40FFF763FA45462E4607F017
:10221000FBF9B0468FE702238DF814308DF8159046
:102220008DF816408DF80A708DF80C908DF80D40E1
:1022300002AA032105A8D5E70546E7E75F2D0020A0
:1022400090BE0000F808002018BD000077BF000015
:10225000891B000004000020E11B000073BF000088
:102260006FBF000067BF0000D8080020C80800202A
:102270003E1D00203F1D0020C408002080020020D9
:10228000DC080020602D0020612D00205E2D002044
:1022900080B505460E461746984607F051FA0346A4
:1022A00001F0E2FBDFF81890044649F8003042469E
:1022B00030463946A84754F8090001F071FB00BFC9
:1022C000080000002DE9F047058B04462807174653
:1022D0000CD501290CBF45F0100545F020052583DC
:1022E00087F31188BFF36F8FBDE8F087022905F0EF
:1022F000070540F09480204608F05AF8052864D875
:1023000001A353F820F000BFE12200001F240000C9
:10231000CB2300008D230000A7230000B923000079
:1023200001F007035A1F012A1FD8002221F00701DC
:10233000062BD4F8008089B2C4E9002209D14346B3
:1023400003E0628B013262831B68002BF9D141F0FC
:1023500002012183204608F02BF84FF000090028E5
:102360006DD041F02001218369E0042B0AD121F0D6
:10237000070189B22183204608F01AF810B141F014
:10238000200121834FF00008C14658E02369D3F8AB
:102390000090238B23F0070343F0060323834FF0C1
:1023A000000846464BE02369D3F80490238B23F0C2
:1023B000070343F00403F1E72369D3F80890238B64
:1023C00023F0070343F00503E8E74FF00008C14698
:1023D000E7E7012243F00803238387F31188BFF363
:1023E0006F8F002A3BD1B8F1000F4AD1B9F1000F2D
:1023F00002D02D492046C847EFF31187402383F3CD
:102400001288BFF36F8F238B23F008039BB22383C3
:10241000D9063FD523F01002228303F00705666931
:10242000218B002EBFF67CAF0023D4F8008021F072
:102430000701C4E9003341F0010121839946238B50
:1024400003F0070AAA4502D0A268002AC1D1B8F158
:10245000000F02D1B9F1000FDAD00022BAE7A1686B
:102460000029C0D00D680029BDD04F6833465246C0
:102470002046B8471DB12B6829461D46F3E72B4679
:10248000FAE74146334652462046D8F8008007F026
:10249000BBFFA8E79A067FF523AF23F02002228333
:1024A00003F0070527E700BF35A40000014B0360D8
:1024B0000020704730BD0000F0B40D4B0D4E5F6A38
:1024C0000D4BB34203D36FF08500F0BC70475C68DE
:1024D000BC420AD31D6945B194F802C08488E4B2B5
:1024E000A44502D12B46F0BC18472433E9E700BFCE
:1024F000FC080020900300206C0300202DE9F04729
:10250000144CDFF85480DFF8549005460E46174609
:10251000444503D36FF08500BDE8F0876268D9F8C1
:1025200024309A4213D3A3698BB1A9889078C9B299
:10253000884205D13A4631462846BDE8F04718475B
:102540005279012A03D13A46314628469847243425
:10255000DEE700BF6C03002090030020FC08002091
:1025600010B5044608F027F910F1780F00D050B9E3
:10257000054A204608F027F8D2F8C43023EA0003C1
:10258000C2F8C430002010BDFC0800202DE9F04145
:1025900005460E46174600F017FE38B90E4CDFF818
:1025A0003C8044450CD36FF0850007E03A46314645
:1025B000284600F0F3FD0028F0D10020BDE8F081AE
:1025C00063690BB92434ECE73A463146284698470C
:1025D0000028F7D1F1E700BF6C0300209003002032
:1025E000024B00221A605A60704700BFB7090020F2
:1025F00070B50B4B0B4CA34201D3002070BD196A80
:102600001E7F00220439D5B2AE4201D82433F2E74E
:10261000013211F832508542F5D10120EEE700BFBA
:102620006C0300209003002073B58488E4B2630635
:102630000D468DF8074007D02046FFF7D9FF78B147
:102640000D4B93F8BA0058B10B4E204655B102F02D
:10265000D1F8F3691BB10DF107010820984701205B
:1026600002B070BD02F0EEF8F369002BF7D00DF167
:1026700007010920F2E700BFFC08002008B509485F
:102680000378C3F341130A3350F823303BB100F110
:10269000080200F110019847C043C00F08BD18465A
:1026A000FCE700BFFC08002004282DE9F14FDFF80B
:1026B000989004460F4616D001282DD1DFF88C8063
:1026C00098F8B93043B300F019FD214D4D4520D2A3
:1026D000D5F820B04FF0000A2B7F5FFA8AF6B3429C
:1026E00004D82435F2E7FFF77BFFE7E70BEBC606DC
:1026F0000AF1010A307908F05EF80246307907F0F5
:1027000062FFD8F8C430002A23EA0003C8F8C430B6
:10271000E2DA002388F8B9300D4D4D4508D30B4B54
:102720001B6A6BB13946204601B0BDE8F04F18472F
:10273000EB681BB13A462146284698472435ECE71A
:1027400001B0BDE8F08F00BF90030020FC0800201E
:102750006C03002073B586788DF8006003794279A8
:102760001C4C43EA0223ADF80230C378304603F034
:1027700003038DF8043007F026FFD4F8C430184264
:1027800005460BD0304600F09BFC3046FFF7E8FED4
:1027900008F066FF10B9962006F0B4FF684602F014
:1027A00005F810F1780F03D010B1002002B070BD11
:1027B0009DF8000002F082F810F1780F01D0002897
:1027C000F3D1D4F8C43001202B4384F8B900C4F805
:1027D000C430EBE7FC0800202DE9F04704460E4624
:1027E000174600F0C5FCA8B1A64DAB6963B92078C7
:1027F00000F01F0001287BD0022800F0E28058B1D1
:102800006FF01500BDE8F0873A46314620469847FC
:102810000028ECD10020F5E794F900206378002A25
:1028200028DA062B09D0082B3A681ED0002BE7D1F6
:102830005370012313700223FEE06388190A0A1FF4
:10284000012A8C46DCD90729DAD8DAB26B6A1C78FF
:10285000002CD5D05D78654503D1824200F0E78039
:1028600001302344F3E71B78E6E095F8BA301370A3
:102870000123E1E0052B16D0092BC1D1638833B1C8
:10288000FF276E6AB8463378A3B90028B8D0FFF79F
:10289000A7FE638885F8BA30EB69002BBAD07A4975
:1028A00003209847B6E76088C0B201F06DFF0028AA
:1028B000B0D0A5E77378042B0DD0052B0ED0022BDA
:1028C00006D177796388BB4208BF40F00100C0B2EF
:1028D00033781E44D7E796F80380F9E76388BB4254
:1028E000F6D1B8F1000FF3D13046FFF733FFEFE731
:1028F00095F8BA30002B83D0A188D5F824805FFAF0
:1029000081FC43461A78002A3FF47AAF58780228AF
:1029100004D193F804E0E64500F290801344F1E717
:1029200013705370306075E7984494E00B2B7FF47C
:1029300067AF0026FF27B946B24608E098F8013095
:10294000042B11D0052B21D098F80030984498F82A
:102950000030002BF2D1EB6913B1514607209847A4
:10296000002E7FF457AF4BE798F80270A38898F8D1
:1029700003909F42E8D163889945E5D1072F1DD880
:10298000EB19C24683F8BB900126DDE7A388BB4262
:10299000DAD16388DBB24B450BD098F80260304641
:1029A00000F08EFB3046FFF7DBFDB0FA80F67609CB
:1029B000CAE74046FFF7CEFE0646C5E7C2460026F8
:1029C000C2E794F900206378002A1ADA002B7FF41A
:1029D00017AFA3885FFA83F85B060AD04046FFF77B
:1029E00007FE00283FF40CAF95F8BA30002B3FF4F7
:1029F00007AF3C684046214601F044FF0023637066
:102A000019E7012B08D0032B7FF4FAAE6388002B63
:102A10007FF4F6AE012103E0618800297FF4F0AE77
:102A20002046FFF701FE00287FF4F4AEE8E6022915
:102A30003B607FF418AF5B883360EBE694F90020CD
:102A40006378002ABFF672AF3A68002B3FF468AF94
:102A50000A2B7FF4D5AE98F80030002B3FF4D0AEAF
:102A600098F8010004287FF45FAF98F802008142D3
:102A70007FF45AAF072996BF4919002391F8BB305C
:102A8000F5E600BFFC080020B609002013B5164C7F
:102A9000237DF3B9E268A168019201AB802007F0C1
:102AA000A0FD019AA3681344A360E3689B1AE36046
:102AB0006BB962B12369E2889A4208DD94F8C820B4
:102AC00093FBF2F102FB11330BB90123237502B022
:102AD00010BD00231A4619468020237502B0BDE8B8
:102AE000104001F015BF00BFFC08002030B585B0D4
:102AF000002302460D460193002858D1002935D104
:102B000008220B460DEB020107F06EFE002804DAE6
:102B1000802001F06FFE05B030BD2A4C029A226081
:102B2000039A626004F13802A2609DF90820BDF8A2
:102B30000E302575002AC4E903550ADB802B04D921
:102B4000802001F057FE0020E3E713B1C4E903330E
:102B5000E1E7FFF793FD0028DAD0E28823699A4283
:102B6000D4BFE260E360FFF791FFD4E7154CD4E9EE
:102B70000215002D01AB04DC07F036FE0028CADA8E
:102B8000C6E72A4607F030FE0028D9DB019AA36881
:102B90001344A360E3689B1AE360002BBBD104F1EC
:102BA0003803A360FFF76AFD0028DCD1B0E7802876
:102BB000B1D1044BDA68002AD5D11B7D002BD2D1CC
:102BC000A9E700BFFC080020054B064A9A62064AA6
:102BD000DA62064A1A63064A58629A610020704710
:102BE000FC080020D9270000B92400008D25000032
:102BF000FD2400002DE9F3410446454D45484FF0C2
:102C0000FF334FF0FF3205F0DDFF95F8B830002BB1
:102C100078D16E6A76B900F0CBF8FFF7D5FF6E6A0F
:102C200046B94FF0FF343B4806F03EF8204602B06C
:102C3000BDE8F08138482C62E86101F07DFF01F0C9
:102C400075FD041EEFDB00F07BFA041EEBDB7378EE
:102C5000012B5AD1F379002B57D00026684685F80E
:102C6000C830ADF802308DF804608DF8006001F0D6
:102C70009DFD041ED7DB802768468DF8007001F0AB
:102C800095FD041ECFDB2549304601F041FF041EAF
:102C9000C9DB2249384601F03BFF041EC3DB204C50
:102CA000DFF8808044451AD3002001F007FE041E9F
:102CB000B9DBD5F8C430802043F00103C5F8C43037
:102CC00001F0FCFD041EAEDBD5F8C43043F48033C4
:102CD000C5F8C430012385F8B8300024A3E7276A7B
:102CE0000026227FF3B29A4201D82434DAE707EBB8
:102CF000C30257F83310107901F00AFF013600289B
:102D0000EFD08EE76FF077048DE76FF015048AE758
:102D1000FC0800206C020020A9260000ED2A00001B
:102D20006C0300209003002030B51F4B8BB005AA28
:102D300003F1100518685968144603C40833AB4200
:102D40002246F7D11B78237001AC102200212046C7
:102D500008F00BFE12220021144808F006FE102194
:102D6000204607F082FE00281ADD0828B8BF082098
:102D700009380E4A0444002114F8013F0AA800EB68
:102D8000131003F00F0328336B44013110F8140CB7
:102D900013F8143C10700829537002F10202EBD1B1
:102DA00002480BB030BD00BF96BE00009E2D002033
:102DB0002DE9F04F724B93F800B087B0BBF1000FD4
:102DC00003D0704807B0BDE8F08F6E4C00264FF07E
:102DD000011AB0463546B14623783BB96A4B0234F6
:102DE0009C42F3D1664A01231370EAE76378052B0E
:102DF00005D8DFE803F08F07038F1F3BA146237838
:102E00001C44E9E7402304A88DF810B0ADF8123057
:102E10008DF814B007F0BBFC40B1082304A8ADF84E
:102E2000123007F0B4FC08B1ADF812B0BDF81230A2
:102E3000E371E4E7E378002BE1D1A3786BB108F10B
:102E400001085FFA88F8DAE76B689C4207D02435FE
:102E50004E4B9D42F8D30020B4E74D4DF8E7AB68E8
:102E6000002BECD0414620469847E8E7002DF2D0F1
:102E700000222B7F9A42EED2296AA07801EBC20190
:102E80000B79984244D10127E07800F003008DF8D7
:102E90001400207994F805C040EA0C20ADF8120027
:102EA00094F902000028FBB228DA07F110004FF075
:102EB000010C0CFA00F010EA0A0F26D143F0800052
:102EC0008DF8100004A8CDE90213019207F05FFC11
:102ED000DDE90121039BC0B99DF81020A27012F01A
:102EE000800F18BF10330A7118BFDBB24FF0010218
:102EF00014BF9A40BA404AEA020A80E70120B8406B
:102F000010EA0A0F01D11846DAE70137102FBBD1BA
:102F10000132AEE7032E1AD1FFF706FF074650B184
:102F2000FEF76FFA024630B11028A8BF10223946CA
:102F3000A01C08F00CFD23786FF002011A19091B80
:102F400004EB5303D14213D50136F6B257E7002EF6
:102F5000F1D1B9F1000F3FF47EAFA4EB090389F87A
:102F60000230C3F3072389F8033089F80480EBE7C4
:102F700002F801BC13F8010902F8020DE2E700BFF4
:102F80009D2D0020D802002069030020900300201E
:102F90006C03002010B5094B00211A461C788442AE
:102FA00004D15C6814B102EB811010BD0131042919
:102FB00003F14003F2D10020F7E700BFC809002069
:102FC0002DE9F34150F8283C10F82C6C10330446DE
:102FD0000AD1036950F8202C980736D5D2B9590781
:102FE00015D5002344F8283C54F8283C10330BD066
:102FF00054E9077554F8148C08F032FB00284FD0C0
:103000002E48214608F01CFB02B0BDE8F08143F0D9
:103010000403236154F8241C01AB304607F0E1FAA5
:1030200010B16FF01503DDE7019A54F8243C134406
:1030300044F8243C54F8203C9B1A44F8203C54F8B3
:103040001C3C134444F81C3CCEE754F8241C01AB50
:10305000304601F0D3FC0028E3D1019D54F8243C14
:103060002B4444F8243C54F8203C5B1B44F8203C9F
:1030700054F81C3C2B4444F81C3C002DB1D0304685
:1030800001F060FDB5FBF0F303FB1055002DA8D156
:1030900054F8203C002BA4D0304601F0F7FCA3E705
:1030A00044F8180CA4F1100005F080FE002DABD000
:1030B000424639463046A847A6E700BF80070020B1
:1030C00010B5EFF31184402383F31288BFF36F8FA1
:1030D000FFF760FF50B14368103307D16FF08B03E7
:1030E000436000F12C01044808F0AAFA84F3118827
:1030F000BFF36F8F10BD00BF80070020F8B50E4CE6
:1031000004254027EFF3118687F31288BFF36F8FF2
:103110006368103307D16FF08B030848636004F1D4
:103120002C0108F08DFA86F31188BFF36F8F013DF3
:1031300004F14004E6D1F8BDC80900208007002052
:1031400038B5094C00250949204608F05DFA0122EE
:10315000A4F110001146013508F038FA042D04F1ED
:103160004004F0D1002038BDF4090020C12F000038
:1031700010B5094B1C6864B14388180A032808D1AC
:10318000DBB2EE2B05D12368136063680B6000206F
:1031900010BD6FF08500FBE7C80A002030B5094B71
:1031A0001B6863B145781C7AA54208D18088042841
:1031B00005D1D86810601B690B60002030BD6FF02E
:1031C0008500FBE7C80A0020024B1868003818BFCA
:1031D00001207047C80A0020014806F0A1BD00BFC9
:1031E00030BD000038B5044618B90F4B0F485B6876
:1031F00098476168B1F5683F10D0B1F5680F0DD000
:103200000B4DA9420AD011F46861206807D001462D
:10321000084808F0EBF800232360656038BD1422ED
:1032200008F0A3FBF9E700BF74010020A7BE00006F
:103230002C5F5CA9CC0F002008B520B34368B3F520
:10324000683F10D101220368BFF35B8F53E8001F72
:10325000002903D143E800200028F7D1BFF35B8F9A
:103260000DD1002008BD094A93420AD000684FF0F2
:10327000FF324FF0FF3305F0A5FC0028F1D00448E1
:10328000F0E70448EEE76FF4E040EBE72C5F5CA961
:10329000E98FFFFFEA8FFFFF08B5D8B14368B3F5A8
:1032A000683F10D100220368BFF35B8F53E8001F13
:1032B000012903D143E800200028F7D1BFF35B8F39
:1032C0000BD1002008BD074A934208D0006805F0E2
:1032D000EBFCF6E76FF4E040F4E70348F2E703485D
:1032E000F0E700BF2C5F5CA9E98FFFFFEA8FFFFFCB
:1032F00010B5044618B91D4B1D485B6898476368B4
:10330000B3F5683F2FD0B3F5680F2CD0194A93421C
:1033100019D1236803BB18484FF0FF324FF0FF3339
:10332000214605F05BFB08B923681BB90F4B134816
:103330005B68984720681422002108F016FB4FF4C0
:103340006863636008E0B3F5680F0DD83A2B03D0CB
:1033500040F6BA629342DED1206808F0A5F86368AF
:1033600043F03A03636010BD054AF3E7740100209F
:10337000A7BE00002C5F5CA9CC0F0020CDBE0000D2
:103380003A00003A08B5064906484023142208F0DE
:1033900020F8BDE808400449044806F033BD00BFEA
:1033A000CC0A0020CC0F002038BD00004CBD00002E
:1033B00008B50348034A0021121A07F05DF908BD59
:1033C00090030020603000200748084A084908B5EB
:1033D000121A07F053F90748074A0849BDE80840A0
:1033E000121A07F04BB900BF000000209003002024
:1033F00040C00000000000200000002040C000008D
:1034000030BFFFF7FDBF00BF2DE9F0410B4EDFF8E5
:10341000308006EB0807CC1B05463246094920469A
:1034200008F095FAA01942460021083C08F09DFAE0
:103430002C6707F10800BDE8F08100BF0000000024
:103440000400000088BC000070B5264B15469A6A3F
:1034500012F0100F9A6A14BF1124102412F0080FF2
:103460009A6A18BF1224920706460AD5586B9A6AC0
:10347000140634D519B19A6A22F080029A62132494
:1034800001E06FF01500174B9A6A12F0010F9A6A6B
:1034900018BF142412F0200F9A6A18BF1524D20600
:1034A00002D49B6A9B070AD50E4B5B68190506D5AB
:1034B000314600F02BFA10B180F309880224094B41
:1034C0009A6A920642BF5A6A22F400525A629A6A73
:1034D00042F0FF029A6200232B70204670BD6FF00D
:1034E0001500CCE700ED00E0134B9A6A12F0007F64
:1034F0009A6A14BF1E201D2012F0807F9A6A18BF9E
:103500001F2012F4002F9A6A18BF212012F4802F76
:103510009A6A18BF222012F4003F9A6A18BF23202B
:1035200012F4803F9A6A6FEA02426FEA12429A628C
:1035300018BF2420704700BF00ED00E010B5184B05
:103540000246986A9C6A10F4805F14BF1720162008
:1035500014F4006F9C6A18BF1820A40508D5986A57
:10356000000404D51AB19A6A22F400429A62192022
:103570000B4B9A6A12F4806F9A6A18BF1A20D20510
:103580000CD49B6A13F4005F18BF1C20044A936A92
:1035900043F47F43936200230B7010BD1B20F5E7BB
:1035A00000ED00E0F0B5494B5B688BB00446C3F317
:1035B0000803002585F31188BFF36F8F02F07F4069
:1035C000B0F17F4F11D102F00C0008280DD0100788
:1035D0004CBF0C4601250022033B8DF80720032B2E
:1035E00005D8DFE803F024686C652C46F3E7002378
:1035F0009DF80720CAB902AE04F12007206861686F
:10360000324603C20834BC421646F7D1099A002D4F
:1036100059D0C2F3080121B96FEA52226FEA42225F
:10362000099202A9184607F02BF80BB0F0BD274B02
:10363000DA6A9107DBD4DA6A002AD8DBDA6A520048
:10364000D5D55A69A16942F480725A61BFF34F8F90
:10365000BFF36F8F31F8022C596921F480715961E1
:10366000BFF34F8FBFF36F8F02F47F43B3F55F4F0C
:1036700004D1D2B2022A01D12368B9E7134B9A6A66
:10368000D2B23AB10DF1070201212046FFF7DCFE6C
:103690000346ADE79A6A12F47F4F05D00DF107019A
:1036A0000120FFF74BFFF3E79B6AB3F5803F9ED302
:1036B000FFF71AFFECE70DF107020021E5E70DF136
:1036C00007010020EDE76FF30802A9E700ED00E035
:1036D000044B5A6942F010025A615A6922F00802FA
:1036E0005A61704700ED00E0EFF30880EFF30981C5
:1036F00001B57246FFF756FF01BD00BF002080F301
:103700001488BFF36F8F0F4880F3088804F03CFBE8
:1037100000200D490860BFF34F8F00F02BF84020C8
:1037200080F3118809484FF40461401880F3098838
:10373000EFF314800221084380F31488BFF36F8FE6
:1037400000F0B4F88046002094ED00E0C034002082
:103750000749D1F890200023C2F30722184693426C
:1037600000DB7047C1F89830C1F8A0000133F6E7DC
:1037700000ED00E008B572B6002383F31388FFF76D
:10378000E7FF144B4FF0FF32C3F88020C3F88420CA
:10379000C3F88820C3F88C20C3F89020C3F8942085
:1037A000C3F89820C3F89C20C3F88021C3F8842173
:1037B000C3F88821C3F88C21C3F89021C3F8942161
:1037C000C3F89821C3F89C2162B6BFF34F8FBFF3B3
:1037D0006F8F08BD00E100E01EF0040F0CBFEFF397
:1037E0000880EFF30980816911F8021C0229FFD0DB
:1037F00001B5724606F04AFF01BD00BF40B2002885
:1038000007DB044A4109012300F01F00834042F80E
:103810002130704700E100E040B200280CDB430992
:10382000064900F01F0020330122824041F8232086
:10383000BFF34F8FBFF36F8F704700BF00E100E011
:10384000054B420900F01F0053F82220012303FA20
:1038500000F01040704700BF00E100E040B2D30725
:1038600054BF023100210028ACBF00F16040074A7C
:103870004FEA4113ACBF00F5614000F00F00DBB22E
:10388000B4BF135480F80033704700BF14ED00E05C
:10389000044B054A23F07F039360BFF34F8FBFF3C0
:1038A0006F8F70470010000000ED00E008B5FFF7D3
:1038B000EFFF074AD2F8883023F47003C2F888304B
:1038C000FFF776FDFFF780FD00F0B0F805F00AF88D
:1038D00000ED00E042F8203C009B42F81C3C0A4905
:1038E000019B42F8183C029B42F8143C21F0010174
:1038F0004FF0807342F8043C42F8081C0023203A41
:1039000002654367704700BF91220000094A0346E1
:10391000906870B113F1160F006E05D0A0F140024F
:10392000934205D3834203D2814228BF00207047CF
:10393000002070478C1C002008B515460B4A0C4B24
:103940009060026F1A600E4600F0A0F82C4686F3D5
:1039500009880020034B98472046002100220023BD
:10396000014C2047B1A60000912200008C1C0020D1
:10397000E80F0020014B10221A61704700ED00E0B3
:10398000054B5A699B689A421FBF044A536843F02B
:1039900080535360704700BF8C1C002000ED00E096
:1039A000084B9B6883420BD1EFF3058343B1064B71
:1039B0005A6842F080525A605A6A22F400425A62AF
:1039C00005F0C4BE8C1C002000ED00E014498A689C
:1039D0004FF030001044EFF3098C80E8F01F4020D6
:1039E00080F31288BFF36F8F0E4F4FF000664A6965
:1039F0008A603E60106F0C4C2060506F002353674C
:103A000080F3118804B5104600F040F8BDE804408A
:103A100002F1300090E8F01F8CF309887047000035
:103A20008C1C002004ED00E0E80F00200448002377
:103A30004021C2180133302B82F80013F9D17047AE
:103A400000E100E008B5EFF30583064A103B02EB06
:103A5000C30152F8330049688847BDE80840FFF7C2
:103A60008FBF00BFB0BA0000014800687047000077
:103A7000E80F0020024B034A0348012100F076B80A
:103A800000000420000000205CBD0000036E054A19
:103A9000403B1360044B4021C2E901131046012151
:103AA00000F06EB8EC0F002000000B15084AC2F8B9
:103AB00098000B6823F01F03034343F01003C2F880
:103AC0009C308B6843F00103C2F8A030704700BF00
:103AD00000ED00E02DE9F043DFF8608085B00E4690
:103AE0001F4604464FF00009B14523DA6068D8B19B
:103AF0003FB1411E08421BD11F2819D92368194222
:103B000016D12368019306F0F6FDA36803430393DF
:103B1000D8F89050C5F30725D0B2013DA84207D888
:103B200001A9FFF7C3FF421C09F101090C34DBE7CF
:103B30006FF01502104605B0BDE8F08300ED00E01F
:103B4000044B0522C3F89420BFF34F8FBFF36F8F50
:103B5000704700BF00ED00E0BFF35F8F024B002213
:103B6000C3F89420704700BF00ED00E010B5034C8F
:103B700001232278FFF7AEFF207010BDB02D00208A
:103B800008B50B4A00231278FFF7A4FF10F1160FB7
:103B900007D0084A0021D2F89030C3F30723984297
:103BA00000DB08BDC2F89800C2F8A0100130F2E7AF
:103BB000B02D002000ED00E02DE9F0435A4B5B4DA5
:103BC000D3F890302C68C3F307239C4285B000F2F1
:103BD000A780FFF7C1FF00200C2684421AD1544E63
:103BE000DFF8449134706846FEF760FC514C524D4A
:103BF00080460027B84514D133784B490020D1F8CE
:103C00009020C2F307229342C0F28480FFF798FF0E
:103C1000002045E0696806FB0011FFF747FF01300F
:103C2000DBE7009800EB07114FEA071CCB68234045
:103C3000B3F5000F4DD00AD8B3F5001F33D0B3F55C
:103C4000800F3BD0B3F5801F13D00137D2E7B3F11B
:103C5000007F47D0B3F1805F4DD0B3F1807FF4D1C6
:103C600050F80C3088684A6806F045FD40F08870CE
:103C700009E050F80C3088684A6806F03CFD40F0D6
:103C8000885040F43020CDE901230390D9F89030DA
:103C90003078C3F30723013B984234D96FF0150005
:103CA00005B0BDE8F08350F80C3088684A6806F02B
:103CB00022FD40F0885040F40020E4E750F80C303A
:103CC00088684A6806F017FD40F0007040F4003044
:103CD000D9E750F80C3088684A6806F00CFD40F0CF
:103CE0008270D0E750F80C3088684A6806F003FD0F
:103CF00040F48020C7E750F80C3088684A6806F026
:103D0000FAFC2843BFE701A9FFF7D0FE337801335F
:103D100033709AE7C1F89830C1F8A00001336EE71C
:103D20004FF0FF30BCE700BF00ED00E068BD0000D1
:103D3000B02D00200000F0FF0000021108B5064978
:103D4000064821F00701C1F1005202F5802206F079
:103D5000D3FA002008BD00BF87530020F80F0020D1
:103D60000C4B0122C3F840254FF080434FF08051A7
:103D7000C3F87825D1F83001082805D1D1F83411DD
:103D8000022908BFC3F838260122C3F88025002085
:103D9000704700BF00E0014048B1054B054A1B6871
:103DA000B3FBF2F35843044B43F001031847704749
:103DB0006001002040420F0010BD000008B5054A18
:103DC000054B136010463F23536004F0B9F8002000
:103DD00008BD00BF04100020FFFF07004FF0804324
:103DE000D3F84036DB072ED54FF01023D3F8043339
:103DF00003F00703072B26D1134A0123C2F8043529
:103E0000D2F80034002BFBD04FF01021D1F804334E
:103E100023F0070343F00403C1F804330023C2F87E
:103E20000435094AD2F80034002BFBD0BFF34F8F82
:103E30000649074BCA6802F4E0621343CB60BFF344
:103E40004F8F00BFFDE7704700E0014000ED00E04C
:103E50000400FA0510B50C460146084806F0F5FBCB
:103E600050B1012C08D150F8083C2BB15B691BB153
:103E7000BDE810400068184710BD00BF24100020A6
:103E800010B50C460146084806F0DFFB50B1022C85
:103E900008D150F8083C2BB11B691BB1BDE810409C
:103EA0000068184710BD00BF24100020F8B5154663
:103EB00090F900200378002A04460E4602DB6FF0DA
:103EC0001500F8BD03F01F03012BF8D14378062B32
:103ED000F5D1818847881248C9B23F0A06F0A7FB8E
:103EE0000028ECD0212F04D0222F0FD06FF08500B6
:103EF000E7E70368E1885B685B6813F8092F914284
:103F000094BF316032602B600020DAE7E38850F81C
:103F10000C2C9A4294BF3260336050F8103CF2E7A8
:103F2000241000202DE9F0410E4681880546C9B2D3
:103F30002548174606F07BFB0446002841D095F93A
:103F4000002000686B78002A1EDA012B04D0032BB6
:103F500010D06FF0850015E054F8083C002BF8D025
:103F60001C68002CF5D03B4632462946A446BDE8E5
:103F7000F04160476B88002BEBD1043C01233C608F
:103F800033600020BDE8F081092B14D00B2BE0D169
:103F900069880129DDD814F8043C8B42F1D054F82B
:103FA000083CC9B204F8041C002BEAD09B68002B23
:103FB000E7D09847E5E754F8083C002BC9D05C6887
:103FC000CFE76FF01200DDE72410002010B50C469B
:103FD00001461A4806F01FFB0346F8B1611E052989
:103FE0001CD8DFE801F0031B181C2224002200F873
:103FF000032C00F8022C13F8042C006801218A42DB
:1040000003F8041C0AD053F8083C3BB19B682BB161
:10401000BDE810401847012200F8032C10BD002213
:1040200000F8032C03F8022CF8E70122FAE710F855
:10403000022C002AF2D00022F4E700BF2410002056
:1040400010B50469C4E90012A36000236361064B44
:104050002061596804F1140211B9C3E9002210BDAE
:104060000A605A60FBE700BF2410002000F07F03C5
:10407000082B42B204D010F0780F01D00020704716
:10408000002A00F00F0300F0080004DA30B90548F8
:1040900000EB4310704718B90348F9E7034870472D
:1040A00003487047781000209811002078110020F4
:1040B000981200200149024807F0C2BA54100020AB
:1040C000C00500200146014807F075BAC80200206B
:1040D00002480022002304F037BE00BFC8020020BF
:1040E00013B5114800F0A4FE0446C8B90F4804F007
:1040F0003BFA0F4804F076FA0E490F4800944FF04F
:10410000FF334FF4806204F0F9FF0C490A4807F0CE
:10411000ADFA0B490B4807F077FA204602B010BD04
:104120006FF00404F9E700BF3543000026C000002B
:104130008CBD000080300020C005002009BF0000B9
:10414000514400005410002010B50E49BFF35B8F9E
:10415000002351E8002F012A03D141E80030002854
:10416000F7D1BFF35B8F0CD151F8044C14392046C2
:1041700006F0EFF9783004D12046BDE8104006F093
:10418000C4B910BD4C10002038B5002464F07F0085
:10419000C0B2FFF76BFF013406F0E2FA082CF5D14C
:1041A0000E4D0024E0B2FFF761FF036903B905611A
:1041B000013406F0D5FA082C05F14005F2D1084883
:1041C00006F0CEFA074BD3F87C2212B9064AC3F8A0
:1041D0007C22BDE83840054806F0C2BABC16002073
:1041E000781100202C100020BC1200209812002012
:1041F00008B5FFF76DFF20B14168024807F0F6F8F7
:10420000F7E708BD0002002007B500230E48002292
:1042100001A904F0E3FB90B1FFF7EAFF0A4800228E
:10422000002301A904F0DAFB38B9019804234060A7
:104230000374FFF747FFFFF73DFF002001E00198FF
:10424000406003B05DF804FB0002002010B5044696
:10425000FFF7DAFF60B1002202740472FFF732FF49
:10426000044B93F824301BB1BDE81040FFF722BF88
:1042700010BD00BF2C100020022803D8024B185C90
:10428000FFF7E4BF704700BF23C0000070B581781E
:1042900006460846FFF7EAFE0B06F578044612D5F7
:1042A000002D43D1FFF7B0FF034600283ED0012286
:1042B000A5770274032202739C60FFF703FFBDE839
:1042C0007040FFF7F7BE4DB1012D2FD1FFF79CFFD6
:1042D000034658B3657705740573EDE7FFF794FF60
:1042E00020B3B278124B12F0800F02F0080111D007
:1042F00041B1D3F8A836E3600123037402230373AA
:104300008460DAE702F00F02142101FB0233D3F8D4
:104310000836F0E711B1D3F8A837ECE702F00F0246
:10432000142101FB0233D3F80837E4E770BD00BF66
:1043300000700240F0B5064689B01422002103A89F
:1043400007F013FB3378013B052B21D8DFE803F09E
:104350007A0314146A1603238DF814300024FFF72F
:1043600053FF0346A0B1047400F10802DDE9050122
:1043700082E8030018461DE00423EDE7B178084603
:10438000FFF774FE837A044623B1013B022B43D925
:1043900009B0F0BD0B06F57813D5002DF8D1FFF765
:1043A00033FF03460028F3D00122A57702740322CD
:1043B00002739C60FFF786FE09B0BDE8F040FFF78E
:1043C00079BE55B1012DE3D1FFF71EFF034600284A
:1043D000DED0657705740573EBE7FFF715FF074639
:1043E0000028D5D00123037402230373846004F1F1
:1043F0000C01B07806F022FA134AE168B2F88C3268
:104400008B4206D95B1AA2F88C3201F05DF838466F
:10441000D0E7A2F88C52FAE7304609B0BDE8F04088
:10442000FFF734BF01A801F02DF89DF80530052BEA
:1044300004D19DF8043013F0600FA9D0034B05930D
:1044400001248CE702248AE72C1000209811002018
:104450002DE9FF41AD4C8046FFF73AFE074610B903
:1044600004B0BDE8F08194F825303A7C3BB9002ACD
:1044700000F085807968A64806F0B8FFECE7042ACA
:10448000F8D8DFE812F07C000500020118013301C2
:104490003B7BBD68032BEDD8DFE803F0023C595E9F
:1044A0006E699C4B002232607260D3F880143170C8
:1044B000D3F884147170D3F88814D3F88C0441EACB
:1044C00000217180D3F89014D3F8940441EA0021BC
:1044D000B180D3F89814D3F89C3441EA0323F380D5
:1044E0000823EB60306871688B4B03C311462B685F
:1044F000687A984796F90030002B07DBF3889AB268
:1045000022B1A4F88C3200F0DFFFB3E70023A4F857
:104510008C32AFE76B7F002BACD02B7F002BA9D068
:1045200000266E774FF0FF327C482E774FF0FF3336
:1045300006F029F96B6901936B68CDE9023601A990
:10454000687A00F0C7FC754806F01FF992E72B68FF
:104550000121687A98478DE7AB7A6BB9EB7F5BB93D
:104560006E484FF0FF324FF0FF3306F00CF900F0C9
:10457000B1FF6A4806F009F92B680221E9E73A7AA7
:10458000042A3FF677AFDFE802F05B032569750088
:1045900000F00EFC054600287FF46CAF00F048FBED
:1045A000BFF35B8F5E49012351E8002F002A03D13E
:1045B00041E800300028F7D1BFF35B8F7FF45AAF9A
:1045C00041F8085C41F8105CE0696361143905F05A
:1045D00051FF4FE7002565F07F00C0B2FFF746FDB1
:1045E000037A13B1407A01F0D7F80135082DF2D1E2
:1045F00094F854311BB194F8550101F0CDF8002521
:10460000E8B2FFF733FD037A13B1407A01F0C4F842
:104610000135082DF4D194F874321BB194F8750269
:1046200001F0BAF8002000F0A7FB012384F8253040
:104630002368002B3FF41EAF00210220984719E7A2
:10464000002584F8255001F00DF8FFF77DFD236863
:10465000002B3FF40FAF29460420EFE7002B3FF477
:1046600009AF00F0AFFB2368002B3FF403AF00213C
:104670000520E3E72268002A3FF4FCAE002B3FF45C
:10468000F9AE002106209047F4E608F110054FF03E
:10469000FF334FF0FF32284606F075F8FFF774FD40
:1046A000284606F072F858F8283C002B3FF4E2AE9A
:1046B00000210120C2E794F874327BB1012584F80F
:1046C000895284F88852FFF79FFD38B1154A057466
:1046D00005738260FFF7F6FCFFF7ECFC58F8283C06
:1046E000002B3FF4C7AE00210A20A7E706F0C4FD67
:1046F00000F0B8FF00F092FAFFF77AFDFFF744FDF3
:1047000006F0B3FD084800F093FBB3E62C10002040
:1047100000020020007002403010002064100020D1
:104720004C100020981200203543000038B5144C7E
:1047300094F824500DBB04F1380006F0B5FE28466D
:1047400001F07AF92A460121E0612720FFF786F877
:1047500006F08BFDFFF718FD012384F82430094B88
:104760001B680BB1FFF7A6FC4FF08043D3F8383439
:10477000DB0702D50120FFF769FD002038BD00BF2F
:104780002C100020C8020020074B93F824203AB1D7
:1047900093F82530002B0CBF6FF0120000207047FB
:1047A0006FF01200704700BF2C10002010B5104BA6
:1047B00093F824300146BBB104782046FFF756FC3D
:1047C00010B96FF0150010BD44720B7983724B88DD
:1047D000436008784988030702D44B1E0B42F0D18E
:1047E00006F027F80020EEE76FF01200EBE700BFBD
:1047F0002C10002010B5124B93F824200146CAB1AA
:1048000093F82530B3B1FFF731FC0446A8B1837AA1
:10481000012B12D007D9023B012B07D96369A36191
:104820000020E06010BD00F05BFEF7E7084600F0F6
:10483000FDFDF3E76FF01200F4E76FF01500F1E70C
:104840002C10002038B50E4B93F82420054682B179
:1048500093F825306BB1FFF709FC68B115F0080437
:104860000AD1284600F004FE284600F0CDFF20467D
:1048700038BD6FF01200FBE76FF01500F8E700BFDE
:104880002C10002038B50C4B93F8242005460C461C
:1048900062B193F825304BB1FFF7E8FB48B141B165
:1048A000284600F0CBFD2070002038BD6FF01200CC
:1048B000FBE76FF01500F8E72C10002070B5134EE1
:1048C00096F824300446C3B1FFF7D0FB0546B8B1D3
:1048D000230705D4204600F0CBFD204600F094FFCE
:1048E0002B7A83B901232B7296F825300BB900205F
:1048F00070BD204600F050FFF9E76FF01200F7E7B7
:104900006FF01500F4E76FF07700F1E72C1000204E
:104910002DE9F043DFF8DC801F4698F8243085B09D
:10492000044689461646002B5DD098F82530002BAA
:1049300059D003065AD5FFF799FB0546002855D0F4
:10494000037A002B52D04FF0FF334FF0FF3208F1C3
:10495000380005F018FFAB7F4BB108F1380005F0C7
:1049600014FF6FF00A04204605B0BDE8F08316B9C5
:10497000EB7F03B1EE77AB7ABBB95EB1B8F80A3022
:104980009E4207D26A68B6FBF2F302FB13630BB9CF
:104990000123EB7700F0AAFD844206D000F09AFDD7
:1049A000154805F0F2FE0024DDE701232046AB7731
:1049B0004FF0000801A9CDE90196CDF80C8000F078
:1049C00089FA044658B185F81E802FB96FF00404A7
:1049D000094805F0DAFEC6E7C7F80080F6E7002FC1
:1049E000F6D03E60F4E76FF01204BCE76FF01504F8
:1049F000B9E700BF2C100020641000202DE9F04121
:104A00001D46204B174693F824200E46002A33D02B
:104A100093F8253083B3030631D401B97FBBFFF788
:104A200025FB044658B3037A4BB34FF0FF331648C7
:104A30004FF0FF3205F0A7FEE368BB42984628BF5F
:104A4000B84646B93FB905B12B600F4805F09DFE49
:104A50000020BDE8F081A1694246304606F077FFAC
:104A6000A3694344A361E368A3EB0803E360002D5B
:104A7000EBD0C5F80080E8E76FF01200E9E76FF0CF
:104A80001500E6E72C1000206410002070B51E4DC4
:104A900095F82420034682B395F825206AB31B06B7
:104AA0002ED4FFF7E3FA044650B3037A43B34FF032
:104AB000FF334FF0FF3205F1380005F064FEE36884
:104AC000B3B9012663692677A361637F83B1FFF7DA
:104AD0009BFB30B905F1380005F057FE6FF00B0075
:104AE00070BD067484600673FFF7ECFAFFF7E2FA14
:104AF000064805F04AFE0020F2E76FF01200EFE7EB
:104B00006FF01500ECE700BF2C10002064100020AF
:104B100008B5084B93F824302BB1FFF7A7FA28B15A
:104B20000160002008BD6FF01200FBE76FF0150078
:104B3000F8E700BF2C100020014B1860704700BF41
:104B40002C10002008B5074B93F8243023B1FFF751
:104B50008DFA20B1406808BD6FF01200FBE76FF0DE
:104B60001500F8E72C100020064B10F0800F03F121
:104B7000D80218BF134600F00F00182202FB0030C5
:104B8000704700BFFC180020EFF31180402383F32F
:104B90001288BFF36F8F0A4BD3F8001C032261B950
:104BA00049F27531C3F8001CC3F8142DC3F8001C7A
:104BB00080F31188BFF36F8F7047C3F8142DF7E7A8
:104BC00000E00640EFF31180402383F31288BFF327
:104BD0006F8F0A4BD3F8001C61B949F27532C3F8E4
:104BE000002CC3F8141DC3F8002C80F31188BFF308
:104BF0006F8F70470022C3F8142DF6E700E00640DF
:104C00004FF08053D3F83031082B02BF024B002203
:104C1000C3F81C2C704700BF00700240024A0023FA
:104C20001360024A13707047B41A0020B52D00209B
:104C300008B54A4B4FF40062C3F8002405F0E3FDC9
:104C400008B1FFF7A1FF4FF08053D3F83031082BA4
:104C500018D1EFF31180402383F31288BFF36F8FD5
:104C60003F4BD3F8001CC02200296ED149F27531A8
:104C7000C3F8001CC3F8142CC3F8001C80F311887F
:104C8000BFF36F8F354B0122C3F80025D3F8002402
:104C90001205FBD54FF40062C3F800244FF0805397
:104CA000D3F83031082B17D1EFF31180402383F371
:104CB0001288BFF36F8F2A4BD3F8001C002947D10D
:104CC00049F27532C3F8002CC3F8141CC3F8002C49
:104CD00080F31188BFF36F8F05F095FD30B1FFF7BA
:104CE00071FF05F090FD08B1FFF74EFF4FF08053C4
:104CF000D3F83031082B194B0AD140F2E372C3F8D4
:104D000000284022C3F80428BFF36F8FBFF34F8FF2
:104D10008022C3F81C250122C3F83025114B40F234
:104D2000FF121A60104B00211960104B1970FFF729
:104D300067FF0F4B19700F4B02221A7005F063FDCD
:104D400050B1BDE80840FFF73DBFC3F8142C95E70C
:104D50000022C3F8142CBBE708BD00BF007002405E
:104D600000E00640B01A0020AC1A0020B12D00204F
:104D7000B32D0020B52D0020094B002210B51A706C
:104D8000084A094B094C002808BF1346C4F80033F1
:104D90002720FEF733FD0123C4F8043510BD00BF02
:104DA000B42D0020FDFFDF01FDFFFF010070024078
:104DB000034B1878012894BF00200120704700BFE2
:104DC000B52D002010B54FF0FF324FF0FF331548DE
:104DD00004F020F8EFF31181402383F31288BFF32E
:104DE0006F8F114B1B7803F0FF0483B10F4BD3F887
:104DF000002412F400720AD10120C3F82C05D3F864
:104E00002C05D3F80004800502D5C3F82C25002416
:104E100081F31188BFF36F8F024803F0C7FF20466C
:104E200010BD00BFA8020020B42D00200070024079
:104E3000F8B51C4B1C7894BB1B4A106001221A70F9
:104E400040F2FF17264664F07F0514F0080FEDB21C
:104E500014BF39464021284605F0EBFC2846FFF7F1
:104E600083FE0134092C867506730661EBD100249C
:104E700040F2FF17254614F0080FE6B214BF39467A
:104E80004021304605F0D5FC3046FFF76DFE013479
:104E9000092C857505730561EDD10020F8BD6FF013
:104EA0007700FBE7B52D0020B41A0020084B10F066
:104EB000800F14BFD3F81035D3F8143500F00F026B
:104EC000012090401840003818BF0120704700BFF3
:104ED000007002402DE9F843024605F0A2FCEFF312
:104EE0001188402383F31288BFF36F8F130703D118
:104EF000174B1B78934224D1164B174F1C683E6802
:104F0000E4434FF00109A4B209FA00F534432C4000
:104F10001AD11046FFF728FE80F80C90034607C907
:104F20001C6183E807009C750C4B2E4380223E6079
:104F30002046C3F8042188F31188BFF36F8FBDE8C2
:104F4000F8836FF00D00F6E76FF00F00F3E700BF96
:104F5000B32D0020B01A0020AC1A002000E100E0C0
:104F600010F0080F074B06D0D3F8C00410F4803FB0
:104F700018BF0020704700F00F0000F5947053F840
:104F800020007047007002402DE9F74F594BDFF8C1
:104F90006881D3F85421EAB10022C3F85421D3F830
:104FA0000413890216D58DF80420D3F82025ADF816
:104FB0000620D3F8C034002BD8F8003014BF4FF0CF
:104FC00001224FF480721343C8F800304B4B01A804
:104FD0001B689847474BD3F8604134B10022C3F8AF
:104FE0006021D3F86C44C3F86C44D3F828214AB14B
:104FF0000022C3F82821424B187805F012FC012347
:1050000083401C43DFF8FCA09AF800509AF9006036
:1050100015F0080005F00F0238D1002EB4BF3A4B4E
:105020003A4B91000B441968DFF8E49051B300212A
:105030001960304B88BB8E424FF0140101FB0233E4
:10504000B4BFD3F80836D3F80837324A117803F0E2
:1050500001034B401370FFF7D3FD2F4803F0A6FE6A
:105060002846FFF781FD837D032B1DD1284605F0DF
:10507000D8FB012303FA00F0D9F8003023EA00033B
:10508000C9F800301D4F0125062672E0234B244944
:1050900033EA260328BF0B46C5E7002EB4BFD3F87A
:1050A000A836D3F8A837D0E7037BE3B9284605F044
:1050B000B8FB012303FA00F0D9F80030002E23EAF0
:1050C0000003C9F8003001DA882DDBD106238DF802
:1050D000043000238DF80730084B8DF806501B680C
:1050E00001A89847CEE7002DCCD1024B0122DA640B
:1050F000C8E700BF00700240B01A0020B41A0020B8
:10510000B32D0020B22D0020087102403071024002
:10511000AC1A0020B12D0020A802002050710240DE
:105120002C71024094FAA4F3B3FA83F30F2BD8F84E
:1051300000201946C8BFA3F1100105FA03F342EAA3
:105140000302C8F80020D9F80020CCBFC9B241F052
:10515000800124EA030413400A0640F1938043B916
:105160008DF804608DF806108DF807303B6801A8B3
:105170009847002CD6D1A74BD3F800215AB1C3F8D9
:105180000041A54B1C70A54B1C7001230193A44B3F
:1051900001A81B6898479F4BD3F85821002A2ED0AE
:1051A0000022C3F85821D3F80044C3F80044E605B0
:1051B00008D5994B01221A7002230193984B01A83C
:1051C0001B689847A50508D5934B00221A70032346
:1051D0000193934B01A81B68984764050FD58E4B2C
:1051E0001A7862B100221A708A4B0122C3F808258E
:1051F0009A65042301938A4B01A81B689847854B45
:10520000D3F85C3123B3874B9B681BB99AF8003005
:1052100058061DD07F4B0022C3F85C21D3F88034A0
:105220007E4A23F07F031370D9F8003023F0011376
:10523000C9F80030D8F8003023F4803343F001037C
:10524000C8F8003005230193754B01A81B689847E7
:10525000D9F80020D8F800301A4200F0C880714810
:105260000022002303F0D6FD002840F0C080694BE7
:10527000D3F82C35002B44D06A4803B0BDE8F04F7A
:1052800003F094BD002B7FF474AF8DF804608DF8AB
:1052900006108DF8075069E70B4661E0003A69E0B7
:1052A0002046FFF75DFED5E90032B5F814C0904204
:1052B0009FBF121AC7182F606A6094BF0746002765
:1052C00060450CBF4FF0010C4FF0000C002A08BFE6
:1052D0004FF0000C002B53D0874251D20123B34032
:1052E00021EA0303C9F8003006238DF804304C4B43
:1052F0008DF8064002221B68AA758DF8072001A8C8
:105300009847D9F80010D8F800600E40B4D016F0D5
:10531000012314BF93FAA3F696FAA6F6B6FA86F618
:10532000F4B20F2EC6BF103CE4B244F08004204615
:10533000FFF71AFC4FFA84FBBBF1000F0546AFDA0A
:105340004368878A01689F4228BF1F4601F0604377
:10535000B3F1005FA0D034483A4606F0F8FA324B79
:1053600029686A6839442960A968D21BC9076A603C
:1053700094D53A1E18BF01222AB900222A7302E0EE
:10538000BCF1000FF9D04FF080520120D2F830214B
:10539000082A02BF1F4A8221C2F81C1CD8F800202C
:1053A0008AF8004000FA06F622EA0602C8F8002051
:1053B0002A6914F0080F3A442A61164A1AD1BBF13F
:1053C000000F04F00F044FF0140101FB0421A9BFEA
:1053D0000A3402EB8402C1F80037C1F80477AFBF8A
:1053E00042F82400C1F80036C1F80476506003B0DA
:1053F000BDE8F08FBBF1000FB5BFC2F8A036C2F810
:10540000A037C2F8A476C2F8A477B4BF5062906403
:10541000EDE700BF00700240B42D0020B32D002046
:10542000B41A0020A8020020BC180020024B40F44F
:105430008070C3F81805704700700240030713D44A
:1054400000F00F0310F0800F084A0BBF03F58873BC
:1054500003F5847302EB830252F8230008BF5068FF
:10546000003818BF012070470020704700700240CC
:10547000034BC3F80C0540F48070C3F80C0570476B
:10548000007002400023036043600E4BD3F8802479
:105490000270D3F884244270D3F88824D3F88C1493
:1054A00042EA01224280D3F89024D3F8941442EACD
:1054B00001228280D3F89824D3F89C3442EA032353
:1054C000C380704700700240014B0122DA647047CC
:1054D00000700240014B01221A65704700700240C3
:1054E000014B01225A65704700700240014B187849
:1054F000704700BFB32D002010B50246EFF31184B2
:10550000402383F31288BFF36F8F05F08AF90B49AC
:10551000012303FA00F00B6823EA00030B6012F08A
:10552000080101BF02F00F02054B02F5947243F827
:10553000221084F31188BFF36F8F10BDB01A0020C2
:1055400000700240F7B50146EFF31185402383F365
:105550001288BFF36F8FFFF707FB0646084605F07A
:1055600060F9012211F0800F02FA00F22D4818D1E3
:10557000036832EA03040AD00846FFF7BDFF03239D
:10558000B37585F31188BFF36F8F03B0F0BD264963
:10559000347323EA020303600B6823EA02030B60FF
:1055A000EDE70B0715D48029204B2FD001F00F0415
:1055B00004F2DA346400C3F80048D3F80448D3F89E
:1055C0000478E4B244F002043C43C3F80448D3F83E
:1055D0000438154F04683B6864EA030C1CEA020FA8
:1055E000CFD013433B60002333730323B3758DF88F
:1055F00007300F4B8DF8061024EA020406220460DF
:105600001B688DF8042001A89847BAE740F2B474EB
:10561000C3F80048D3F80448D3F80478E4B244F05F
:105620000404D1E7AC1A0020B01A00200070024038
:10563000B41A002010B504464FF0FF324FF0FF338C
:10564000064803F0E7FB2046FFF77CFF034803F022
:10565000ADFB034B8022C3F8042110BDA80200203B
:1056600000E100E0F8B54FF0FF324FF0FF332B4878
:1056700003F0D0FB2A4B8022C3F884212720FEF7B9
:10568000DFF898B1274E284B34681B686FF30F047E
:105690001C43012764BB254D40F2FF1333602720D4
:1056A000C5F80445FEF7B8F8C5F80043204A13785A
:1056B0008BB11E4B0021C3F808110121C3F800264D
:1056C000C3F804165960D3F808110029FBD0002153
:1056D000C3F808111170154B0022C3F80025FFF71D
:1056E0008FFA0E4803F062FB124B01221A70F8BDCC
:1056F00094FAA4F5B5FA85F50F2D2846C6BFA5F195
:105700001000C0B240F08000030701D4FFF71AFF79
:1057100007FA05F524EA0504BCE700BFA80200204B
:1057200000E100E0B01A0020AC1A00200070024036
:10573000B12D0020B52D002010B504464FF0FF32EA
:105740004FF0FF33114803F065FB2046FFF7FAFEE8
:1057500004F00F02012393400D4A14F0800F14BF90
:10576000D2F81015D2F814156FEA030315BF0B40D9
:105770000B40C2F81035C2F81435044803F016FB8C
:10578000044B8022C3F8042110BD00BFA8020020F2
:105790000070024000E100E070B50446FFF786FBB0
:1057A00068B904F00F02012514F0800F144B05FABC
:1057B00002F205D0D3F810150A43C3F8102570BDC6
:1057C000D3F814150A43C3F81425631E062BF6D824
:1057D000EFF31186402383F31288BFF36F8F2046C7
:1057E000FFF78AFE204605F01CF8064A136885403C
:1057F00023EA0503136086F31188BFF36F8FDEE79A
:1058000000700240AC1A0020030610B5044605D40F
:10581000FFF714FE10B12046FFF76EFE014BC3F8F0
:10582000184510BD00700240084B70B5C31A0D46F4
:1058300007499B10044659430648402205F01DF8CD
:105840002B4601462046BDE870401847CC1A002080
:10585000B76DDBB624BA000073B50C4C0C4A40237C
:10586000041B00930D460B460A49A41061430646EB
:10587000094805F02DF8014628B130462B4602B004
:10588000BDE87040184702B070BD00BFCC1A0020C0
:105890003FA90000B76DDBB624BA00000022F8B5BE
:1058A000012105461046FDF7D9FF104802F076FBAE
:1058B0000446B8B902F092FB2F690D49384604F04E
:1058C000C6FD031E09DB01263E642D69084905F16A
:1058D0001C0004F0BCFD031E02DA1C462046F8BD85
:1058E000EE64FBE76FF00404F8E700BF1D5A000008
:1058F00090BD00001FB500220123CDE902236C46B4
:10590000074A6B46CDE9004405F012F828B94FF478
:1059100080420023684603F07DFA04B010BD00BF4A
:1059200051A9000010B5EFF31184402383F31288CE
:10593000BFF36F8F074A136823F00201DB07116082
:1059400002D4012005F07DF984F31188BFF36F8F35
:1059500010BD00BF1C1B002030B4104B0C2202FBFA
:10596000003301460020D3E90E529863EFF3118013
:10597000402484F31288BFF36F8F1C6C04F0C004C2
:1059800044F002041C6480F31188BFF36F8F1DB1D3
:105990002B46034830BC184730BC7047CC1A002057
:1059A00024BA000010B4EFF31180402282F3128871
:1059B000BFF36F8F17490B6843F0020413F0010324
:1059C0000C601AD04FF08043D3F80C14D3F80C3489
:1059D00013F0010311D0EFF3118182F31288BFF3AA
:1059E0006F8F0D4A136C03F0C00343F0020313647E
:1059F00081F31188BFF36F8F012380F31188BFF308
:105A00006F8F1BB110BC0020FFF7A6BF10BC012098
:105A100005F00FB91C1B0020CC1A002010B1012882
:105A200004D07047034B1B6C5B0701D1FFF794BF99
:105A3000704700BFCC1A0020024AC3B21C2000FBF2
:105A400003207047CC1A00202DE9F0413849BFF3FC
:105A50005B8F8046012251E8003F41E8002000288A
:105A6000F9D1BFF35B8F33B9324933484B60CB6018
:105A70008A6004F0FFFC08F1FF33012B4BD8B8F12A
:105A8000010F07D14FF08043D3F81C3403F0030318
:105A9000012B40D005F0E4FD054658B1EFF3118627
:105AA000402383F31288BFF36F8F0125234F4FF0FC
:105AB00080441EE0224B1B78002BEFD04FF0804338
:105AC0000222C3F808230646F0E735B3304604F057
:105AD00003FED4F8183563B9D4F804214AB1C4F8E8
:105AE0000431D4F804310123C4F81835C7F88031E3
:105AF000A360D4F81824D4F81834D203E5D503F001
:105B00000303012B02D0B8F1010FDED155B186F3AA
:105B10001188BFF36F8FBDE8F0810021212005F0CF
:105B20003DFED6E74FF080430222C3F80423F2E79C
:105B3000C81A0020B81A0020E81A002000E100E08E
:105B40005D300020024B0B6001231360704700BFE3
:105B5000201B002000487047ACBD000010B501229A
:105B600011460648064C05F031FD05F06EFB20603D
:105B700005F067FB6060002010BD00BF281B0020FF
:105B8000201B00204FF08042D2F81015D2F81035BB
:105B900001F01E0123F01F030B4343F00103C2F881
:105BA0001035024B00221A70704700BFB62D00203E
:105BB0004FF08053D3F83031082B20D14FF0804282
:105BC000D2F81015CB071AD5D2F8103501F01E0106
:105BD00023F01F030B43C2F81035D2F808315BB134
:105BE000D2F8103523F01F030B4343F00103C2F832
:105BF00010356FF08B007047024B01221A700020A5
:105C0000704700BFB62D00202DE9F0410D46164625
:105C100005F017FB31460746284604F0A9FE78B385
:105C2000B5FBF7F307FB135353BBB6FBF7F407FBC6
:105C300014642CBBB7421DD84FF0FF324FF0FF3336
:105C40001148DFF8488003F0E5F805F0FAFA074656
:105C5000FFF7AEFF044680B9284602F05BFC98F8D7
:105C600000300BB1FFF78EFFF61B3D44F0D1064824
:105C700003F09CF82046BDE8F0816FF08B04F6E756
:105C80006FF01504F6E700BF281B0020B62D00209A
:105C90002DE9F8430E463046194617461C4604F0D7
:105CA00067FE88B346EA040515F003052CD1BCB1A4
:105CB0001748DFF860904FF0FF324FF0FF3303F0EA
:105CC000A9F824F00304AC4206EB05080BD1124AF4
:105CD000D2F80034DB07FBD500240D4803F066F84A
:105CE0002046BDE8F883FFF763FF50B97959404675
:105CF00002F02CFC99F800300BB1FFF743FF04359C
:105D0000E1E76FF08B04E8E76FF01504E8E700BF08
:105D1000281B0020B62D002000E001402DE9F043B3
:105D2000476840F20636D0063B7C87B002EA06069A
:105D300054BFC2F3401C4FF0030C01F01F05B6F531
:105D4000837F144645EA43158DF803C044D00DD82F
:105D5000062E16D005D8A6B1022E3FD06FF0150042
:105D600037E0B6F5807FF9D101260AE040F2022241
:105D7000964235D0B6F5407F34D0B6F5007FEDD1F0
:105D80000226220330D57A6801238B40C2F80835F9
:105D9000B868A0BB05F01F036D092DD0012D77D188
:105DA0003E4A02EB8302C4F30043D2F8001783F0AB
:105DB0000103C4F3404444EA430421F4E16144EAAA
:105DC0008C0421F0070144EA06230B43C2F8003794
:105DD000002007B0BDE8F0830726D2E70426D0E70D
:105DE0000526CEE70326CCE7630341BF01237A688B
:105DF0008B40C2F80C35CBE74FF0A042D1E70DF154
:105E00000202294605F08DF914F4403F80460CD17A
:105E1000B868294605F0BAF9B8F1000FD8D19DF855
:105E20000210B86802F072FAD2E74FF0000901AB35
:105E3000CDE90199CDE90439CDF80C90B86803AAF1
:105E4000294605F043F84845C2DB14F4003314D06A
:105E5000C4F300449DF803308DF80E3084F0010443
:105E60008DF80C608DF80D40B8684B4603AA2946A2
:105E700005F0DFF80028CFDAAAE7CDE904330DF109
:105E800003030393B86803AA294605F01FF8F1E756
:105E900003F5E07350F82330FFDE00BF000300502D
:105EA000420970B5034602D0012A17D070BD0D4ECD
:105EB000326951680029F9D003F01F0301250C68ED
:105EC0009D400029F2D08A682A4002D04B683046B3
:105ED00098472CB1236821461C46F2E7024EE7E7BB
:105EE0002346F8E75CBA000040BA000038B54568C0
:105EF000A86890B105F044F9014670B9A86805F0AA
:105F000023F9044658B902460649A86805F006F97F
:105F1000224605210620FDF7A1FC002038BD6FF0C8
:105F20000400FBE7A15E0000F0B544681646A068D7
:105F3000227C01F01F0587B045EA421500286DD08C
:105F4000B6F5001F04D1294605F073F9002056E08C
:105F50006268607CC2F8240501AA0020B6F5800FB3
:105F60000190506037D1B3F1007F14BF05230423A3
:105F70008DF804300023CDE904230393E36823FA6A
:105F800001F111F001010DF103073AD1B6F1A07F43
:105F900037D105F01F036A0903F5E07326D0012A03
:105FA0003FD1214A52F82330DB072AD4A0683A4671
:105FB000294605F0B6F816301BD00297A06803AA50
:105FC000294604F083FF002819DBA0680122294636
:105FD00005F0DEF8BAE7B3F1C06F05D0B3F1007F8A
:105FE00014BF01230223C3E70323C1E74FF0A042FC
:105FF000D8E7A068394602F08FF90028DDDA07B04B
:10600000F0BDA0683A46294605F08BF80028D5D1A6
:106010009DF80310A06802F079F9CFE76FF08500D2
:10602000EDE751F82330FFDE0003005070B5012387
:1060300083400F4ABFF35B8FDC4352E8001F01EA45
:10604000040542E80056002EF7D1BFF35B8F4FF4F2
:10605000803282400748C0F80823BFF35F8FBFF348
:106060006F8F03EA0100003818BF012070BD00BF28
:10607000541B00200010014070B41249D1E90034D3
:10608000D01AC31844F1000422F07F46C1E900345D
:10609000A6F50013B3F5400F09D20B4B1B681A0A83
:1060A0001B069C19094B42F10005C3E90045EFF3BB
:1060B0001181402383F31288BFF36F8F70BC03F00C
:1060C00033BD00BF70060020581B0020780600205A
:1060D00011B3BFF35B8F0123104A834052E800CF16
:1060E0004CEA030C42E800C10029F7D1BFF35B8FF3
:1060F0000B4A4FF480338340C2F80433094BBFF39B
:106100005B8F1B68BFF35B8FC340DB0742BF064B4F
:106110004FF40032C3F80021704700BF541B002029
:1061200000100140501B002000E100E00D4B1868FA
:10613000010A0006BFF35F8F0B4BD3F80435181824
:1061400041F10001B3F5801F0AD2084BD3E90023C7
:10615000904271EB030303D210F1807041F1000112
:10616000704700BF581B0020001001407806002037
:106170002DE9F04F85B016461F469DF840A0044615
:10618000FFF754FF0190FFF7D1FFB04271EB070317
:106190005ED23E4B301A67EB0101984271F100016B
:1061A00009D36FF0150520460199FFF791FF2846A6
:1061B00005B0BDE8F08F364B03EB0413D3E902239F
:1061C0009F4208BF964254D032494FF4803804F1C0
:1061D000500508FA04F8AD00C1F848832046ADB276
:1061E00004F057FC26F07F4B05F1804504F5A873B9
:1061F00005F58835DC464FF003090293029A2CF02E
:106200007F4341F82230C1F84483D1F80435224A53
:106210006FF00200C01A604420F07F40904228D9FD
:10622000286868B1D1F804350393A3EB0B0020F084
:106230007F40B0F5000F1CD9204604F02AFC039BD8
:10624000BAF1000FADD109EB030C09F10109D5E753
:10625000BAF1000FA5D10123104ABFF35B8FA34011
:1062600052E8000F184342E800010029F8D1BFF3BB
:106270005B8F07490E98230101EB0412C8500F9B56
:106280005360C2E9026700258DE700BF010080006E
:106290006006002000100140FDFF7F00501B002021
:1062A0007FB51C4C1C4BC4F80833C4F848331B4B57
:1062B00000254FF0FF304FF0FF31C4F80855C3E917
:1062C00002014FF48033C4F80433154B02264FF417
:1062D00000320121C4F804631120C3F880212A464A
:1062E000FDF7BCFA1120FDF789FA0E4A0123A360DD
:1062F000236013600C4B0D4A0093CDE90155002338
:106300002846FFF735FF3046FFF79EFB284604B0CE
:1063100070BD00BF0010014003000F0060060020A8
:1063200000E100E0541B002079600000FFFF7F00C7
:106330002DE9F7432B4CD4F8043399070BD5D4F847
:10634000043143B1284A0023C4F80431D4F804319D
:10635000136801331360D4F80433DA0323D5BFF391
:106360005B8F224B53E8002F22F0010143E800101D
:106370000028F7D1BFF35B8FD30702D4D4F84031A4
:106380008BB10025C4F84051D4F84031FFF7CEFE60
:10639000EFF3108272B6164BD3E90267B042B941EF
:1063A00004D282F3108803B0BDE8F0834FF0FF38C9
:1063B0004FF0FF39C3E90289D3E900101D604FF4A3
:1063C0008033C4F84833C4F84051D4F8403182F3E4
:1063D00010880029E7D0009032463B46284688477F
:1063E000E1E700BF00100140581B0020501B0020B7
:1063F0006006002030B5431C124C85B005D08442A5
:10640000A8BF0446012CB8BF0124FFF78FFE0E4B36
:106410000C4DD3E90013401AB0F5000F10D222182A
:10642000AA4228BF2A4652184FF00000074900919F
:10643000CDE9010043F10003FFF79AFE05B030BD3E
:106440002A46F0E7FFFF7F00700600207960000019
:1064500008B5FFF76BFE024B1B68C01A08BD00BFF2
:1064600070060020042812D8DFE800F00D03110D9B
:106470000300084BA0221A60074B1872074BC3F8A1
:10648000100501207047034B4FF49672F3E700208C
:10649000704700BF601B0020501C0020001000400F
:1064A000014804F022BF00BF500100201FB5114B6E
:1064B00093F90A001B7A013BDBB2032B9CBF0E4A07
:1064C000D25C0E4BDB7C4FF0000188BF05220091AF
:1064D00003F5166303A9FAF743FE9DF80D00FAF7DA
:1064E00039FE9DF80C20064BC3F80C2505B05DF86D
:1064F00004FB00BF501C002027C000003801002012
:106500000010004038B500281349144840F20445F3
:1065100008BF4FF48065FAF7FFFD044648B9FAF763
:10652000EFFD204601F068F90D4B1B68C3F80052DF
:1065300038BD0C4BDB7C002B0B4B0CBF812228227F
:10654000C3F848250022C3F84821D3F848214FF466
:106550008022C3F80423E7E7D800002008010020C8
:1065600050010020501C002000A00040B0F5A47F86
:1065700009D1054B1A68D2F8003223F4806323F066
:106580000403C2F8003270475001002010B50949D9
:106590000948FAF7C7FD044650B9FAF7B1FD20469D
:1065A00001F02AF9054B1B6840F20442C3F80022AF
:1065B00010BD00BFD80000202001002050010020A5
:1065C000837842781B0443EA022302781343C2789B
:1065D00043EA0253027943EA8253427943EA02636F
:1065E000827943EA8263C27943EA4273094AC2F874
:1065F0001435837A417A1B0443EA0123017A0B4361
:10660000C17A43EA0163017B43EA4163C2F818356A
:10661000704700BF001000401FB504460D22002146
:10662000684605F0A2F90A4B00930A4B5B7CE0B286
:10663000013B8DF808008DF809008DF80A30684696
:1066400001238DF80B30FFF7BBFF04B010BD00BF76
:10665000000101003801002008B5FAF769FD0C4976
:106660000C48FAF75FFD0C4B1A7812B9587CFFF70B
:10667000D3FF0A4B0A4AC3F8042540F21712C3F8A5
:106680000022084B084A1A60084B06221A7008BDFF
:10669000D800002020010020501C002000100040E5
:1066A0000F3000205C1B0020B16800005330002038
:1066B00010B51C4B1B6801241C6101F0BFF8FAF7F0
:1066C0003DFDFAF723FD20460021174C01F03CF96F
:1066D0000023C4F80032154B1A7812B9587CFFF722
:1066E0009BFF134BC4F804350023C4F81031D4F8D1
:1066F0001031012323610C4BD3F81021002AFBD069
:106700000021C3F81011D3F8102140F21712C3F87A
:106710000022012001F0ACF8FFF738FF054B012201
:106720009A6110BD5001002000100040501C002054
:106730000F300020004001401FB518490B7823B1ED
:10674000012B07D005B05DF804FB05B05DF804EB44
:10675000FFF762BF0022CDF809208DF80B30104BF7
:10676000CDF805205B7CCDF80120013B8DF80A3087
:1067700020238DF808300B7A03228DF80220012B9C
:106780004FF006028DF8002001D0042B02D1012326
:106790008DF805306846FFF713FFD3E7501C002043
:1067A00038010020064BBFF35B8F53E8001F014305
:1067B00043E80012002AF8D1BFF35B8F704700BF97
:1067C0006C1B002008B5084804F082F958B107484E
:1067D000436A0133082B28BF00234362BDE8084009
:1067E000283004F088B908BD441C00201C1C00207F
:1067F000F8B50646284804F06BF907280D4649DC31
:10680000264B274F1A78012A39D13B78C3F305026A
:1068100003F03F03202B3DD8224B196A53F8213057
:106820001A70204C2049236A54F8230010F8052BD5
:1068300005F08DF8236A54F823305E701B4B226AF2
:10684000D3F8483554F8222003F07F039370236A6D
:1068500054F823301D71236A54F823207B78DB43DE
:1068600003F00103D370236A0133082B28BF0023F0
:1068700004F12800236204F04AF90120F8BD094A16
:10688000116A52F82120597809B91170C9E75B7C67
:106890001370C6E70020F1E7181C0020501C0020F0
:1068A0000F300020F01B00201130002000100040AD
:1068B0002DE9F84F6B4AD2F8003413F0010803D1E8
:1068C000BDE8F84FFFF7F4BE674804F001F9072868
:1068D000F6DCD2F80834654EDFF89491D2F80C4417
:1068E00099F80120DBB2C2F3410136F8230084425B
:1068F0004FEA830704D1F0198078814200F090803C
:106900004FF0000AF2195B4C9170564AD2F80C24F1
:1069100026F82320A37C23B199F80130DB0740F14E
:106920009D80FAF70BFC54495448554DFAF7F4FB97
:106930002478002C00F08780012C47D1494B514826
:10694000D3F8081404F0C4F8002875DDDFF838B176
:10695000C9B25BF82130002B6ED0F0194B4AC078D9
:106960001C681460C8B1BAF1000F16D183F804A0F6
:106970005BF8213043489B684BF8213004F0BBF8AA
:1069800004F0A6F80028414A4EDD5BF8214004B12E
:10699000246814600120FFF705FFF319002C45D08F
:1069A0000122DA7022782B78394862F305032146F8
:1069B0002B7011F8052B04F0CAFF6B7899F80120B1
:1069C00023F0070302F0070213436B70314B0722D9
:1069D0001A70FFF76BFD234BD3F80824D2B2C3F82B
:1069E0002C2540F21B12C3F80455C3F800222A4B91
:1069F0002A4A1A60B8F1000F10D01A4B3E44D3F85F
:106A00000804B178C0B2FFF7F3FE38B10420FFF7F5
:106A1000C9FE234B4FF48012C3F80021BDE8F88F64
:106A2000C2464FF000086DE75446B2E7DC702B78A1
:106A300064F305032B70C0E7F3190022DA702B789A
:106A400062F30503F6E72046FFF7E6FD2B7899F899
:106A500000206C7062F301032B70B7E7FFF728FE8C
:106A6000C8E700BF00100040181C0020EC1C0020EC
:106A70000F300020501C0020D8000020080100200A
:106A800031300020441C0020701B0020481C0020D6
:106A900033300020533000205C1B0020596600007A
:106AA00000E100E0684620F007018D4601B5204B6B
:106AB000D3F80423D1060BD5D3F8102142B100221C
:106AC000C3F81021D3F810311A4B1B6803B1984753
:106AD000174BD3F8042312071ED5D3F80C21DAB1D3
