:1010000080460020BD38000055A80000A938000027
:10101000A9380000A9380000A9380000000000002D
:1010200000000000000000000000000099390000EE
:10103000A9380000000000008D3B0000A938000026
:10104000053C0000656C0000053C0000053C00000C
:10105000053C0000053C0000053C0000053C00008C
:10106000053C0000053C000061660000053C0000F6
:10107000053C0000053C0000053C0000053C00006C
:10108000053C0000053C0000053C0000053C00005C
:10109000056D0000053C0000053C0000053C00001B
:1010A000053C0000053C0000053C0000053C00003C
:1010B000053C0000053C0000053C0000053C00002C
:1010C000053C0000053C0000053C0000053C00001C
:1010D000053C0000053C0000053C0000053C00000C
:1010E000053C0000053C0000053C0000053C0000FC
:1010F000053C0000053C0000053C0000053C0000EC
:10110000014B1B685B68184700000020014B1B68FF
:101110009B68184700000020014B1B681B6918479B
:1011200000000020014B1B685B691847000000208D
:10113000014B1B689B69184700000020014B1B688E
:10114000DB69184700000020014B1B681B6A184729
:1011500000000020014B1B689B6A1847000000201C
:1011600030B4044C9DF8085024680295E468A44605
:1011700030BC6047000000209F130000A513000052
:10118000A7130000CD130000AB130000D71300001D
:10119000B1130000E1130000B7130000ED130000CD
:1011A000C3130000C7130000B9130000BF130000F1
:1011B000DD130000E713000030B50346114890F935
:1011C0001C209A4219DD90F924209A4217DA9A1AC3
:1011D000846AA05C0C4A15569D420DD00E3200293F
:1011E00018BF01309442C0B206D129B1013BDBB235
:1011F000012B01D80130C0B230BD0D20FCE700202A
:10120000FAE700BF9003002050BE000008B5054B70
:1012100093F91C30984203DAFFF7CEFF024B1B56BE
:10122000184608BD9003002050BE000008B5184BBA
:1012300093F82C20FAB9012283F82C20154A126861
:10124000A2F10800082803D813490141C90709D5AC
:10125000911F092910D9013212D04FF4DF71742087
:1012600000F034F80D4A9A62D8221A6283F82420DA
:1012700008229A611A7708BD094A0A41D207ECD4BC
:10128000084A9A62D8221A6283F824200422F0E7DE
:101290009003002040050020DEFEFFFF8BBE000013
:1012A000EEFCFFFF5EBE0000BFF34F8F0549064B0B
:1012B000CA6802F4E0621343CB60BFF34F8F00BFF4
:1012C000FDE700BF00ED00E00400FA051FB572B6AF
:1012D000134B5D6895B9FFF7E7FF2346B2FBF6F2C3
:1012E0005C1C002AF9D104AEDCB256FA83F303F891
:1012F0000C2C0A2234B901A8A847ECE702460023C7
:101300000A26EDE7631E04AEDCB256FA83F3B0FBA7
:10131000F2F602FB1600303003F80C0C3046E9E719
:10132000080500204FF08052034BD2F830111960AD
:10133000D2F834215A6070474005002053B94AB9A9
:10134000002908BF00281CBF4FF0FF314FF0FF30CD
:1013500000F00CB8ADF1080C6DE904CE00F059F8BE
:10136000DDF804E0DDE9022304B07047704700BFF8
:1013700008B5FFF7D7FFBDE80840FFF757BF801A51
:1013800000F3070038B540B20D4659B21446FFF7D6
:101390003DFF002328706B70204440B238BD00230D
:1013A000036070477047002070474FF0FF30704770
:1013B0004FF0FF30704770474FF0FF30704700200C
:1013C0007047002070470023037070479DF800307D
:1013D0000022FFF7D4BF4FF0FF3070470020704766
:1013E0004FF0FF3070474FF0FF307047704710F8F4
:1013F000012B11F8013B012A28BF9A42F7D0D01ADD
:101400007047034613F8012B002AFBD1181A013844
:1014100070472DE9F0478C468E46089E15460446D7
:101420001946002B40F0D080724547D9B2FA82F7B6
:101430004FB1C7F120030EFA07FC20FA03F3BD40B9
:1014400043EA0C0CBC404FEA154EA8B2BCFBFEF8B8
:10145000230C0EFB18CC08FB00F943EA0C4399451A
:1014600028D9EB1808F1FF3204D2994502D9A8F126
:1014700002022B44A3EB0903A4B2B3FBFEFC0EFB58
:101480001C330CFB00F044EA0344A04214D92C198D
:101490000CF1FF3304D2A04202D9ACF102032C4478
:1014A000241A43EA02401EB1FC40002334607360FA
:1014B000BDE8F0874246DDE76346F1E7002A79D0D0
:1014C000B2FA82F3002B3FD01946C1F1200302FA91
:1014D00001F52EFA03F20EFA01FE20FA03F343EAB5
:1014E0000E034FEA154E00FA01F4B2FBFEFCAFB258
:1014F0000EFB1C201A0C0CFB07F842EA0042904538
:101500005AD9AA180CF1FF3004D2904502D9ACF197
:1015100002002A44A2EB08029BB2B2FBFEFC0EFBC7
:101520001C220CFB07F743EA02439F4246D9EB1803
:101530000CF1FF3204D29F4202D9ACF102022B44DB
:10154000DB1B42EA004202E0AEEB020301224FEA5B
:10155000154EAFB2B3FBFEFC200C0EFB1C330CFB94
:1015600007F840EA034398452AD9EB180CF1FF30FD
:1015700004D2984502D9ACF102002B44A3EB080336
:10158000A4B2B3FBFEFC0EFB1C330CFB07F744EAD2
:101590000344A74216D92C190CF1FF3304D2A742F9
:1015A00002D9ACF102032C44E41B43EA00400F468D
:1015B000114678E71F2188E76046ABE76246BFE740
:1015C0006046DBE76346EFE7734506D916B90021AD
:1015D00008466DE7C6E9000EF9E7B3FA83F787B965
:1015E000734501D3824207D8841A6EEB03030120AE
:1015F0009C461EB900215BE73846FAE7C6E9004C75
:10160000F8E7C7F1200CBB4022FA0CF51D4320FA85
:101610000CF12EFA0CF30EFA07FE41EA0E014FEA26
:10162000154900FA07F4B3FBF9F81FFA85FE09FB28
:1016300018300B0C08FB0EFA43EA00439A4502FAF5
:1016400007F240D9EB1808F1FF3004D29A4502D9CD
:10165000A8F102002B44A3EB0A0389B2B3FBF9F80B
:1016600009FB183308FB0EFE41EA03418E452CD9D5
:10167000691808F1FF3304D28E4502D9A8F102039C
:10168000294443EA0040A0FB0298A1EB0E0141452A
:10169000CE46434602D306D14C4504D2B9EB020EE6
:1016A00068EB05030138002EA4D0B4EB0E0261EB09
:1016B000030101FA0CFC22FA07F34CEA0303F94098
:1016C000C6E9003196E74046C5E74346D9E7000042
:1016D000F0B58FB00021252204A8CDE901110391B6
:1016E0000AF023FAEFF31187402484F31288BFF342
:1016F0006F8F3B4B1978002954D03A4B18685968C2
:101700001E785D789C7801AA03C2986810601979E8
:10171000D8785A799B7987F31188BFF36F8F8DF84A
:1017200006408DF80A308DF804608DF805508DF86C
:1017300007008DF808108DF8092001AB03CB0C27AA
:10174000CDF815001868ADF81070CDF81D00002711
:1017500004A88DF81370CDF8191005F01BFF04468E
:1017600018B12148012108F01CFD0AF0A2F94FF43C
:101770007A75A0FB053205FB0121DB0B43EA4143EF
:101780001A4AC90B54B1D2E9004040F2E9351C1B9A
:1017900061EB0000AC4270F1000001DBC2E90031F6
:1017A0000FB0F0BD87F31188BFF36F8F104808F0BA
:1017B000F8FCEFF3118584F31288BFF36F8F0D4BA4
:1017C00018780D4B19780D4B1A780D4B1B7885F353
:1017D0001188BFF36F8F012403255A269FE700BFAE
:1017E0004F1D0020501D0020D4080020C0050020FF
:1017F000D0080020712D0020722D00206F2D0020B8
:10180000702D002010B500F00700EFF31184402385
:1018100083F31288BFF36F8F0F4A104B117811B109
:101820001978814214D00E4918700B7801330B706F
:1018300001230121117084F31188BFF36F8F4BB125
:10184000084808F0AEFCBDE81040074808F0A9BC05
:101850000023EEE710BD00BF6F2D0020722D002089
:10186000712D0020D0080020D408002070B54988D0
:10187000080A0228C9B214D1012940F0AC801268CC
:10188000002A40F3A8801B68002B00F0A480012AE6
:10189000187802D001283BD15878FFF7B3FF002019
:1018A00070BD032840F0978004295ED11268002A99
:1018B00040F391801B68002B00F08D80082A26D908
:1018C0001A78042A00D10133EFF31184402282F305
:1018D0001288BFF36F8F414E41493278081D0AB319
:1018E0001A78102A1ED04D795A7895421AD10822BA
:1018F00019460AF022F970B984F31188BFF36F8F8B
:101900000121384808F04DFCFFF7E2FEC7E7DBD0C5
:101910006FF01500C4E784F31188BFF36F8F6FF089
:101920000F00BDE75A220A702F4D03224A7002228F
:101930008A702A780132D2B2CA702A701D684D604E
:101940005D6845602948012101705878284B317045
:101950001870284B1A70284A00231370274A136006
:1019600084F31188BFF36F8FCBE7032997D0052944
:1019700031D1116800292EDD1A6862B31429137859
:1019800002D9052B08BF5378EFF31182402181F370
:101990001288BFF36F8F022B11D0032B13D0012BB2
:1019A00014D1174900230B8016490B8016490B8070
:1019B00016490B8082F31188BFF36F8F6FE7144BCA
:1019C00001211970F6E7124B0021FAE782F3118822
:1019D000BFF36F8F9CE76FF0850061E74F1D00201C
:1019E000501D0020D40800204A1D00204E1D00205C
:1019F0004D1D00204C1D00204B1D0020C80800205C
:101A0000F81C0020F61C0020F41C0020F21C002012
:101A10006E1D00202DE9F04385B00C4616460546A4
:101A200008F0F6FB16F17F0F94F8029094F803800B
:101A3000864648DB7E2E49DC72B26068A16802AB44
:101A400003C3EFF31187402383F31288BFF36F8F33
:101A50001F4B1B7883BB1F4E3488B4F5807F09D1A0
:101A60001D490B880133DBB20B801C490B88013305
:101A70000B80FF24DFF868C08DF80720BCF8003029
:101A8000184ACDF800E08DF804508DF805908DF8D7
:101A90000680EE4602EB0312754603CD516004A9A1
:101AA0008D421060AE4602F10802F5D10133DBB27F
:101AB0000134ACF80030348087F31188BFF36F8FA6
:101AC00005B0BDE8F0836FF07F02B6E77F22B4E790
:101AD0006E1D0020F41C0020F61C0020F21C0020CB
:101AE000F81C00206F1D00202DE9FF471E464B8883
:101AF00015461A0A032A40F0CF80DBB2032B3CD1F3
:101B0000EFF31184402383F31288BFF36F8F644F88
:101B10003B782BBB4FF6FF70624903230B70624B7F
:101B20001B784B70614B1B788B70614B1B88CB70A3
:101B30001B0A0B715F4B1B784B713B780BB15E4BF3
:101B40001B78C871000A8B71087284F31188BFF387
:101B50006F8F092331602B60002004B0BDE8F0874F
:101B600008F056FB554B1B68C01A554B9842D1D212
:101B70004FF47A73B0FBF3F0CEE7042B20D1EFF3F0
:101B80001182402181F31288BFF36F8F4D490B7092
:101B90004D4B1B784B704D4B1B788B704C4B1B780F
:101BA000CB704C4B1B780B714B4B1B684B71180A5D
:101BB0008871180C1B0EC8710B7282F31188C6E76E
:101BC000052B69D110220021684609F0AEFFEFF322
:101BD000118C402383F31288BFF36F8FDFF8FCE092
:101BE000BEF80040002C55D0DFF8F4803D4BB8F82B
:101BF000002003EB0213E94603F1100A1868596844
:101C00004F4603C708335345B946F7D10132013C6B
:101C1000D2B2A4B2A8F80020AEF800404FF00109FB
:101C2000314BB3F80080314BB8F1FF0F28BF4FF0B4
:101C3000FF0893F800A05FFA88F88CF31188BFF3CF
:101C40006F8F10222A48002109F06FFF284A0523D0
:101C5000FF2C02F8053C49EA4A0A4FF0010328BF6D
:101C6000FF24571F7B7087F802A0FC7087F8048060
:101C7000B9F1000F0BD06B4614461A4603CA6160D7
:101C800004A98A422060134604F10804F5D13760A4
:101C9000152360E7A146C3E76FF085005DE700BF4D
:101CA0005C1D00202F1D0020601D00205F1D0020F6
:101CB000F01C00205E1D00205D1D0020CC080020CF
:101CC00018FCE703411D00204E1D00204D1D002083
:101CD0004C1D00204B1D0020C8080020F41C0020D3
:101CE000F61C00206F1D0020F21C00206E1D00203D
:101CF0001F1D00207FB5EFF31186402383F3128868
:101D0000BFF36F8F0D4D2C7844B10D4A10685168A8
:101D100001AB03C39068186000232B7086F3118811
:101D2000BFF36F8F24B1002201A90A20FFF772FED2
:101D3000044804B0BDE8704007F018B9611D0020E8
:101D4000621D0020B8020020013808B505281FD800
:101D5000DFE800F0191E03190D070E48012108F0F5
:101D600020FABDE808400C48002108F01ABA012109
:101D7000094808F016FA094807F052F90748BDE883
:101D8000084007F0F3B80348002108F00AFAEFE72B
:101D900008BD00BF0409002000090020B80200208F
:101DA0001FB50446002201460023114809F04DFCEE
:101DB000E0B1104808F020FA21466FF01B02032022
:101DC000FFF728FE0A480022002301A906F078FF49
:101DD00050B9074800220023214609F036FCB0FA2A
:101DE00080F0400904B010BD0020FBE70120F9E7B6
:101DF00080020020E00800202DE9F04F0378022B3C
:101E00008BB005D1A94EA94805F06EFC044610B16F
:101E10000BB0BDE8F08FA64808F0EEF996F9021075
:101E2000A44808F0BEF933780C2B03D0A24808F080
:101E3000E3F9E8E7A14A1068516804AB03C390686E
:101E4000186008F0E5F901469D4808F0AAF99DF8E8
:101E50001030A52BEAD19DF81130032BE6D1EFF31A
:101E60001182402383F31288BFF36F8F954D2B7837
:101E700082F31188BFF36F8F934ABFF35B8F1268B1
:101E8000BFF35B8F02B91BB19048012108F089F9BB
:101E90009DF81230132B2DD1EFF31180402383F3E3
:101EA0001288BFF36F8F8A4B9DF814201A70894BEC
:101EB000894A9DF8151019709DF816301370874ADD
:101EC0009DF817401470864A069C14602A7842B127
:101ED000844A54798C4204D1D2789A4204BF0023B8
:101EE0002B7080F31188BFF36F8F7848012108F0C1
:101EF00058F988E7042B44D19DF81430642B95D809
:101F00009DF81530042B91D8BDF81630A3F52F633A
:101F10009BB240F2DC52934288D89DF81930D90721
:101F200084D50F2B82D89DF81A309DF81B201343BF
:101F30007FF47CAFEFF31184402383F31288BFF367
:101F40006F8F694B9DF814201A70684B9DF815200F
:101F50001A70674BBDF816201A80664B9DF8182042
:101F60001A70654B9DF819201A7008F051F9634BEF
:101F70001860634B01221A7084F31188BFF36F8FCE
:101F800041E7032B5FD19DF81430032B57D1DFF8C5
:101F9000748198F80050002355B108225A480DEB7F
:101FA0000201CDE9023309F0C8FD051E18BF012565
:101FB000564F3B7853B10023554808226946CDE976
:101FC000003309F0BAFD041E18BF0124514A002352
:101FD0001370514A88F800301370504A3B701370E8
:101FE0004F4A1370484A13605360494A1360536064
:101FF000EFF31182402181F31288BFF36F8F4049C4
:102000000B703D490B703B490B703C490B6082F3F0
:102010001188BFF36F8F35B1424A099307A8CDE904
:102020000723FFF7BDFE002C3FF4EDAE3E4A002330
:1020300007A8CDE907230993FFF7B2FEE3E6022BD9
:102040003FF4E1AEF2E6002204A90120FFF7E2FC32
:102050009DF81230012B21D12A4DDFF8AC902B785E
:102060002C4FDFF8B880002B62D09DF813B098F8A1
:1020700000A00822D345494605A808BF3C7809F0CE
:102080005CFD044354D1D34552D1284808F0B4F83C
:1020900004A922460420FFF7BDFCB4E61B4DDFF87F
:1020A00070902B781C4FDFF87880DCE7892D0020BA
:1020B000F8080020EC080020F40800208E2D0020F5
:1020C000FC0800204F1D0020D0080020D40800206C
:1020D0004E1D00204D1D00204C1D00204B1D0020DA
:1020E000C8080020501D0020601D00205F1D00203A
:1020F000F01C00205E1D00205D1D0020CC0800208B
:102100005C1D0020882D00207D2D0020872D0020C3
:10211000752D0020862D0020852D0020742D002097
:10212000732D0020A5030100A5030200F008002084
:1021300004A8FFF735FE98B104A902200022FFF79A
:1021400069FC01232B709DF8133088F800300023C0
:102150003B7005AB03CBC9F80000C9F8041052E688
:1021600001239DF813202B7088F800203B704AE66D
:10217000084BBFF35B8F1868BFF35B8F40B1BFF3B1
:102180005B8F054B1868BFF35B8FB0FA80F0400996
:10219000704700BF04090020000900202DE9F84322
:1021A00007460C461546FFF7E3FF002849D02848AC
:1021B0000022002306F00EFF0646002844D1EFF36C
:1021C00011814FF0400888F31288BFF36F8F214AC6
:1021D0002B6813606B68DFF880905360AB68936086
:1021E000012389F8003081F31188BFF36F8F1B48FA
:1021F0002246394609F08BFC1948184900682246E6
:10220000334608F078FB0446A0B1EFF3118388F35E
:102210001288BFF36F8F89F8006083F31188BFF3D2
:102220006F8F0B4806F0A2FE0E4807F0E5FF204630
:10223000BDE8F883024629460720FFF7EBFB0A4872
:10224000F3E76FF07F04F2E76FF00F04EFE700BFF2
:10225000B8020020621D0020611D0020381D0020F2
:1022600008090020D8080020DC0800202DE9F04FE4
:102270008BB0002304ADC5E90133049308F0F5FCED
:10228000644B18706448654C06F020FB206078B100
:10229000634B6449AC2201F0B3FF206808F021FBD6
:1022A00018B9614800F086FD28B10BB0BDE8F08F89
:1022B0006FF01200F9E75D4940F201130B80012431
:1022C00008260C224B820846594B0C728E724A74B7
:1022D0004B6005F055F898B9564805F0CDFA78B935
:1022E000554805F0E3FA58B95448314605F0F6FA76
:1022F00030B95A2005F018FB10B905F03FFA58B371
:1023000001464F4807F04DFF0024A246A14626464D
:10231000A046A3464B4ABFF35B8F52E8003F012B18
:1023200003D142E800B10029F7D1BFF35B8F01D19F
:10233000FFF7CEF9FFF71CFF0746B8B94248002265
:10234000002307A906F0BCFC48B12120002109F0B8
:1023500005FB0026B846DDE73C482146D2E76FF092
:102360007F0207A90620FFF755FBE7E7B8F1000F4A
:1023700011D1354807A90022002306F0A1FC98BB23
:1023800007A907C985E807009DF81E909DF820A0C1
:102390009DF821404646B9F1010F29D18DF814A0CE
:1023A0008DF8154005AB03CB8DF80490CDF80910DE
:1023B000CDF805008DF812902A46092101A8FFF7F3
:1023C000EDFE024620B36EB910F1100F294614BF7E
:1023D000092008208DF812908DF814A08DF8154072
:1023E000FFF718FB3E46B04607F0EEF94746B1E767
:1023F00002238DF804308DF805A08DF806408DF885
:1024000012908DF814A08DF815402A460321D5E7C7
:102410000646E8E7702D002050C0000008090020A3
:10242000D8BE000037C10000491D00000400002094
:10243000F91D000033C100002FC1000027C10000BA
:10244000E4080020D408002080020020E8080020D2
:1024500080B505460E461746984607F051FA0346E2
:1024600001F0E2FBDFF81890044649F800304246DC
:1024700030463946A84754F8090001F071FB00BF07
:10248000080000002DE9F047058B04462807174691
:102490000CD501290CBF45F0100545F0200525831A
:1024A00087F31188BFF36F8FBDE8F087022905F02D
:1024B000070540F09480204608F05AF8052864D8B3
:1024C00001A353F820F000BFA1240000DF25000085
:1024D0008B2500004D2500006725000079250000B0
:1024E00001F007035A1F012A1FD8002221F007011B
:1024F000062BD4F8008089B2C4E9002209D14346F2
:1025000003E0628B013262831B68002BF9D141F03A
:1025100002012183204608F02BF84FF00009002823
:102520006DD041F02001218369E0042B0AD121F014
:10253000070189B22183204608F01AF810B141F052
:10254000200121834FF00008C14658E02369D3F8E9
:102550000090238B23F0070343F0060323834FF0FF
:10256000000846464BE02369D3F80490238B23F000
:10257000070343F00403F1E72369D3F80890238BA2
:1025800023F0070343F00503E8E74FF00008C146D6
:10259000E7E7012243F00803238387F31188BFF3A1
:1025A0006F8F002A3BD1B8F1000F4AD1B9F1000F6B
:1025B00002D02D492046C847EFF31187402383F30B
:1025C0001288BFF36F8F238B23F008039BB2238302
:1025D000D9063FD523F01002228303F00705666970
:1025E000218B002EBFF67CAF0023D4F8008021F0B1
:1025F0000701C4E9003341F0010121839946238B8F
:1026000003F0070AAA4502D0A268002AC1D1B8F196
:10261000000F02D1B9F1000FDAD00022BAE7A168A9
:102620000029C0D00D680029BDD04F6833465246FE
:102630002046B8471DB12B6829461D46F3E72B46B7
:10264000FAE74146334652462046D8F8008007F064
:10265000BBFFA8E79A067FF523AF23F02002228371
:1026600003F0070527E700BFF5A50000014B036055
:1026700000207047F0BE0000F0B40D4B0D4E5F6AB5
:102680000D4BB34203D36FF08500F0BC70475C681C
:10269000BC420AD31D6945B194F802C08488E4B2F3
:1026A000A44502D12B46F0BC18472433E9E700BF0C
:1026B0000C090020900300206C0300202DE9F04756
:1026C000144CDFF85480DFF8549005460E46174648
:1026D000444503D36FF08500BDE8F0876268D9F800
:1026E00024309A4213D3A3698BB1A9889078C9B2D8
:1026F000884205D13A4631462846BDE8F04718479A
:102700005279012A03D13A46314628469847243463
:10271000DEE700BF6C030020900300200C090020BE
:1027200010B5044608F027F910F1780F00D050B921
:10273000054A204608F027F8D2F8C43023EA0003FF
:10274000C2F8C430002010BD0C0900202DE9F04172
:1027500005460E46174600F017FE38B90E4CDFF856
:102760003C8044450CD36FF0850007E03A46314683
:10277000284600F0F3FD0028F0D10020BDE8F081EC
:1027800063690BB92434ECE73A463146284698474A
:102790000028F7D1F1E700BF6C0300209003002070
:1027A000024B00221A605A60704700BFC709002020
:1027B00070B50B4B0B4CA34201D3002070BD196ABE
:1027C0001E7F00220439D5B2AE4201D82433F2E78D
:1027D000013211F832508542F5D10120EEE700BFF9
:1027E0006C0300209003002073B58488E4B2630674
:1027F0000D468DF8074007D02046FFF7D9FF78B186
:102800000D4B93F8BA0058B10B4E204655B102F06B
:10281000D1F8F3691BB10DF1070108209847012099
:1028200002B070BD02F0EEF8F369002BF7D00DF1A5
:1028300007010920F2E700BF0C09002008B509488C
:102840000378C3F341130A3350F823303BB100F14E
:10285000080200F110019847C043C00F08BD184698
:10286000FCE700BF0C09002004282DE9F14FDFF838
:10287000989004460F4616D001282DD1DFF88C80A1
:1028800098F8B93043B300F019FD214D4D4520D2E1
:10289000D5F820B04FF0000A2B7F5FFA8AF6B342DA
:1028A00004D82435F2E7FFF77BFFE7E70BEBC6061A
:1028B0000AF1010A307908F05EF80246307907F033
:1028C00062FFD8F8C430002A23EA0003C8F8C430F5
:1028D000E2DA002388F8B9300D4D4D4508D30B4B93
:1028E0001B6A6BB13946204601B0BDE8F04F18476E
:1028F000EB681BB13A462146284698472435ECE759
:1029000001B0BDE8F08F00BF900300200C0900204B
:102910006C03002073B586788DF8006003794279E6
:102920001C4C43EA0223ADF80230C378304603F072
:1029300003038DF8043007F026FFD4F8C4301842A2
:1029400005460BD0304600F09BFC3046FFF7E8FE12
:1029500008F066FF10B9962006F0B4FF684602F052
:1029600005F810F1780F03D010B1002002B070BD4F
:102970009DF8000002F082F810F1780F01D00028D5
:10298000F3D1D4F8C43001202B4384F8B900C4F843
:10299000C430EBE70C0900202DE9F04704460E4651
:1029A000174600F0C5FCA8B1A64DAB6963B9207805
:1029B00000F01F0001287BD0022800F0E28058B10F
:1029C0006FF01500BDE8F0873A463146204698473B
:1029D0000028ECD10020F5E794F900206378002A64
:1029E00028DA062B09D0082B3A681ED0002BE7D135
:1029F0005370012313700223FEE06388190A0A1F33
:102A0000012A8C46DCD90729DAD8DAB26B6A1C783D
:102A1000002CD5D05D78654503D1824200F0E78077
:102A200001302344F3E71B78E6E095F8BA301370E1
:102A30000123E1E0052B16D0092BC1D1638833B106
:102A4000FF276E6AB8463378A3B90028B8D0FFF7DD
:102A5000A7FE638885F8BA30EB69002BBAD07A49B3
:102A600003209847B6E76088C0B201F06DFF0028E8
:102A7000B0D0A5E77378042B0DD0052B0ED0022B18
:102A800006D177796388BB4208BF40F00100C0B22D
:102A900033781E44D7E796F80380F9E76388BB4292
:102AA000F6D1B8F1000FF3D13046FFF733FFEFE76F
:102AB00095F8BA30002B83D0A188D5F824805FFA2E
:102AC00081FC43461A78002A3FF47AAF58780228EE
:102AD00004D193F804E0E64500F290801344F1E756
:102AE00013705370306075E7984494E00B2B7FF4BB
:102AF00067AF0026FF27B946B24608E098F80130D4
:102B0000042B11D0052B21D098F80030984498F868
:102B10000030002BF2D1EB6913B1514607209847E2
:102B2000002E7FF457AF4BE798F80270A38898F80F
:102B300003909F42E8D163889945E5D1072F1DD8BE
:102B4000EB19C24683F8BB900126DDE7A388BB42A0
:102B5000DAD16388DBB24B450BD098F8026030467F
:102B600000F08EFB3046FFF7DBFDB0FA80F6760909
:102B7000CAE74046FFF7CEFE0646C5E7C246002636
:102B8000C2E794F900206378002A1ADA002B7FF458
:102B900017AFA3885FFA83F85B060AD04046FFF7B9
:102BA00007FE00283FF40CAF95F8BA30002B3FF435
:102BB00007AF3C684046214601F044FF00236370A4
:102BC00019E7012B08D0032B7FF4FAAE6388002BA2
:102BD0007FF4F6AE012103E0618800297FF4F0AEB6
:102BE0002046FFF701FE00287FF4F4AEE8E6022954
:102BF0003B607FF418AF5B883360EBE694F900200C
:102C00006378002ABFF672AF3A68002B3FF468AFD2
:102C10000A2B7FF4D5AE98F80030002B3FF4D0AEED
:102C200098F8010004287FF45FAF98F80200814211
:102C30007FF45AAF072996BF4919002391F8BB309A
:102C4000F5E600BF0C090020C609002013B5164C9C
:102C5000237DF3B9E268A168019201AB802007F0FF
:102C6000A0FD019AA3681344A360E3689B1AE36084
:102C70006BB962B12369E2889A4208DD94F8C820F2
:102C800093FBF2F102FB11330BB90123237502B060
:102C900010BD00231A4619468020237502B0BDE8F6
:102CA000104001F015BF00BF0C09002030B585B001
:102CB000002302460D460193002858D1002935D142
:102CC00008220B460DEB020107F06EFE002804DA25
:102CD000802001F06FFE05B030BD2A4C029A2260C0
:102CE000039A626004F13802A2609DF90820BDF8E1
:102CF0000E302575002AC4E903550ADB802B04D960
:102D0000802001F057FE0020E3E713B1C4E903334C
:102D1000E1E7FFF793FD0028DAD0E28823699A42C1
:102D2000D4BFE260E360FFF791FFD4E7154CD4E92C
:102D30000215002D01AB04DC07F036FE0028CADACC
:102D4000C6E72A4607F030FE0028D9DB019AA368BF
:102D50001344A360E3689B1AE360002BBBD104F12A
:102D60003803A360FFF76AFD0028DCD1B0E78028B4
:102D7000B1D1044BDA68002AD5D11B7D002BD2D10A
:102D8000A9E700BF0C090020054B064A9A62064AD3
:102D9000DA62064A1A63064A58629A61002070474E
:102DA0000C09002099290000792600004D27000019
:102DB000BD2600002DE9F3410446454D45484FF03E
:102DC000FF334FF0FF3205F0DDFF95F8B830002BF0
:102DD00078D16E6A76B900F0CBF8FFF7D5FF6E6A4E
:102DE00046B94FF0FF343B4806F03EF8204602B0AB
:102DF000BDE8F08138482C62E86101F07DFF01F008
:102E000075FD041EEFDB00F07BFA041EEBDB73782C
:102E1000012B5AD1F379002B57D00026684685F84C
:102E2000C830ADF802308DF804608DF8006001F014
:102E30009DFD041ED7DB802768468DF8007001F0E9
:102E400095FD041ECFDB2549304601F041FF041EED
:102E5000C9DB2249384601F03BFF041EC3DB204C8E
:102E6000DFF8808044451AD3002001F007FE041EDD
:102E7000B9DBD5F8C430802043F00103C5F8C43075
:102E800001F0FCFD041EAEDBD5F8C43043F4803302
:102E9000C5F8C430012385F8B8300024A3E7276AB9
:102EA0000026227FF3B29A4201D82434DAE707EBF6
:102EB000C30257F83310107901F00AFF01360028D9
:102EC000EFD08EE76FF077048DE76FF015048AE797
:102ED0000C0900206C02002069280000AD2C0000C5
:102EE0006C0300209003002030B51F4B8BB005AA67
:102EF00003F1100518685968144603C40833AB423F
:102F00002246F7D11B78237001AC10220021204605
:102F100008F00BFE12220021144808F006FE1021D2
:102F2000204607F082FE00281ADD0828B8BF0820D6
:102F300009380E4A0444002114F8013F0AA800EBA6
:102F4000131003F00F0328336B44013110F8140CF5
:102F500013F8143C10700829537002F10202EBD1EF
:102F600002480BB030BD00BF56C00000AF2D00209E
:102F70002DE9F04F724B93F800B087B0BBF1000F12
:102F800003D0704807B0BDE8F08F6E4C00264FF0BC
:102F9000011AB0463546B14623783BB96A4B023434
:102FA0009C42F3D1664A01231370EAE76378052B4C
:102FB00005D8DFE803F08F07038F1F3BA146237876
:102FC0001C44E9E7402304A88DF810B0ADF8123096
:102FD0008DF814B007F0BBFC40B1082304A8ADF88D
:102FE000123007F0B4FC08B1ADF812B0BDF81230E1
:102FF000E371E4E7E378002BE1D1A3786BB108F14A
:1030000001085FFA88F8DAE76B689C4207D024353C
:103010004E4B9D42F8D30020B4E74D4DF8E7AB6826
:10302000002BECD0414620469847E8E7002DF2D02F
:1030300000222B7F9A42EED2296AA07801EBC201CE
:103040000B79984244D10127E07800F003008DF815
:103050001400207994F805C040EA0C20ADF8120065
:1030600094F902000028FBB228DA07F110004FF0B3
:10307000010C0CFA00F010EA0A0F26D143F0800090
:103080008DF8100004A8CDE90213019207F05FFC4F
:10309000DDE90121039BC0B99DF81020A27012F058
:1030A000800F18BF10330A7118BFDBB24FF0010256
:1030B00014BF9A40BA404AEA020A80E70120B840A9
:1030C00010EA0A0F01D11846DAE70137102FBBD1F9
:1030D0000132AEE7032E1AD1FFF706FF074650B1C3
:1030E000FEF78FF9024630B11028A8BF10223946EA
:1030F000A01C08F00CFD23786FF002011A19091BBF
:1031000004EB5303D14213D50136F6B257E7002E34
:10311000F1D1B9F1000F3FF47EAFA4EB090389F8B8
:103120000230C3F3072389F8033089F80480EBE702
:1031300002F801BC13F8010902F8020DE2E700BF32
:10314000AE2D0020D802002069030020900300204B
:103150006C03002010B5094B00211A461C788442EC
:1031600004D15C6814B102EB811010BD0131042957
:1031700003F14003F2D10020F7E700BFD809002097
:103180002DE9F34150F8283C10F82C6C103304461C
:103190000AD1036950F8202C980736D5D2B95907BF
:1031A00015D5002344F8283C54F8283C10330BD0A4
:1031B00054E9077554F8148C08F032FB00284FD0FE
:1031C0002E48214608F01CFB02B0BDE8F08143F018
:1031D0000403236154F8241C01AB304607F0E1FAE4
:1031E00010B16FF01503DDE7019A54F8243C134445
:1031F00044F8243C54F8203C9B1A44F8203C54F8F2
:103200001C3C134444F81C3CCEE754F8241C01AB8E
:10321000304601F0D3FC0028E3D1019D54F8243C52
:103220002B4444F8243C54F8203C5B1B44F8203CDD
:1032300054F81C3C2B4444F81C3C002DB1D03046C3
:1032400001F060FDB5FBF0F303FB1055002DA8D194
:1032500054F8203C002BA4D0304601F0F7FCA3E743
:1032600044F8180CA4F1100005F080FE002DABD03E
:10327000424639463046A847A6E700BF88070020E7
:1032800010B5EFF31184402383F31288BFF36F8FDF
:10329000FFF760FF50B14368103307D16FF08B0325
:1032A000436000F12C01044808F0AAFA84F3118865
:1032B000BFF36F8F10BD00BF88070020F8B50E4C1C
:1032C00004254027EFF3118687F31288BFF36F8F31
:1032D0006368103307D16FF08B030848636004F113
:1032E0002C0108F08DFA86F31188BFF36F8F013D32
:1032F00004F14004E6D1F8BDD80900208807002079
:1033000038B5094C00250949204608F05DFA01222C
:10331000A4F110001146013508F038FA042D04F12B
:103320004004F0D1002038BD040A002081310000A3
:1033300010B5094B1C6864B14388180A032808D1EA
:10334000DBB2EE2B05D12368136063680B600020AD
:1033500010BD6FF08500FBE7D80A002030B5094B9F
:103360001B6863B145781C7AA54208D1808804287F
:1033700005D1D86810601B690B60002030BD6FF06C
:103380008500FBE7D80A0020024B1868003818BFF8
:1033900001207047D80A0020014806F0A1BD00BFF7
:1033A000F0BE000038B5044618B90F4B0F485B68F3
:1033B00098476168B1F5683F10D0B1F5680F0DD03E
:1033C0000B4DA9420AD011F46861206807D001466C
:1033D000084808F0EBF800232360656038BD14222C
:1033E00008F0A3FBF9E700BF7401002067C00000EC
:1033F0002C5F5CA9DC0F002008B520B34368B3F54F
:10340000683F10D101220368BFF35B8F53E8001FB0
:10341000002903D143E800200028F7D1BFF35B8FD8
:103420000DD1002008BD094A93420AD000684FF030
:10343000FF324FF0FF3305F0A5FC0028F1D004481F
:10344000F0E70448EEE76FF4E040EBE72C5F5CA99F
:10345000E98FFFFFEA8FFFFF08B5D8B14368B3F5E6
:10346000683F10D100220368BFF35B8F53E8001F51
:10347000012903D143E800200028F7D1BFF35B8F77
:103480000BD1002008BD074A934208D0006805F020
:10349000EBFCF6E76FF4E040F4E70348F2E703489B
:1034A000F0E700BF2C5F5CA9E98FFFFFEA8FFFFF09
:1034B00010B5044618B91D4B1D485B6898476368F2
:1034C000B3F5683F2FD0B3F5680F2CD0194A93425B
:1034D00019D1236803BB18484FF0FF324FF0FF3378
:1034E000214605F05BFB08B923681BB90F4B134855
:1034F0005B68984720681422002108F016FB4FF4FF
:103500006863636008E0B3F5680F0DD83A2B03D009
:1035100040F6BA629342DED1206808F0A5F86368ED
:1035200043F03A03636010BD054AF3E774010020DD
:1035300067C000002C5F5CA9DC0F00208DC000007C
:103540003A00003A08B5064906484023142208F01C
:1035500020F8BDE808400449044806F033BD00BF28
:10356000DC0A0020DC0F0020F8BE00000CBF0000C9
:1035700008B50348034A0021121A07F05DF908BD97
:1035800090030020703000200748084A084908B519
:10359000121A07F053F90748074A0849BDE80840DE
:1035A000121A07F04BB900BF000000209003002062
:1035B00000C20000000000200000002000C2000047
:1035C00030BFFFF7FDBF00BF2DE9F0410B4EDFF824
:1035D000308006EB0807CC1B0546324609492046D9
:1035E00008F095FAA01942460021083C08F09DFA1F
:1035F0002C6707F10800BDE8F08100BF0000000063
:103600000400000048BE000070B5264B15469A6ABB
:1036100012F0100F9A6A14BF1124102412F0080F30
:103620009A6A18BF1224920706460AD5586B9A6AFE
:10363000140634D519B19A6A22F080029A621324D2
:1036400001E06FF01500174B9A6A12F0010F9A6AA9
:1036500018BF142412F0200F9A6A18BF1524D2063E
:1036600002D49B6A9B070AD50E4B5B68190506D5E9
:10367000314600F02BFA10B180F309880224094B7F
:103680009A6A920642BF5A6A22F400525A629A6AB1
:1036900042F0FF029A6200232B70204670BD6FF04B
:1036A0001500CCE700ED00E0134B9A6A12F0007FA2
:1036B0009A6A14BF1E201D2012F0807F9A6A18BFDC
:1036C0001F2012F4002F9A6A18BF212012F4802FB5
:1036D0009A6A18BF222012F4003F9A6A18BF23206A
:1036E00012F4803F9A6A6FEA02426FEA12429A62CB
:1036F00018BF2420704700BF00ED00E010B5184B44
:103700000246986A9C6A10F4805F14BF1720162046
:1037100014F4006F9C6A18BF1820A40508D5986A95
:10372000000404D51AB19A6A22F400429A62192060
:103730000B4B9A6A12F4806F9A6A18BF1A20D2054E
:103740000CD49B6A13F4005F18BF1C20044A936AD0
:1037500043F47F43936200230B7010BD1B20F5E7F9
:1037600000ED00E0F0B5494B5B688BB00446C3F355
:103770000803002585F31188BFF36F8F02F07F40A7
:10378000B0F17F4F11D102F00C0008280DD01007C6
:103790004CBF0C4601250022033B8DF80720032B6C
:1037A00005D8DFE803F024686C652C46F3E70023B6
:1037B0009DF80720CAB902AE04F1200720686168AD
:1037C000324603C20834BC421646F7D1099A002D8E
:1037D00059D0C2F3080121B96FEA52226FEA42229E
:1037E000099202A9184607F02BF80BB0F0BD274B41
:1037F000DA6A9107DBD4DA6A002AD8DBDA6A520087
:10380000D5D55A69A16942F480725A61BFF34F8FCE
:10381000BFF36F8F31F8022C596921F4807159611F
:10382000BFF34F8FBFF36F8F02F47F43B3F55F4F4A
:1038300004D1D2B2022A01D12368B9E7134B9A6AA4
:10384000D2B23AB10DF1070201212046FFF7DCFEAA
:103850000346ADE79A6A12F47F4F05D00DF10701D8
:103860000120FFF74BFFF3E79B6AB3F5803F9ED340
:10387000FFF71AFFECE70DF107020021E5E70DF174
:1038800007010020EDE76FF30802A9E700ED00E073
:10389000044B5A6942F010025A615A6922F0080238
:1038A0005A61704700ED00E0EFF30880EFF3098103
:1038B00001B57246FFF756FF01BD00BF002080F33F
:1038C0001488BFF36F8F0F4880F3088804F03CFB27
:1038D00000200D490860BFF34F8F00F02BF8402007
:1038E00080F3118809484FF40461401880F3098877
:1038F000EFF314800221084380F31488BFF36F8F25
:1039000000F0B4F88046002094ED00E0C0340020C0
:103910000749D1F890200023C2F3072218469342AA
:1039200000DB7047C1F89830C1F8A0000133F6E71A
:1039300000ED00E008B572B6002383F31388FFF7AB
:10394000E7FF144B4FF0FF32C3F88020C3F8842008
:10395000C3F88820C3F88C20C3F89020C3F89420C3
:10396000C3F89820C3F89C20C3F88021C3F88421B1
:10397000C3F88821C3F88C21C3F89021C3F894219F
:10398000C3F89821C3F89C2162B6BFF34F8FBFF3F1
:103990006F8F08BD00E100E01EF0040F0CBFEFF3D5
:1039A0000880EFF30980816911F8021C0229FFD019
:1039B00001B5724606F04AFF01BD00BF40B20028C3
:1039C00007DB044A4109012300F01F00834042F84D
:1039D0002130704700E100E040B200280CDB4309D1
:1039E000064900F01F0020330122824041F82320C5
:1039F000BFF34F8FBFF36F8F704700BF00E100E050
:103A0000054B420900F01F0053F82220012303FA5E
:103A100000F01040704700BF00E100E040B2D30763
:103A200054BF023100210028ACBF00F16040074ABA
:103A30004FEA4113ACBF00F5614000F00F00DBB26C
:103A4000B4BF135480F80033704700BF14ED00E09A
:103A5000044B054A23F07F039360BFF34F8FBFF3FE
:103A60006F8F70470010000000ED00E008B5FFF711
:103A7000EFFF074AD2F8883023F47003C2F8883089
:103A8000FFF776FDFFF780FD00F0B0F805F00AF8CB
:103A900000ED00E042F8203C009B42F81C3C0A4943
:103AA000019B42F8183C029B42F8143C21F00101B2
:103AB0004FF0807342F8043C42F8081C0023203A7F
:103AC00002654367704700BF51240000094A03465E
:103AD000906870B113F1160F006E05D0A0F140028E
:103AE000934205D3834203D2814228BF002070470E
:103AF000002070479C1C002008B515460B4A0C4B53
:103B00009060026F1A600E4600F0A0F82C4686F313
:103B100009880020034B98472046002100220023FB
:103B2000014C204771A80000512400009C1C00207B
:103B3000F80F0020014B10221A61704700ED00E0E1
:103B4000054B5A699B689A421FBF044A536843F069
:103B500080535360704700BF9C1C002000ED00E0C4
:103B6000084B9B6883420BD1EFF3058343B1064BAF
:103B70005A6842F080525A605A6A22F400425A62ED
:103B800005F0C4BE9C1C002000ED00E014498A68CA
:103B90004FF030001044EFF3098C80E8F01F402014
:103BA00080F31288BFF36F8F0E4F4FF000664A69A3
:103BB0008A603E60106F0C4C2060506F002353678A
:103BC00080F3118804B5104600F040F8BDE80440C9
:103BD00002F1300090E8F01F8CF309887047000074
:103BE0009C1C002004ED00E0F80F00200448002396
:103BF0004021C2180133302B82F80013F9D17047ED
:103C000000E100E008B5EFF30583064A103B02EB44
:103C1000C30152F8330049688847BDE80840FFF700
:103C20008FBF00BF70BC00000148006870470000F3
:103C3000F80F0020024B034A0348012100F076B838
:103C400000000420000000201CBF0000036E054A95
:103C5000403B1360044B4021C2E90113104601218F
:103C600000F06EB8FC0F002000000B15084AC2F8E7
:103C700098000B6823F01F03034343F01003C2F8BE
:103C80009C308B6843F00103C2F8A030704700BF3E
:103C900000ED00E02DE9F043DFF8608085B00E46CE
:103CA0001F4604464FF00009B14523DA6068D8B1D9
:103CB0003FB1411E08421BD11F2819D92368194260
:103CC00016D12368019306F0F6FDA368034303931E
:103CD000D8F89050C5F30725D0B2013DA84207D8C7
:103CE00001A9FFF7C3FF421C09F101090C34DBE70E
:103CF0006FF01502104605B0BDE8F08300ED00E05E
:103D0000044B0522C3F89420BFF34F8FBFF36F8F8E
:103D1000704700BF00ED00E0BFF35F8F024B002251
:103D2000C3F89420704700BF00ED00E010B5034CCD
:103D300001232278FFF7AEFF207010BDC12D0020B7
:103D400008B50B4A00231278FFF7A4FF10F1160FF5
:103D500007D0084A0021D2F89030C3F307239842D5
:103D600000DB08BDC2F89800C2F8A0100130F2E7ED
:103D7000C12D002000ED00E02DE9F0435A4B5B4DD2
:103D8000D3F890302C68C3F307239C4285B000F22F
:103D9000A780FFF7C1FF00200C2684421AD1544EA1
:103DA000DFF8449134706846FEF760FC514C524D88
:103DB00080460027B84514D133784B490020D1F80C
:103DC0009020C2F307229342C0F28480FFF798FF4D
:103DD000002045E0696806FB0011FFF747FF01304E
:103DE000DBE7009800EB07114FEA071CCB68234084
:103DF000B3F5000F4DD00AD8B3F5001F33D0B3F59B
:103E0000800F3BD0B3F5801F13D00137D2E7B3F159
:103E1000007F47D0B3F1805F4DD0B3F1807FF4D104
:103E200050F80C3088684A6806F045FD40F088700C
:103E300009E050F80C3088684A6806F03CFD40F014
:103E4000885040F43020CDE901230390D9F8903018
:103E50003078C3F30723013B984234D96FF0150043
:103E600005B0BDE8F08350F80C3088684A6806F069
:103E700022FD40F0885040F40020E4E750F80C3078
:103E800088684A6806F017FD40F0007040F4003082
:103E9000D9E750F80C3088684A6806F00CFD40F00D
:103EA0008270D0E750F80C3088684A6806F003FD4D
:103EB00040F48020C7E750F80C3088684A6806F064
:103EC000FAFC2843BFE701A9FFF7D0FE337801339E
:103ED00033709AE7C1F89830C1F8A00001336EE75B
:103EE0004FF0FF30BCE700BF00ED00E028BF00004E
:103EF000C12D00200000F0FF0000021108B50649A6
:103F0000064821F00701C1F1005202F5802206F0B7
:103F1000D3FA002008BD00BF8759002008100020F8
:103F20000C4B0122C3F840254FF080434FF08051E5
:103F3000C3F87825D1F83001082805D1D1F834111B
:103F4000022908BFC3F838260122C3F880250020C3
:103F5000704700BF00E0014048B1054B054A1B68AF
:103F6000B3FBF2F35843044B43F001031847704787
:103F70006001002040420F00D0BE000008B5054A95
:103F8000054B136010463F23536004F0B9F800203E
:103F900008BD00BF14100020FFFF07004FF0804352
:103FA000D3F84036DB072ED54FF01023D3F8043377
:103FB00003F00703072B26D1134A0123C2F8043567
:103FC000D2F80034002BFBD04FF01021D1F804338D
:103FD00023F0070343F00403C1F804330023C2F8BD
:103FE0000435094AD2F80034002BFBD0BFF34F8FC1
:103FF0000649074BCA6802F4E0621343CB60BFF383
:104000004F8F00BFFDE7704700E0014000ED00E08A
:104010000400FA0510B50C460146084806F0F5FB09
:1040200050B1012C08D150F8083C2BB15B691BB191
:10403000BDE810400068184710BD00BF34100020D4
:1040400010B50C460146084806F0DFFB50B1022CC3
:1040500008D150F8083C2BB11B691BB1BDE81040DA
:104060000068184710BD00BF34100020F8B5154691
:1040700090F900200378002A04460E4602DB6FF018
:104080001500F8BD03F01F03012BF8D14378062B70
:10409000F5D1818847881248C9B23F0A06F0A7FBCC
:1040A0000028ECD0212F04D0222F0FD06FF08500F4
:1040B000E7E70368E1885B685B6813F8092F9142C2
:1040C00094BF316032602B600020DAE7E38850F85B
:1040D0000C2C9A4294BF3260336050F8103CF2E7E7
:1040E000341000202DE9F0410E4681880546C9B202
:1040F0002548174606F07BFB0446002841D095F979
:10410000002000686B78002A1EDA012B04D0032BF4
:1041100010D06FF0850015E054F8083C002BF8D063
:104120001C68002CF5D03B4632462946A446BDE823
:10413000F04160476B88002BEBD1043C01233C60CD
:1041400033600020BDE8F081092B14D00B2BE0D1A7
:1041500069880129DDD814F8043C8B42F1D054F869
:10416000083CC9B204F8041C002BEAD09B68002B61
:10417000E7D09847E5E754F8083C002BC9D05C68C5
:10418000CFE76FF01200DDE73410002010B50C46C9
:1041900001461A4806F01FFB0346F8B1611E0529C7
:1041A0001CD8DFE801F0031B181C2224002200F8B1
:1041B000032C00F8022C13F8042C006801218A4219
:1041C00003F8041C0AD053F8083C3BB19B682BB1A0
:1041D000BDE810401847012200F8032C10BD002252
:1041E00000F8032C03F8022CF8E70122FAE710F894
:1041F000022C002AF2D00022F4E700BF3410002085
:1042000010B50469C4E90012A36000236361064B82
:104210002061596804F1140211B9C3E9002210BDEC
:104220000A605A60FBE700BF3410002000F07F03F3
:10423000082B42B204D010F0780F01D00020704754
:10424000002A00F00F0300F0080004DA30B9054836
:1042500000EB4310704718B90348F9E7034870476B
:104260000348704788100020A81100208811002002
:10427000A81200200149024807F0C2BA64100020C9
:10428000C80500200146014807F075BAC8020020A1
:1042900002480022002304F037BE00BFC8020020FD
:1042A00013B5114800F0A4FE0446C8B90F4804F045
:1042B0003BFA0F4804F076FA0E490F4800944FF08D
:1042C000FF334FF4806204F0F9FF0C490A4807F00D
:1042D000ADFA0B490B4807F077FA204602B010BD43
:1042E0006FF00404F9E700BFF5440000E6C10000E8
:1042F0004CBF000080300020C8050020C9C000006D
:10430000114600006410002010B50E49BFF35B8F0A
:10431000002351E8002F012A03D141E80030002892
:10432000F7D1BFF35B8F0CD151F8044C1439204600
:1043300006F0EFF9783004D12046BDE8104006F0D1
:10434000C4B910BD5C10002038B5002464F07F00B3
:10435000C0B2FFF76BFF013406F0E2FA082CF5D18A
:104360000E4D0024E0B2FFF761FF036903B9056158
:10437000013406F0D5FA082C05F14005F2D10848C1
:1043800006F0CEFA074BD3F87C2212B9064AC3F8DE
:104390007C22BDE83840054806F0C2BACC160020A1
:1043A000881100203C100020CC120020A812002010
:1043B00008B5FFF76DFF20B14168024807F0F6F835
:1043C000F7E708BD0002002007B500230E480022D1
:1043D00001A904F0E3FB90B1FFF7EAFF0A480022CD
:1043E000002301A904F0DAFB38B9019804234060E6
:1043F0000374FFF747FFFFF73DFF002001E001983E
:10440000406003B05DF804FB0002002010B50446D4
:10441000FFF7DAFF60B1002202740472FFF732FF87
:10442000044B93F824301BB1BDE81040FFF722BFC6
:1044300010BD00BF3C100020022803D8024B185CBE
:10444000FFF7E4BF704700BFE3C1000070B581789B
:1044500006460846FFF7EAFE0B06F578044612D535
:10446000002D43D1FFF7B0FF034600283ED00122C4
:10447000A5770274032202739C60FFF703FFBDE877
:104480007040FFF7F7BE4DB1012D2FD1FFF79CFF14
:10449000034658B3657705740573EDE7FFF794FF9E
:1044A00020B3B278124B12F0800F02F0080111D045
:1044B00041B1D3F8A836E3600123037402230373E8
:1044C0008460DAE702F00F02142101FB0233D3F813
:1044D0000836F0E711B1D3F8A837ECE702F00F0285
:1044E000142101FB0233D3F80837E4E770BD00BFA5
:1044F00000700240F0B5064689B01422002103A8DE
:1045000007F013FB3378013B052B21D8DFE803F0DC
:104510007A0314146A1603238DF814300024FFF76D
:1045200053FF0346A0B1047400F10802DDE9050160
:1045300082E8030018461DE00423EDE7B178084641
:10454000FFF774FE837A044623B1013B022B43D963
:1045500009B0F0BD0B06F57813D5002DF8D1FFF7A3
:1045600033FF03460028F3D00122A577027403220B
:1045700002739C60FFF786FE09B0BDE8F040FFF7CC
:1045800079BE55B1012DE3D1FFF71EFF0346002888
:10459000DED0657705740573EBE7FFF715FF074677
:1045A0000028D5D00123037402230373846004F12F
:1045B0000C01B07806F022FA134AE168B2F88C32A6
:1045C0008B4206D95B1AA2F88C3201F05DF83846AE
:1045D000D0E7A2F88C52FAE7304609B0BDE8F040C7
:1045E000FFF734BF01A801F02DF89DF80530052B29
:1045F00004D19DF8043013F0600FA9D0034B05934C
:1046000001248CE702248AE73C100020A811002036
:104610002DE9FF41AD4C8046FFF73AFE074610B941
:1046200004B0BDE8F08194F825303A7C3BB9002A0B
:1046300000F085807968A64806F0B8FFECE7042A08
:10464000F8D8DFE812F07C00050002011801330100
:104650003B7BBD68032BEDD8DFE803F0023C595EDD
:104660006E699C4B002232607260D3F88014317006
:10467000D3F884147170D3F88814D3F88C0441EA09
:1046800000217180D3F89014D3F8940441EA0021FA
:10469000B180D3F89814D3F89C3441EA0323F38013
:1046A0000823EB60306871688B4B03C311462B689D
:1046B000687A984796F90030002B07DBF3889AB2A6
:1046C00022B1A4F88C3200F0DFFFB3E70023A4F896
:1046D0008C32AFE76B7F002BACD02B7F002BA9D0A7
:1046E00000266E774FF0FF327C482E774FF0FF3375
:1046F00006F029F96B6901936B68CDE9023601A9CF
:10470000687A00F0C7FC754806F01FF992E72B683D
:104710000121687A98478DE7AB7A6BB9EB7F5BB97B
:104720006E484FF0FF324FF0FF3306F00CF900F007
:10473000B1FF6A4806F009F92B680221E9E73A7AE5
:10474000042A3FF677AFDFE802F05B0325697500C6
:1047500000F00EFC054600287FF46CAF00F048FB2B
:10476000BFF35B8F5E49012351E8002F002A03D17C
:1047700041E800300028F7D1BFF35B8F7FF45AAFD8
:1047800041F8085C41F8105CE0696361143905F098
:1047900051FF4FE7002565F07F00C0B2FFF746FDEF
:1047A000037A13B1407A01F0D7F80135082DF2D120
:1047B00094F854311BB194F8550101F0CDF800255F
:1047C000E8B2FFF733FD037A13B1407A01F0C4F881
:1047D0000135082DF4D194F874321BB194F87502A8
:1047E00001F0BAF8002000F0A7FB012384F825307F
:1047F0002368002B3FF41EAF00210220984719E7E1
:10480000002584F8255001F00DF8FFF77DFD2368A1
:10481000002B3FF40FAF29460420EFE7002B3FF4B5
:1048200009AF00F0AFFB2368002B3FF403AF00217A
:104830000520E3E72268002A3FF4FCAE002B3FF49A
:10484000F9AE002106209047F4E608F110054FF07C
:10485000FF334FF0FF32284606F075F8FFF774FD7E
:10486000284606F072F858F8283C002B3FF4E2AED8
:1048700000210120C2E794F874327BB1012584F84D
:10488000895284F88852FFF79FFD38B1154A0574A4
:1048900005738260FFF7F6FCFFF7ECFC58F8283C44
:1048A000002B3FF4C7AE00210A20A7E706F0C4FDA5
:1048B00000F0B8FF00F092FAFFF77AFDFFF744FD31
:1048C00006F0B3FD084800F093FBB3E63C1000206F
:1048D00000020020007002404010002074100020F0
:1048E0005C100020A8120020F544000038B5144CDC
:1048F00094F824500DBB04F1380006F0B5FE2846AC
:1049000001F07AF92A460121E0612720FFF786F8B5
:1049100006F08BFDFFF718FD012384F82430094BC6
:104920001B680BB1FFF7A6FC4FF08043D3F8383477
:10493000DB0702D50120FFF769FD002038BD00BF6D
:104940003C100020C8020020074B93F824203AB105
:1049500093F82530002B0CBF6FF012000020704739
:104960006FF01200704700BF3C10002010B5104BD4
:1049700093F824300146BBB104782046FFF756FC7B
:1049800010B96FF0150010BD44720B7983724B881B
:10499000436008784988030702D44B1E0B42F0D1CC
:1049A00006F027F80020EEE76FF01200EBE700BFFB
:1049B0003C10002010B5124B93F824200146CAB1D8
:1049C00093F82530B3B1FFF731FC0446A8B1837AE0
:1049D000012B12D007D9023B012B07D96369A361D0
:1049E0000020E06010BD00F05BFEF7E7084600F035
:1049F000FDFDF3E76FF01200F4E76FF01500F1E74B
:104A00003C10002038B50E4B93F82420054682B1A7
:104A100093F825306BB1FFF709FC68B115F0080475
:104A20000AD1284600F004FE284600F0CDFF2046BB
:104A300038BD6FF01200FBE76FF01500F8E700BF1C
:104A40003C10002038B50C4B93F8242005460C464A
:104A500062B193F825304BB1FFF7E8FB48B141B1A3
:104A6000284600F0CBFD2070002038BD6FF012000A
:104A7000FBE76FF01500F8E73C10002070B5134E0F
:104A800096F824300446C3B1FFF7D0FB0546B8B111
:104A9000230705D4204600F0CBFD204600F094FF0C
:104AA0002B7A83B901232B7296F825300BB900209D
:104AB00070BD204600F050FFF9E76FF01200F7E7F5
:104AC0006FF01500F4E76FF07700F1E73C1000207D
:104AD0002DE9F043DFF8DC801F4698F8243085B0DC
:104AE000044689461646002B5DD098F82530002BE9
:104AF00059D003065AD5FFF799FB0546002855D033
:104B0000037A002B52D04FF0FF334FF0FF3208F101
:104B1000380005F018FFAB7F4BB108F1380005F005
:104B200014FF6FF00A04204605B0BDE8F08316B903
:104B3000EB7F03B1EE77AB7ABBB95EB1B8F80A3060
:104B40009E4207D26A68B6FBF2F302FB13630BB90D
:104B50000123EB7700F0AAFD844206D000F09AFD15
:104B6000154805F0F2FE0024DDE701232046AB776F
:104B70004FF0000801A9CDE90196CDF80C8000F0B6
:104B800089FA044658B185F81E802FB96FF00404E5
:104B9000094805F0DAFEC6E7C7F80080F6E7002FFF
:104BA000F6D03E60F4E76FF01204BCE76FF0150436
:104BB000B9E700BF3C100020741000202DE9F0413F
:104BC0001D46204B174693F824200E46002A33D06A
:104BD00093F8253083B3030631D401B97FBBFFF7C7
:104BE00025FB044658B3037A4BB34FF0FF33164806
:104BF0004FF0FF3205F0A7FEE368BB42984628BF9E
:104C0000B84646B93FB905B12B600F4805F09DFE87
:104C10000020BDE8F081A1694246304606F077FFEA
:104C2000A3694344A361E368A3EB0803E360002D99
:104C3000EBD0C5F80080E8E76FF01200E9E76FF00D
:104C40001500E6E73C1000207410002070B51E4DE2
:104C500095F82420034682B395F825206AB31B06F5
:104C60002ED4FFF7E3FA044650B3037A43B34FF070
:104C7000FF334FF0FF3205F1380005F064FEE368C2
:104C8000B3B9012663692677A361637F83B1FFF718
:104C90009BFB30B905F1380005F057FE6FF00B00B3
:104CA00070BD067484600673FFF7ECFAFFF7E2FA52
:104CB000064805F04AFE0020F2E76FF01200EFE729
:104CC0006FF01500ECE700BF3C10002074100020CE
:104CD00008B5084B93F824302BB1FFF7A7FA28B199
:104CE0000160002008BD6FF01200FBE76FF01500B7
:104CF000F8E700BF3C100020014B1860704700BF70
:104D00003C10002008B5074B93F8243023B1FFF77F
:104D10008DFA20B1406808BD6FF01200FBE76FF01C
:104D20001500F8E73C100020064B10F0800F03F14F
:104D3000D80218BF134600F00F00182202FB003003
:104D4000704700BF0C190020EFF31180402383F35C
:104D50001288BFF36F8F0A4BD3F8001C032261B98E
:104D600049F27531C3F8001CC3F8142DC3F8001CB8
:104D700080F31188BFF36F8F7047C3F8142DF7E7E6
:104D800000E00640EFF31180402383F31288BFF365
:104D90006F8F0A4BD3F8001C61B949F27532C3F822
:104DA000002CC3F8141DC3F8002C80F31188BFF346
:104DB0006F8F70470022C3F8142DF6E700E006401D
:104DC0004FF08053D3F83031082B02BF024B002242
:104DD000C3F81C2C704700BF00700240024A002339
:104DE0001360024A13707047C41A0020C62D0020B9
:104DF00008B54A4B4FF40062C3F8002405F0E3FD08
:104E000008B1FFF7A1FF4FF08053D3F83031082BE2
:104E100018D1EFF31180402383F31288BFF36F8F13
:104E20003F4BD3F8001CC02200296ED149F27531E6
:104E3000C3F8001CC3F8142CC3F8001C80F31188BD
:104E4000BFF36F8F354B0122C3F80025D3F8002440
:104E50001205FBD54FF40062C3F800244FF08053D5
:104E6000D3F83031082B17D1EFF31180402383F3AF
:104E70001288BFF36F8F2A4BD3F8001C002947D14B
:104E800049F27532C3F8002CC3F8141CC3F8002C87
:104E900080F31188BFF36F8F05F095FD30B1FFF7F8
:104EA00071FF05F090FD08B1FFF74EFF4FF0805302
:104EB000D3F83031082B194B0AD140F2E372C3F812
:104EC00000284022C3F80428BFF36F8FBFF34F8F31
:104ED0008022C3F81C250122C3F83025114B40F273
:104EE000FF121A60104B00211960104B1970FFF768
:104EF00067FF0F4B19700F4B02221A7005F063FD0C
:104F000050B1BDE80840FFF73DBFC3F8142C95E74A
:104F10000022C3F8142CBBE708BD00BF007002409C
:104F200000E00640C01A0020BC1A0020C22D00205C
:104F3000C42D0020C62D0020094B002210B51A7088
:104F4000084A094B094C002808BF1346C4F800332F
:104F50002720FEF733FD0123C4F8043510BD00BF40
:104F6000C52D0020FDFFDF01FDFFFF0100700240A5
:104F7000034B1878012894BF00200120704700BF20
:104F8000C62D002010B54FF0FF324FF0FF3315480B
:104F900004F020F8EFF31181402383F31288BFF36C
:104FA0006F8F114B1B7803F0FF0483B10F4BD3F8C5
:104FB000002412F400720AD10120C3F82C05D3F8A2
:104FC0002C05D3F80004800502D5C3F82C25002455
:104FD00081F31188BFF36F8F024803F0C7FF2046AB
:104FE00010BD00BFA8020020C52D002000700240A7
:104FF000F8B51C4B1C7894BB1B4A106001221A7038
:1050000040F2FF17264664F07F0514F0080FEDB25A
:1050100014BF39464021284605F0EBFC2846FFF72F
:1050200083FE0134092C867506730661EBD10024DA
:1050300040F2FF17254614F0080FE6B214BF3946B8
:105040004021304605F0D5FC3046FFF76DFE0134B7
:10505000092C857505730561EDD10020F8BD6FF051
:105060007700FBE7C62D0020C41A0020084B10F083
:10507000800F14BFD3F81035D3F8143500F00F02A9
:10508000012090401840003818BF0120704700BF31
:10509000007002402DE9F843024605F0A2FCEFF350
:1050A0001188402383F31288BFF36F8F130703D156
:1050B000174B1B78934224D1164B174F1C683E6840
:1050C000E4434FF00109A4B209FA00F534432C403F
:1050D0001AD11046FFF728FE80F80C90034607C946
:1050E0001C6183E807009C750C4B2E4380223E60B8
:1050F0002046C3F8042188F31188BFF36F8FBDE801
:10510000F8836FF00D00F6E76FF00F00F3E700BFD4
:10511000C42D0020C01A0020BC1A002000E100E0CD
:1051200010F0080F074B06D0D3F8C00410F4803FEE
:1051300018BF0020704700F00F0000F5947053F87E
:1051400020007047007002402DE9F74F594BDFF8FF
:105150006881D3F85421EAB10022C3F85421D3F86E
:105160000413890216D58DF80420D3F82025ADF854
:105170000620D3F8C034002BD8F8003014BF4FF00D
:1051800001224FF480721343C8F800304B4B01A842
:105190001B689847474BD3F8604134B10022C3F8ED
:1051A0006021D3F86C44C3F86C44D3F828214AB189
:1051B0000022C3F82821424B187805F012FC012385
:1051C00083401C43DFF8FCA09AF800509AF9006075
:1051D00015F0080005F00F0238D1002EB4BF3A4B8D
:1051E0003A4B91000B441968DFF8E49051B3002169
:1051F0001960304B88BB8E424FF0140101FB023323
:10520000B4BFD3F80836D3F80837324A117803F020
:1052100001034B401370FFF7D3FD2F4803F0A6FEA8
:105220002846FFF781FD837D032B1DD1284605F01D
:10523000D8FB012303FA00F0D9F8003023EA000379
:10524000C9F800301D4F0125062672E0234B244982
:1052500033EA260328BF0B46C5E7002EB4BFD3F8B8
:10526000A836D3F8A837D0E7037BE3B9284605F082
:10527000B8FB012303FA00F0D9F80030002E23EA2E
:105280000003C9F8003001DA882DDBD106238DF840
:10529000043000238DF80730084B8DF806501B684A
:1052A00001A89847CEE7002DCCD1024B0122DA6449
:1052B000C8E700BF00700240C01A0020C41A0020D6
:1052C000C42D0020C32D002008710240307102401F
:1052D000BC1A0020C22D0020A802002050710240FC
:1052E0002C71024094FAA4F3B3FA83F30F2BD8F88D
:1052F00000201946C8BFA3F1100105FA03F342EAE2
:105300000302C8F80020D9F80020CCBFC9B241F090
:10531000800124EA030413400A0640F1938043B954
:105320008DF804608DF806108DF807303B6801A8F1
:105330009847002CD6D1A74BD3F800215AB1C3F817
:105340000041A54B1C70A54B1C7001230193A44B7D
:1053500001A81B6898479F4BD3F85821002A2ED0EC
:105360000022C3F85821D3F80044C3F80044E605EE
:1053700008D5994B01221A7002230193984B01A87A
:105380001B689847A50508D5934B00221A70032384
:105390000193934B01A81B68984764050FD58E4B6A
:1053A0001A7862B100221A708A4B0122C3F80825CC
:1053B0009A65042301938A4B01A81B689847854B83
:1053C000D3F85C3123B3874B9B681BB99AF8003044
:1053D00058061DD07F4B0022C3F85C21D3F88034DF
:1053E0007E4A23F07F031370D9F8003023F00113B5
:1053F000C9F80030D8F8003023F4803343F00103BB
:10540000C8F8003005230193754B01A81B68984725
:10541000D9F80020D8F800301A4200F0C88071484E
:105420000022002303F0D6FD002840F0C080694B25
:10543000D3F82C35002B44D06A4803B0BDE8F04FB8
:1054400003F094BD002B7FF474AF8DF804608DF8E9
:1054500006108DF8075069E70B4661E0003A69E0F5
:105460002046FFF75DFED5E90032B5F814C0904242
:105470009FBF121AC7182F606A6094BF07460027A3
:1054800060450CBF4FF0010C4FF0000C002A08BF24
:105490004FF0000C002B53D0874251D20123B34070
:1054A00021EA0303C9F8003006238DF804304C4B81
:1054B0008DF8064002221B68AA758DF8072001A806
:1054C0009847D9F80010D8F800600E40B4D016F014
:1054D000012314BF93FAA3F696FAA6F6B6FA86F657
:1054E000F4B20F2EC6BF103CE4B244F08004204654
:1054F000FFF71AFC4FFA84FBBBF1000F0546AFDA49
:105500004368878A01689F4228BF1F4601F06043B5
:10551000B3F1005FA0D034483A4606F0F8FA324BB7
:1055200029686A6839442960A968D21BC9076A607A
:1055300094D53A1E18BF01222AB900222A7302E02C
:10554000BCF1000FF9D04FF080520120D2F8302189
:10555000082A02BF1F4A8221C2F81C1CD8F800206A
:105560008AF8004000FA06F622EA0602C8F800208F
:105570002A6914F0080F3A442A61164A1AD1BBF17D
:10558000000F04F00F044FF0140101FB0421A9BF28
:105590000A3402EB8402C1F80037C1F80477AFBFC8
:1055A00042F82400C1F80036C1F80476506003B018
:1055B000BDE8F08FBBF1000FB5BFC2F8A036C2F84E
:1055C000A037C2F8A476C2F8A477B4BF5062906442
:1055D000EDE700BF00700240C52D0020C42D002063
:1055E000C41A0020A8020020CC180020024B40F46E
:1055F0008070C3F81805704700700240030713D489
:1056000000F00F0310F0800F084A0BBF03F58873FA
:1056100003F5847302EB830252F8230008BF50683D
:10562000003818BF0120704700207047007002400A
:10563000034BC3F80C0540F48070C3F80C057047A9
:10564000007002400023036043600E4BD3F88024B7
:105650000270D3F884244270D3F88824D3F88C14D1
:1056600042EA01224280D3F89024D3F8941442EA0B
:1056700001228280D3F89824D3F89C3442EA032391
:10568000C380704700700240014B0122DA6470470A
:1056900000700240014B01221A6570470070024001
:1056A000014B01225A65704700700240014B187887
:1056B000704700BFC42D002010B50246EFF31184DF
:1056C000402383F31288BFF36F8F05F08AF90B49EB
:1056D000012303FA00F00B6823EA00030B6012F0C9
:1056E000080101BF02F00F02054B02F5947243F866
:1056F000221084F31188BFF36F8F10BDC01A0020F1
:1057000000700240F7B50146EFF31185402383F3A3
:105710001288BFF36F8FFFF707FB0646084605F0B8
:1057200060F9012211F0800F02FA00F22D4818D121
:10573000036832EA03040AD00846FFF7BDFF0323DB
:10574000B37585F31188BFF36F8F03B0F0BD2649A1
:10575000347323EA020303600B6823EA02030B603D
:10576000EDE70B0715D48029204B2FD001F00F0453
:1057700004F2DA346400C3F80048D3F80448D3F8DC
:105780000478E4B244F002043C43C3F80448D3F87C
:105790000438154F04683B6864EA030C1CEA020FE6
:1057A000CFD013433B60002333730323B3758DF8CD
:1057B00007300F4B8DF8061024EA0204062204601D
:1057C0001B688DF8042001A89847BAE740F2B4742A
:1057D000C3F80048D3F80448D3F80478E4B244F09E
:1057E0000404D1E7BC1A0020C01A00200070024057
:1057F000C41A002010B504464FF0FF324FF0FF33BB
:10580000064803F0E7FB2046FFF77CFF034803F060
:10581000ADFB034B8022C3F8042110BDA802002079
:1058200000E100E0F8B54FF0FF324FF0FF332B48B6
:1058300003F0D0FB2A4B8022C3F884212720FEF7F7
:10584000DFF898B1274E284B34681B686FF30F04BC
:105850001C43012764BB254D40F2FF133360272012
:10586000C5F80445FEF7B8F8C5F80043204A137898
:105870008BB11E4B0021C3F808110121C3F800268B
:10588000C3F804165960D3F808110029FBD0002191
:10589000C3F808111170154B0022C3F80025FFF75B
:1058A0008FFA0E4803F062FB124B01221A70F8BD0A
:1058B00094FAA4F5B5FA85F50F2D2846C6BFA5F1D3
:1058C0001000C0B240F08000030701D4FFF71AFFB8
:1058D00007FA05F524EA0504BCE700BFA80200208A
:1058E00000E100E0C01A0020BC1A00200070024055
:1058F000C22D0020C62D002010B504464FF0FF3207
:105900004FF0FF33114803F065FB2046FFF7FAFE26
:1059100004F00F02012393400D4A14F0800F14BFCE
:10592000D2F81015D2F814156FEA030315BF0B4017
:105930000B40C2F81035C2F81435044803F016FBCA
:10594000044B8022C3F8042110BD00BFA802002030
:105950000070024000E100E070B50446FFF786FBEE
:1059600068B904F00F02012514F0800F144B05FAFA
:1059700002F205D0D3F810150A43C3F8102570BD04
:10598000D3F814150A43C3F81425631E062BF6D862
:10599000EFF31186402383F31288BFF36F8F204605
:1059A000FFF78AFE204605F01CF8064A136885407A
:1059B00023EA0503136086F31188BFF36F8FDEE7D8
:1059C00000700240BC1A0020030610B5044605D43E
:1059D000FFF714FE10B12046FFF76EFE014BC3F82F
:1059E000184510BD00700240084B70B5C31A0D4633
:1059F00007499B10044659430648402205F01DF80C
:105A00002B4601462046BDE870401847DC1A0020AE
:105A1000B76DDBB6E4BB000073B50C4C0C4A4023F9
:105A2000041B00930D460B460A49A4106143064629
:105A3000094805F02DF8014628B130462B4602B042
:105A4000BDE87040184702B070BD00BFDC1A0020EE
:105A5000FFAA0000B76DDBB6E4BB00000022F8B57A
:105A6000012105461046FDF7D9FF104802F076FBEC
:105A70000446B8B902F092FB2F690D49384604F08C
:105A8000C6FD031E09DB01263E642D69084905F1A8
:105A90001C0004F0BCFD031E02DA1C462046F8BDC3
:105AA000EE64FBE76FF00404F8E700BFDD5B000085
:105AB00050BF00001FB500220123CDE902236C4630
:105AC000074A6B46CDE9004405F012F828B94FF4B7
:105AD00080420023684603F07DFA04B010BD00BF89
:105AE00011AB000010B5EFF31184402383F312884B
:105AF000BFF36F8F074A136823F00201DB071160C1
:105B000002D4012005F07DF984F31188BFF36F8F73
:105B100010BD00BF2C1B002030B4104B0C2202FB28
:105B2000003301460020D3E90E529863EFF3118051
:105B3000402484F31288BFF36F8F1C6C04F0C00400
:105B400044F002041C6480F31188BFF36F8F1DB111
:105B50002B46034830BC184730BC7047DC1A002085
:105B6000E4BB000010B4EFF31180402282F31288EE
:105B7000BFF36F8F17490B6843F0020413F0010362
:105B80000C601AD04FF08043D3F80C14D3F80C34C7
:105B900013F0010311D0EFF3118182F31288BFF3E8
:105BA0006F8F0D4A136C03F0C00343F002031364BC
:105BB00081F31188BFF36F8F012380F31188BFF346
:105BC0006F8F1BB110BC0020FFF7A6BF10BC0120D7
:105BD00005F00FB92C1B0020DC1A002010B10128A1
:105BE00004D07047034B1B6C5B0701D1FFF794BFD8
:105BF000704700BFDC1A0020024AC3B21C2000FB21
:105C000003207047DC1A00202DE9F0413849BFF32A
:105C10005B8F8046012251E8003F41E800200028C8
:105C2000F9D1BFF35B8F33B9324933484B60CB6056
:105C30008A6004F0FFFC08F1FF33012B4BD8B8F168
:105C4000010F07D14FF08043D3F81C3403F0030356
:105C5000012B40D005F0E4FD054658B1EFF3118665
:105C6000402383F31288BFF36F8F0125234F4FF03A
:105C700080441EE0224B1B78002BEFD04FF0804376
:105C80000222C3F808230646F0E735B3304604F095
:105C900003FED4F8183563B9D4F804214AB1C4F826
:105CA0000431D4F804310123C4F81835C7F8803121
:105CB000A360D4F81824D4F81834D203E5D503F03F
:105CC0000303012B02D0B8F1010FDED155B186F3E9
:105CD0001188BFF36F8FBDE8F0810021212005F00E
:105CE0003DFED6E74FF080430222C3F80423F2E7DB
:105CF000D81A0020C81A0020F81A002000E100E09D
:105D00006E300020024B0B6001231360704700BF10
:105D1000301B0020004870476CBF000010B5012206
:105D200011460648064C05F031FD05F06EFB20607B
:105D300005F067FB6060002010BD00BF381B00202D
:105D4000301B00204FF08042D2F81015D2F81035E9
:105D500001F01E0123F01F030B4343F00103C2F8BF
:105D60001035024B00221A70704700BFC72D00206B
:105D70004FF08053D3F83031082B20D14FF08042C0
:105D8000D2F81015CB071AD5D2F8103501F01E0144
:105D900023F01F030B43C2F81035D2F808315BB172
:105DA000D2F8103523F01F030B4343F00103C2F870
:105DB00010356FF08B007047024B01221A700020E3
:105DC000704700BFC72D00202DE9F0410D46164653
:105DD00005F017FB31460746284604F0A9FE78B3C4
:105DE000B5FBF7F307FB135353BBB6FBF7F407FB05
:105DF00014642CBBB7421DD84FF0FF324FF0FF3375
:105E00001148DFF8488003F0E5F805F0FAFA074694
:105E1000FFF7AEFF044680B9284602F05BFC98F815
:105E200000300BB1FFF78EFFF61B3D44F0D1064862
:105E300003F09CF82046BDE8F0816FF08B04F6E794
:105E40006FF01504F6E700BF381B0020C72D0020B7
:105E50002DE9F8430E463046194617461C4604F015
:105E600067FE88B346EA040515F003052CD1BCB1E2
:105E70001748DFF860904FF0FF324FF0FF3303F028
:105E8000A9F824F00304AC4206EB05080BD1124A32
:105E9000D2F80034DB07FBD500240D4803F066F888
:105EA0002046BDE8F883FFF763FF50B979594046B3
:105EB00002F02CFC99F800300BB1FFF743FF0435DA
:105EC000E1E76FF08B04E8E76FF01504E8E700BF47
:105ED000381B0020C72D002000E001402DE9F043D1
:105EE000476840F20636D0063B7C87B002EA0606D9
:105EF00054BFC2F3401C4FF0030C01F01F05B6F570
:105F0000837F144645EA43158DF803C044D00DD86D
:105F1000062E16D005D8A6B1022E3FD06FF0150080
:105F200037E0B6F5807FF9D101260AE040F202227F
:105F3000964235D0B6F5407F34D0B6F5007FEDD12E
:105F40000226220330D57A6801238B40C2F8083537
:105F5000B868A0BB05F01F036D092DD0012D77D1C6
:105F60003E4A02EB8302C4F30043D2F8001783F0E9
:105F70000103C4F3404444EA430421F4E16144EAE8
:105F80008C0421F0070144EA06230B43C2F80037D2
:105F9000002007B0BDE8F0830726D2E70426D0E74B
:105FA0000526CEE70326CCE7630341BF01237A68C9
:105FB0008B40C2F80C35CBE74FF0A042D1E70DF192
:105FC0000202294605F08DF914F4403F80460CD1B9
:105FD000B868294605F0BAF9B8F1000FD8D19DF894
:105FE0000210B86802F072FAD2E74FF0000901AB74
:105FF000CDE90199CDE90439CDF80C90B86803AA30
:10600000294605F043F84845C2DB14F4003314D0A8
:10601000C4F300449DF803308DF80E3084F0010481
:106020008DF80C608DF80D40B8684B4603AA2946E0
:1060300005F0DFF80028CFDAAAE7CDE904330DF147
:1060400003030393B86803AA294605F01FF8F1E794
:1060500003F5E07350F82330FFDE00BF000300506B
:10606000420970B5034602D0012A17D070BD0D4E0B
:10607000326951680029F9D003F01F0301250C682B
:106080009D400029F2D08A682A4002D04B683046F1
:1060900098472CB1236821461C46F2E7024EE7E7F9
:1060A0002346F8E71CBC000000BC000038B545687A
:1060B000A86890B105F044F9014670B9A86805F0E8
:1060C00023F9044658B902460649A86805F006F9BE
:1060D000224605210620FDF7A1FC002038BD6FF007
:1060E0000400FBE761600000F0B544681646A06854
:1060F000227C01F01F0587B045EA421500286DD0CB
:10610000B6F5001F04D1294605F073F9002056E0CA
:106110006268607CC2F8240501AA0020B6F5800FF1
:106120000190506037D1B3F1007F14BF05230423E1
:106130008DF804300023CDE904230393E36823FAA8
:1061400001F111F001010DF103073AD1B6F1A07F81
:1061500037D105F01F036A0903F5E07326D0012A41
:106160003FD1214A52F82330DB072AD4A0683A46AF
:10617000294605F0B6F816301BD00297A06803AA8E
:10618000294604F083FF002819DBA0680122294674
:1061900005F0DEF8BAE7B3F1C06F05D0B3F1007FC8
:1061A00014BF01230223C3E70323C1E74FF0A0423A
:1061B000D8E7A068394602F08FF90028DDDA07B089
:1061C000F0BDA0683A46294605F08BF80028D5D1E5
:1061D0009DF80310A06802F079F9CFE76FF0850011
:1061E000EDE751F82330FFDE0003005070B50123C6
:1061F00083400F4ABFF35B8FDC4352E8001F01EA84
:10620000040542E80056002EF7D1BFF35B8F4FF430
:10621000803282400748C0F80823BFF35F8FBFF386
:106220006F8F03EA0100003818BF012070BD00BF66
:10623000641B00200010014070B41249D1E9003401
:10624000D01AC31844F1000422F07F46C1E900349B
:10625000A6F50013B3F5400F09D20B4B1B681A0AC1
:106260001B069C19094B42F10005C3E90045EFF3F9
:106270001181402383F31288BFF36F8F70BC03F04A
:1062800033BD00BF78060020681B00208006002078
:1062900011B3BFF35B8F0123104A834052E800CF54
:1062A0004CEA030C42E800C10029F7D1BFF35B8F31
:1062B0000B4A4FF480338340C2F80433094BBFF3D9
:1062C0005B8F1B68BFF35B8FC340DB0742BF064B8E
:1062D0004FF40032C3F80021704700BF641B002058
:1062E00000100140601B002000E100E00D4B186829
:1062F000010A0006BFF35F8F0B4BD3F80435181863
:1063000041F10001B3F5801F0AD2084BD3E9002305
:10631000904271EB030303D210F1807041F1000150
:10632000704700BF681B002000100140800600205D
:106330002DE9F04F85B016461F469DF840A0044653
:10634000FFF754FF0190FFF7D1FFB04271EB070355
:106350005ED23E4B301A67EB0101984271F10001A9
:1063600009D36FF0150520460199FFF791FF2846E4
:1063700005B0BDE8F08F364B03EB0413D3E90223DD
:106380009F4208BF964254D032494FF4803804F1FE
:10639000500508FA04F8AD00C1F848832046ADB2B4
:1063A00004F057FC26F07F4B05F1804504F5A873F7
:1063B00005F58835DC464FF003090293029A2CF06C
:1063C0007F4341F82230C1F84483D1F80435224A92
:1063D0006FF00200C01A604420F07F40904228D93C
:1063E000286868B1D1F804350393A3EB0B0020F0C3
:1063F0007F40B0F5000F1CD9204604F02AFC039B17
:10640000BAF1000FADD109EB030C09F10109D5E791
:10641000BAF1000FA5D10123104ABFF35B8FA3404F
:1064200052E8000F184342E800010029F8D1BFF3F9
:106430005B8F07490E98230101EB0412C8500F9B94
:106440005360C2E9026700258DE700BF01008000AC
:106450006806002000100140FDFF7F00601B002047
:106460007FB51C4C1C4BC4F80833C4F848331B4B95
:1064700000254FF0FF304FF0FF31C4F80855C3E955
:1064800002014FF48033C4F80433154B02264FF455
:1064900000320121C4F804631120C3F880212A4688
:1064A000FDF7BCFA1120FDF789FA0E4A0123A3601B
:1064B000236013600C4B0D4A0093CDE90155002376
:1064C0002846FFF735FF3046FFF79EFB284604B00D
:1064D00070BD00BF0010014003000F0068060020DF
:1064E00000E100E0641B002039620000FFFF7F0034
:1064F0002DE9F7432B4CD4F8043399070BD5D4F886
:10650000043143B1284A0023C4F80431D4F80431DB
:10651000136801331360D4F80433DA0323D5BFF3CF
:106520005B8F224B53E8002F22F0010143E800105B
:106530000028F7D1BFF35B8FD30702D4D4F84031E2
:106540008BB10025C4F84051D4F84031FFF7CEFE9E
:10655000EFF3108272B6164BD3E90267B042B9412D
:1065600004D282F3108803B0BDE8F0834FF0FF3807
:106570004FF0FF39C3E90289D3E900101D604FF4E1
:106580008033C4F84833C4F84051D4F8403182F322
:1065900010880029E7D0009032463B4628468847BD
:1065A000E1E700BF00100140681B0020601B0020D5
:1065B0006806002030B5431C124C85B005D08442DB
:1065C000A8BF0446012CB8BF0124FFF78FFE0E4B75
:1065D0000C4DD3E90013401AB0F5000F10D2221869
:1065E000AA4228BF2A4652184FF0000007490091DE
:1065F000CDE9010043F10003FFF79AFE05B030BD7D
:106600002A46F0E7FFFF7F0078060020396200008D
:1066100008B5FFF76BFE024B1B68C01A08BD00BF30
:1066200078060020042812D8DFE800F00D03110DD1
:106630000300084BA0221A60074B1872074BC3F8DF
:10664000100501207047034B4FF49672F3E70020CA
:10665000704700BF701B0020601C0020001000402D
:10666000014804F022BF00BF500100201FB5114BAC
:1066700093F90A001B7A013BDBB2032B9CBF0E4A45
:10668000D25C0E4BDB7C4FF0000188BF05220091ED
:1066900003F5166303A9FAF763FD9DF80D00FAF7F9
:1066A00059FD9DF80C20064BC3F80C2505B05DF88C
:1066B00004FB00BF601C0020E7C10000380100207F
:1066C0000010004038B500281349144840F2044532
:1066D00008BF4FF48065FAF71FFD044648B9FAF782
:1066E0000FFD204601F068F90D4B1B68C3F80052FE
:1066F00038BD0C4BDB7C002B0B4B0CBF81222822BE
:10670000C3F848250022C3F84821D3F848214FF4A4
:106710008022C3F80423E7E7D80000200801002006
:1067200050010020601C002000A00040B0F5A47FB4
:1067300009D1054B1A68D2F8003223F4806323F0A4
:106740000403C2F8003270475001002010B5094917
:106750000948FAF7E7FC044650B9FAF7D1FC20469D
:1067600001F02AF9054B1B6840F20442C3F80022ED
:1067700010BD00BFD80000202001002050010020E3
:10678000837842781B0443EA022302781343C278D9
:1067900043EA0253027943EA8253427943EA0263AD
:1067A000827943EA8263C27943EA4273094AC2F8B2
:1067B0001435837A417A1B0443EA0123017A0B439F
:1067C000C17A43EA0163017B43EA4163C2F81835A9
:1067D000704700BF001000401FB504460D22002185
:1067E000684605F0A2F90A4B00930A4B5B7CE0B2C5
:1067F000013B8DF808008DF809008DF80A306846D5
:1068000001238DF80B30FFF7BBFF04B010BD00BFB4
:10681000000101003801002008B5FAF789FC0C4995
:106820000C48FAF77FFC0C4B1A7812B9587CFFF72A
:10683000D3FF0A4B0A4AC3F8042540F21712C3F8E3
:106840000022084B084A1A60084B06221A7008BD3D
:10685000D800002020010020601C00200010004013
:10686000203000206C1B0020716A00006430002082
:1068700010B51C4B1B6801241C6101F0BFF8FAF72E
:106880005DFCFAF743FC20460021174C01F03CF96F
:106890000023C4F80032154B1A7812B9587CFFF760
:1068A0009BFF134BC4F804350023C4F81031D4F80F
:1068B0001031012323610C4BD3F81021002AFBD0A7
:1068C0000021C3F81011D3F8102140F21712C3F8B9
:1068D0000022012001F0ACF8FFF738FF054B012240
:1068E0009A6110BD5001002000100040601C002083
:1068F00020300020004001401FB518490B7823B11B
:10690000012B07D005B05DF804FB05B05DF804EB82
:10691000FFF762BF0022CDF809208DF80B30104B35
:10692000CDF805205B7CCDF80120013B8DF80A30C5
:1069300020238DF808300B7A03228DF80220012BDA
:106940004FF006028DF8002001D0042B02D1012364
:106950008DF805306846FFF713FFD3E7601C002071
:1069600038010020064BBFF35B8F53E8001F014343
:1069700043E80012002AF8D1BFF35B8F704700BFD5
:106980007C1B002008B5084804F082F958B107487C
:10699000436A0133082B28BF00234362BDE8084047
:1069A000283004F088B908BD541C00202C1C00209D
:1069B000F8B50646284804F06BF907280D4649DC6F
:1069C000264B274F1A78012A39D13B78C3F30502A9
:1069D00003F03F03202B3DD8224B196A53F8213096
:1069E0001A70204C2049236A54F8230010F8052B14
:1069F00005F08DF8236A54F823305E701B4B226A31
:106A0000D3F8483554F8222003F07F039370236AAB
:106A100054F823301D71236A54F823207B78DB431C
:106A200003F00103D370236A0133082B28BF00232E
:106A300004F12800236204F04AF90120F8BD094A54
:106A4000116A52F82120597809B91170C9E75B7CA5
:106A50001370C6E70020F1E7281C0020601C00200E
:106A600020300020001C00202230002000100040B8
:106A70002DE9F84F6B4AD2F8003413F0010803D126
:106A8000BDE8F84FFFF7F4BE674804F001F90728A6
:106A9000F6DCD2F80834654EDFF89491D2F80C4455
:106AA00099F80120DBB2C2F3410136F82300844299
:106AB0004FEA830704D1F0198078814200F090807A
:106AC0004FF0000AF2195B4C9170564AD2F80C2430
:106AD00026F82320A37C23B199F80130DB0740F18D
